{
  "contractName": "MusicToken",
  "abi": [
    {
      "inputs": [],
      "stateMutability": "nonpayable",
      "type": "constructor"
    },
    {
      "anonymous": false,
      "inputs": [
        {
          "indexed": true,
          "internalType": "address",
          "name": "owner",
          "type": "address"
        },
        {
          "indexed": true,
          "internalType": "address",
          "name": "spender",
          "type": "address"
        },
        {
          "indexed": false,
          "internalType": "uint256",
          "name": "value",
          "type": "uint256"
        }
      ],
      "name": "Approval",
      "type": "event"
    },
    {
      "anonymous": false,
      "inputs": [
        {
          "indexed": true,
          "internalType": "address",
          "name": "previousOwner",
          "type": "address"
        },
        {
          "indexed": true,
          "internalType": "address",
          "name": "newOwner",
          "type": "address"
        }
      ],
      "name": "OwnershipTransferred",
      "type": "event"
    },
    {
      "anonymous": false,
      "inputs": [
        {
          "indexed": true,
          "internalType": "address",
          "name": "from",
          "type": "address"
        },
        {
          "indexed": true,
          "internalType": "address",
          "name": "to",
          "type": "address"
        },
        {
          "indexed": false,
          "internalType": "uint256",
          "name": "value",
          "type": "uint256"
        }
      ],
      "name": "Transfer",
      "type": "event"
    },
    {
      "inputs": [],
      "name": "_antiDipAddress",
      "outputs": [
        {
          "internalType": "address",
          "name": "",
          "type": "address"
        }
      ],
      "stateMutability": "view",
      "type": "function",
      "constant": true
    },
    {
      "inputs": [],
      "name": "_antiDipFeeFromOracle",
      "outputs": [
        {
          "internalType": "uint256",
          "name": "",
          "type": "uint256"
        }
      ],
      "stateMutability": "view",
      "type": "function",
      "constant": true
    },
    {
      "inputs": [],
      "name": "_autoMode",
      "outputs": [
        {
          "internalType": "bool",
          "name": "",
          "type": "bool"
        }
      ],
      "stateMutability": "view",
      "type": "function",
      "constant": true
    },
    {
      "inputs": [],
      "name": "_maxTxAmount",
      "outputs": [
        {
          "internalType": "uint256",
          "name": "",
          "type": "uint256"
        }
      ],
      "stateMutability": "view",
      "type": "function",
      "constant": true
    },
    {
      "inputs": [],
      "name": "_projectAddress",
      "outputs": [
        {
          "internalType": "address",
          "name": "",
          "type": "address"
        }
      ],
      "stateMutability": "view",
      "type": "function",
      "constant": true
    },
    {
      "inputs": [],
      "name": "_projectFee",
      "outputs": [
        {
          "internalType": "uint256",
          "name": "",
          "type": "uint256"
        }
      ],
      "stateMutability": "view",
      "type": "function",
      "constant": true
    },
    {
      "inputs": [],
      "name": "_taxFee",
      "outputs": [
        {
          "internalType": "uint256",
          "name": "",
          "type": "uint256"
        }
      ],
      "stateMutability": "view",
      "type": "function",
      "constant": true
    },
    {
      "inputs": [],
      "name": "geUnlockTime",
      "outputs": [
        {
          "internalType": "uint256",
          "name": "",
          "type": "uint256"
        }
      ],
      "stateMutability": "view",
      "type": "function",
      "constant": true
    },
    {
      "inputs": [
        {
          "internalType": "uint256",
          "name": "time",
          "type": "uint256"
        }
      ],
      "name": "lock",
      "outputs": [],
      "stateMutability": "nonpayable",
      "type": "function"
    },
    {
      "inputs": [],
      "name": "owner",
      "outputs": [
        {
          "internalType": "address",
          "name": "",
          "type": "address"
        }
      ],
      "stateMutability": "view",
      "type": "function",
      "constant": true
    },
    {
      "inputs": [],
      "name": "renounceOwnership",
      "outputs": [],
      "stateMutability": "nonpayable",
      "type": "function"
    },
    {
      "inputs": [
        {
          "internalType": "address",
          "name": "newOwner",
          "type": "address"
        }
      ],
      "name": "transferOwnership",
      "outputs": [],
      "stateMutability": "nonpayable",
      "type": "function"
    },
    {
      "inputs": [],
      "name": "unlock",
      "outputs": [],
      "stateMutability": "nonpayable",
      "type": "function"
    },
    {
      "stateMutability": "payable",
      "type": "receive",
      "payable": true
    },
    {
      "inputs": [
        {
          "internalType": "address",
          "name": "_account",
          "type": "address"
        },
        {
          "internalType": "uint256",
          "name": "_amount",
          "type": "uint256"
        }
      ],
      "name": "mint",
      "outputs": [
        {
          "internalType": "bool",
          "name": "",
          "type": "bool"
        }
      ],
      "stateMutability": "nonpayable",
      "type": "function"
    },
    {
      "inputs": [
        {
          "internalType": "address",
          "name": "_account",
          "type": "address"
        },
        {
          "internalType": "uint256",
          "name": "_amount",
          "type": "uint256"
        }
      ],
      "name": "burn",
      "outputs": [
        {
          "internalType": "bool",
          "name": "",
          "type": "bool"
        }
      ],
      "stateMutability": "nonpayable",
      "type": "function"
    },
    {
      "inputs": [],
      "name": "name",
      "outputs": [
        {
          "internalType": "string",
          "name": "",
          "type": "string"
        }
      ],
      "stateMutability": "view",
      "type": "function",
      "constant": true
    },
    {
      "inputs": [],
      "name": "symbol",
      "outputs": [
        {
          "internalType": "string",
          "name": "",
          "type": "string"
        }
      ],
      "stateMutability": "view",
      "type": "function",
      "constant": true
    },
    {
      "inputs": [],
      "name": "decimals",
      "outputs": [
        {
          "internalType": "uint8",
          "name": "",
          "type": "uint8"
        }
      ],
      "stateMutability": "view",
      "type": "function",
      "constant": true
    },
    {
      "inputs": [],
      "name": "getAntiDipAddress",
      "outputs": [
        {
          "internalType": "address",
          "name": "",
          "type": "address"
        }
      ],
      "stateMutability": "view",
      "type": "function",
      "constant": true
    },
    {
      "inputs": [],
      "name": "getTaxFee",
      "outputs": [
        {
          "internalType": "uint256",
          "name": "",
          "type": "uint256"
        }
      ],
      "stateMutability": "view",
      "type": "function",
      "constant": true
    },
    {
      "inputs": [],
      "name": "getProjectFee",
      "outputs": [
        {
          "internalType": "uint256",
          "name": "",
          "type": "uint256"
        }
      ],
      "stateMutability": "view",
      "type": "function",
      "constant": true
    },
    {
      "inputs": [],
      "name": "getProjectAddress",
      "outputs": [
        {
          "internalType": "address",
          "name": "",
          "type": "address"
        }
      ],
      "stateMutability": "view",
      "type": "function",
      "constant": true
    },
    {
      "inputs": [],
      "name": "totalSupply",
      "outputs": [
        {
          "internalType": "uint256",
          "name": "",
          "type": "uint256"
        }
      ],
      "stateMutability": "view",
      "type": "function",
      "constant": true
    },
    {
      "inputs": [],
      "name": "maxTXAmountPerTransfer",
      "outputs": [
        {
          "internalType": "uint256",
          "name": "",
          "type": "uint256"
        }
      ],
      "stateMutability": "view",
      "type": "function",
      "constant": true
    },
    {
      "inputs": [],
      "name": "getAntiDipAutoFromOracle",
      "outputs": [
        {
          "internalType": "bool",
          "name": "",
          "type": "bool"
        }
      ],
      "stateMutability": "view",
      "type": "function",
      "constant": true
    },
    {
      "inputs": [],
      "name": "get_antiDipFeeFromOracle",
      "outputs": [
        {
          "internalType": "uint256",
          "name": "",
          "type": "uint256"
        }
      ],
      "stateMutability": "view",
      "type": "function",
      "constant": true
    },
    {
      "inputs": [
        {
          "internalType": "uint256",
          "name": "antiDipFeeFromOracle",
          "type": "uint256"
        }
      ],
      "name": "set_antiDipFeeFromOracle",
      "outputs": [
        {
          "internalType": "uint256",
          "name": "",
          "type": "uint256"
        }
      ],
      "stateMutability": "nonpayable",
      "type": "function"
    },
    {
      "inputs": [
        {
          "internalType": "address",
          "name": "account",
          "type": "address"
        }
      ],
      "name": "balanceOf",
      "outputs": [
        {
          "internalType": "uint256",
          "name": "",
          "type": "uint256"
        }
      ],
      "stateMutability": "view",
      "type": "function",
      "constant": true
    },
    {
      "inputs": [
        {
          "internalType": "uint256",
          "name": "_MaxTXPerThousand",
          "type": "uint256"
        },
        {
          "internalType": "address payable",
          "name": "_newProjectAddress",
          "type": "address"
        },
        {
          "internalType": "address payable",
          "name": "_newAntiDipAddress",
          "type": "address"
        },
        {
          "internalType": "bool",
          "name": "_antiDipAutoFromOracle",
          "type": "bool"
        }
      ],
      "name": "setPresaleParameters",
      "outputs": [],
      "stateMutability": "nonpayable",
      "type": "function"
    },
    {
      "inputs": [
        {
          "internalType": "uint256",
          "name": "_MaxTXPerThousand",
          "type": "uint256"
        },
        {
          "internalType": "bool",
          "name": "_antiDipAutoFromOracle",
          "type": "bool"
        }
      ],
      "name": "setPancakeSwapParameters",
      "outputs": [],
      "stateMutability": "nonpayable",
      "type": "function"
    },
    {
      "inputs": [
        {
          "internalType": "address",
          "name": "recipient",
          "type": "address"
        },
        {
          "internalType": "uint256",
          "name": "amount",
          "type": "uint256"
        }
      ],
      "name": "transfer",
      "outputs": [
        {
          "internalType": "bool",
          "name": "",
          "type": "bool"
        }
      ],
      "stateMutability": "nonpayable",
      "type": "function"
    },
    {
      "inputs": [
        {
          "internalType": "address",
          "name": "sender",
          "type": "address"
        },
        {
          "internalType": "address",
          "name": "recipient",
          "type": "address"
        },
        {
          "internalType": "uint256",
          "name": "amount",
          "type": "uint256"
        }
      ],
      "name": "transferFrom",
      "outputs": [
        {
          "internalType": "bool",
          "name": "",
          "type": "bool"
        }
      ],
      "stateMutability": "nonpayable",
      "type": "function"
    },
    {
      "inputs": [
        {
          "internalType": "address",
          "name": "owner",
          "type": "address"
        },
        {
          "internalType": "address",
          "name": "spender",
          "type": "address"
        }
      ],
      "name": "allowance",
      "outputs": [
        {
          "internalType": "uint256",
          "name": "",
          "type": "uint256"
        }
      ],
      "stateMutability": "view",
      "type": "function",
      "constant": true
    },
    {
      "inputs": [
        {
          "internalType": "address",
          "name": "spender",
          "type": "address"
        },
        {
          "internalType": "uint256",
          "name": "amount",
          "type": "uint256"
        }
      ],
      "name": "approve",
      "outputs": [
        {
          "internalType": "bool",
          "name": "",
          "type": "bool"
        }
      ],
      "stateMutability": "nonpayable",
      "type": "function"
    },
    {
      "inputs": [
        {
          "internalType": "address",
          "name": "spender",
          "type": "address"
        },
        {
          "internalType": "uint256",
          "name": "addedValue",
          "type": "uint256"
        }
      ],
      "name": "increaseAllowance",
      "outputs": [
        {
          "internalType": "bool",
          "name": "",
          "type": "bool"
        }
      ],
      "stateMutability": "nonpayable",
      "type": "function"
    },
    {
      "inputs": [
        {
          "internalType": "address",
          "name": "spender",
          "type": "address"
        },
        {
          "internalType": "uint256",
          "name": "subtractedValue",
          "type": "uint256"
        }
      ],
      "name": "decreaseAllowance",
      "outputs": [
        {
          "internalType": "bool",
          "name": "",
          "type": "bool"
        }
      ],
      "stateMutability": "nonpayable",
      "type": "function"
    },
    {
      "inputs": [
        {
          "internalType": "address",
          "name": "account",
          "type": "address"
        }
      ],
      "name": "isExcludedFromReward",
      "outputs": [
        {
          "internalType": "bool",
          "name": "",
          "type": "bool"
        }
      ],
      "stateMutability": "view",
      "type": "function",
      "constant": true
    },
    {
      "inputs": [],
      "name": "totalFees",
      "outputs": [
        {
          "internalType": "uint256",
          "name": "",
          "type": "uint256"
        }
      ],
      "stateMutability": "view",
      "type": "function",
      "constant": true
    },
    {
      "inputs": [
        {
          "internalType": "uint256",
          "name": "rAmount",
          "type": "uint256"
        }
      ],
      "name": "tokenFromReflection",
      "outputs": [
        {
          "internalType": "uint256",
          "name": "",
          "type": "uint256"
        }
      ],
      "stateMutability": "view",
      "type": "function",
      "constant": true
    },
    {
      "inputs": [
        {
          "internalType": "address",
          "name": "account",
          "type": "address"
        }
      ],
      "name": "excludeFromReward",
      "outputs": [],
      "stateMutability": "nonpayable",
      "type": "function"
    },
    {
      "inputs": [
        {
          "internalType": "address",
          "name": "account",
          "type": "address"
        }
      ],
      "name": "includeInReward",
      "outputs": [],
      "stateMutability": "nonpayable",
      "type": "function"
    },
    {
      "inputs": [
        {
          "internalType": "address",
          "name": "account",
          "type": "address"
        }
      ],
      "name": "excludeFromFee",
      "outputs": [],
      "stateMutability": "nonpayable",
      "type": "function"
    },
    {
      "inputs": [
        {
          "internalType": "address",
          "name": "account",
          "type": "address"
        }
      ],
      "name": "includeInFee",
      "outputs": [],
      "stateMutability": "nonpayable",
      "type": "function"
    },
    {
      "inputs": [
        {
          "internalType": "address",
          "name": "account",
          "type": "address"
        }
      ],
      "name": "excludeFromAntiDipFee",
      "outputs": [],
      "stateMutability": "nonpayable",
      "type": "function"
    },
    {
      "inputs": [
        {
          "internalType": "address",
          "name": "account",
          "type": "address"
        }
      ],
      "name": "includeInAntiDipFee",
      "outputs": [],
      "stateMutability": "nonpayable",
      "type": "function"
    },
    {
      "inputs": [
        {
          "internalType": "uint256",
          "name": "taxFee",
          "type": "uint256"
        },
        {
          "internalType": "uint256",
          "name": "projectFee",
          "type": "uint256"
        }
      ],
      "name": "setFeePercent",
      "outputs": [],
      "stateMutability": "nonpayable",
      "type": "function"
    },
    {
      "inputs": [
        {
          "internalType": "bool",
          "name": "autoMode",
          "type": "bool"
        }
      ],
      "name": "setAntiDipAutoFromOracle",
      "outputs": [],
      "stateMutability": "nonpayable",
      "type": "function"
    },
    {
      "inputs": [
        {
          "internalType": "uint256",
          "name": "maxTxThousand",
          "type": "uint256"
        }
      ],
      "name": "setMaxTxPerThousand",
      "outputs": [],
      "stateMutability": "nonpayable",
      "type": "function"
    },
    {
      "inputs": [
        {
          "internalType": "address payable",
          "name": "_newaddress",
          "type": "address"
        }
      ],
      "name": "changeProjectAddress",
      "outputs": [],
      "stateMutability": "nonpayable",
      "type": "function"
    },
    {
      "inputs": [
        {
          "internalType": "address payable",
          "name": "_newaddress",
          "type": "address"
        }
      ],
      "name": "changeAntiDipAddress",
      "outputs": [],
      "stateMutability": "nonpayable",
      "type": "function"
    },
    {
      "inputs": [
        {
          "internalType": "address",
          "name": "account",
          "type": "address"
        }
      ],
      "name": "isExcludedFromFee",
      "outputs": [
        {
          "internalType": "bool",
          "name": "",
          "type": "bool"
        }
      ],
      "stateMutability": "view",
      "type": "function",
      "constant": true
    },
    {
      "inputs": [
        {
          "internalType": "address",
          "name": "account",
          "type": "address"
        }
      ],
      "name": "isExcludedFromAntiDipFee",
      "outputs": [
        {
          "internalType": "bool",
          "name": "",
          "type": "bool"
        }
      ],
      "stateMutability": "view",
      "type": "function",
      "constant": true
    }
  ],
  "bytecode": "0x608060405269152d02c7e14af6800000600a81905562000022906000196200036c565b62000030906000196200030b565b600b908155601e600e55604080518082019091528181526a26bab9b4b1902a37b5b2b760a91b60209091019081526200006d91600f919062000265565b506040805180820190915260088082526726aaa9a4a1aa25a760c11b60209092019182526200009f9160109162000265565b506011805461ffff1916600917905560006012819055601381905560148190556015819055601681905560175569152d02c7e14af6800000601855601980546001600160a01b03199081167331e1149141534a4ae69283150eef010826162e6017909155601a8054909116739731ed56e6d13b5220f4de929f41490b4939ad631790553480156200012f57600080fd5b50600080546001600160a01b031916339081178255604051909182917f8be0079c531659141344cd1fd0a4f28419497f9722a3daafe3b4186f6b6457e0908290a350600b543360008181526003602090815260408083209490945581546001600160a01b039081168352600682528483208054600160ff19918216811790925530808652878620805483168417905560198054851687528887208054841685179055601a80548616885289882080548516861790558754861688526007875289882080548516861790559187528887208054841685179055548416865287862080548316841790555490921684528584208054909216179055600a549351938452919290917fddf252ad1be2c89b69c2b068fc378daa952ba7f163c4a11628f55a4df523b3ef910160405180910390a36200038d565b82805462000273906200032f565b90600052602060002090601f016020900481019282620002975760008555620002e2565b82601f10620002b257805160ff1916838001178555620002e2565b82800160010185558215620002e2579182015b82811115620002e2578251825591602001919060010190620002c5565b50620002f0929150620002f4565b5090565b5b80821115620002f05760008155600101620002f5565b6000828210156200032a57634e487b7160e01b81526011600452602481fd5b500390565b600181811c908216806200034457607f821691505b602082108114156200036657634e487b7160e01b600052602260045260246000fd5b50919050565b6000826200038857634e487b7160e01b81526012600452602481fd5b500690565b612f0e806200039d6000396000f3fe6080604052600436106103035760003560e01c80636f16782611610190578063d47f4d2a116100dc578063e2ffbb1311610095578063ea2f0b371161006f578063ea2f0b3714610917578063ed93ced914610937578063f2fde38b14610970578063f66608fe1461099057600080fd5b8063e2ffbb13146108b7578063e70cf30e146108d7578063e8082858146108f757600080fd5b8063d47f4d2a146107e0578063d666e3a9146107fe578063dd4670641461081c578063dd62ed3e1461083c578063ddbbfc8314610882578063e17ad9ad1461089757600080fd5b806395d89b4111610149578063a457c2d711610123578063a457c2d714610776578063a69df4b514610796578063a9059cbb146107ab578063b6c52324146107cb57600080fd5b806395d89b411461072157806398d68639146107365780639dc29fac1461075657600080fd5b80636f1678261461065f57806370a082311461067f578063715018a61461069f5780637d1db4a5146106b457806388f82020146106ca5780638da5cb5b1461070357600080fd5b8063395093511161024f578063417be6c8116102085780634d19aa48116101e25780634d19aa48146105b857806352390c02146105f05780635342acb414610610578063585e6b0d1461064957600080fd5b8063417be6c814610566578063434ba7c51461057b578063437823ec1461059857600080fd5b806339509351146104b15780633b124fe7146104d15780633f35f956146104e7578063405ba2171461050757806340b295c61461052657806340c10f191461054657600080fd5b8063143e7003116102bc5780632ac109b6116102965780632ac109b61461042f5780632d8381191461044f578063313ce5671461046f5780633685d4191461049157600080fd5b8063143e7003146103da57806318160ddd146103fa57806323b872dd1461040f57600080fd5b806306fdde031461030f578063095ea7b31461033a5780630bfe93271461036a5780630e9012f01461038e578063107b3d58146103a357806313114a9d146103c557600080fd5b3661030a57005b600080fd5b34801561031b57600080fd5b506103246109a5565b6040516103319190612b86565b60405180910390f35b34801561034657600080fd5b5061035a610355366004612a8d565b610a37565b6040519015158152602001610331565b34801561037657600080fd5b5061038060165481565b604051908152602001610331565b34801561039a57600080fd5b50601654610380565b3480156103af57600080fd5b506103c36103be366004612ad2565b610a4e565b005b3480156103d157600080fd5b50600c54610380565b3480156103e657600080fd5b506103c36103f5366004612aea565b610aa8565b34801561040657600080fd5b50600a54610380565b34801561041b57600080fd5b5061035a61042a366004612a4d565b610b0c565b34801561043b57600080fd5b506103c361044a366004612ab8565b610b75565b34801561045b57600080fd5b5061038061046a366004612ad2565b610bb9565b34801561047b57600080fd5b5060115460405160ff9091168152602001610331565b34801561049d57600080fd5b506103c36104ac3660046129f9565b610c3d565b3480156104bd57600080fd5b5061035a6104cc366004612a8d565b610e2c565b3480156104dd57600080fd5b5061038060145481565b3480156104f357600080fd5b50610380610502366004612ad2565b610e62565b34801561051357600080fd5b5060115461035a90610100900460ff1681565b34801561053257600080fd5b506103c3610541366004612b3a565b610e9a565b34801561055257600080fd5b5061035a610561366004612a8d565b610ef2565b34801561057257600080fd5b50601854610380565b34801561058757600080fd5b50601154610100900460ff1661035a565b3480156105a457600080fd5b506103c36105b33660046129f9565b61103d565b3480156105c457600080fd5b50601a546105d8906001600160a01b031681565b6040516001600160a01b039091168152602001610331565b3480156105fc57600080fd5b506103c361060b3660046129f9565b61108b565b34801561061c57600080fd5b5061035a61062b3660046129f9565b6001600160a01b031660009081526006602052604090205460ff1690565b34801561065557600080fd5b5061038060125481565b34801561066b57600080fd5b506103c361067a366004612b65565b6111de565b34801561068b57600080fd5b5061038061069a3660046129f9565b611213565b3480156106ab57600080fd5b506103c3611272565b3480156106c057600080fd5b5061038060185481565b3480156106d657600080fd5b5061035a6106e53660046129f9565b6001600160a01b031660009081526008602052604090205460ff1690565b34801561070f57600080fd5b506000546001600160a01b03166105d8565b34801561072d57600080fd5b506103246112d4565b34801561074257600080fd5b506103c36107513660046129f9565b6112e3565b34801561076257600080fd5b5061035a610771366004612a8d565b611331565b34801561078257600080fd5b5061035a610791366004612a8d565b611547565b3480156107a257600080fd5b506103c3611596565b3480156107b757600080fd5b5061035a6107c6366004612a8d565b61169b565b3480156107d757600080fd5b50600254610380565b3480156107ec57600080fd5b506019546001600160a01b03166105d8565b34801561080a57600080fd5b50601a546001600160a01b03166105d8565b34801561082857600080fd5b506103c3610837366004612ad2565b6116a8565b34801561084857600080fd5b50610380610857366004612a15565b6001600160a01b03918216600090815260056020908152604080832093909416825291909152205490565b34801561088e57600080fd5b50601254610380565b3480156108a357600080fd5b506103c36108b23660046129f9565b61172d565b3480156108c357600080fd5b506103c36108d23660046129f9565b611778565b3480156108e357600080fd5b506019546105d8906001600160a01b031681565b34801561090357600080fd5b506103c36109123660046129f9565b6117c4565b34801561092357600080fd5b506103c36109323660046129f9565b611810565b34801561094357600080fd5b5061035a6109523660046129f9565b6001600160a01b031660009081526007602052604090205460ff1690565b34801561097c57600080fd5b506103c361098b3660046129f9565b61185b565b34801561099c57600080fd5b50601454610380565b6060600f80546109b490612de7565b80601f01602080910402602001604051908101604052809291908181526020018280546109e090612de7565b8015610a2d5780601f10610a0257610100808354040283529160200191610a2d565b820191906000526020600020905b815481529060010190602001808311610a1057829003601f168201915b5050505050905090565b6000610a44338484611933565b5060015b92915050565b6000546001600160a01b03163314610a815760405162461bcd60e51b8152600401610a7890612c66565b60405180910390fd5b610aa26103e8610a9c83600a54611a5790919063ffffffff16565b90611ad6565b60185550565b6000546001600160a01b03163314610ad25760405162461bcd60e51b8152600401610a7890612c66565b610ada611b18565b610ae2611b46565b610aeb81610b75565b610af484610a4e565b610afd836117c4565b610b0682611778565b50505050565b6000610b608433610b5b85604051806060016040528060288152602001612eb1602891396001600160a01b038a1660009081526005602090815260408083203384529091529020549190611b5c565b611933565b610b6b848484611b96565b5060019392505050565b6000546001600160a01b03163314610b9f5760405162461bcd60e51b8152600401610a7890612c66565b601180549115156101000261ff0019909216919091179055565b6000600b54821115610c205760405162461bcd60e51b815260206004820152602a60248201527f416d6f756e74206d757374206265206c657373207468616e20746f74616c207260448201526965666c656374696f6e7360b01b6064820152608401610a78565b6000610c2a611cac565b9050610c368382611ad6565b9392505050565b6000546001600160a01b03163314610c675760405162461bcd60e51b8152600401610a7890612c66565b6001600160a01b03811660009081526008602052604090205460ff16610ccf5760405162461bcd60e51b815260206004820152601b60248201527f4163636f756e7420697320616c7265616479206578636c7564656400000000006044820152606401610a78565b60005b600954811015610e2857816001600160a01b031660098281548110610d0757634e487b7160e01b600052603260045260246000fd5b6000918252602090912001546001600160a01b03161415610e165760098054610d3290600190612dd0565b81548110610d5057634e487b7160e01b600052603260045260246000fd5b600091825260209091200154600980546001600160a01b039092169183908110610d8a57634e487b7160e01b600052603260045260246000fd5b600091825260208083209190910180546001600160a01b0319166001600160a01b039485161790559184168152600482526040808220829055600890925220805460ff191690556009805480610df057634e487b7160e01b600052603160045260246000fd5b600082815260209020810160001990810180546001600160a01b03191690550190555050565b80610e2081612e22565b915050610cd2565b5050565b3360008181526005602090815260408083206001600160a01b03871684529091528120549091610a44918590610b5b9086611ccf565b600080546001600160a01b03163314610e8d5760405162461bcd60e51b8152600401610a7890612c66565b506012819055805b919050565b6000546001600160a01b03163314610ec45760405162461bcd60e51b8152600401610a7890612c66565b610ed5601554601455601754601655565b610ee0601354601255565b610ee981610b75565b610e2882610a4e565b600080546001600160a01b03163314610f1d5760405162461bcd60e51b8152600401610a7890612c66565b6001600160a01b038316610f735760405162461bcd60e51b815260206004820152601f60248201527f42455032303a206d696e7420746f20746865207a65726f2061646472657373006044820152606401610a78565b600a54610f809083611ccf565b600a556001600160a01b03831660009081526008602052604090205460ff1615610fcd576001600160a01b038316600090815260046020526040902054610fc79083611ccf565b50610ff2565b6001600160a01b038316600090815260036020526040902054610ff09083611ccf565b505b6040518281526001600160a01b038416906000907fddf252ad1be2c89b69c2b068fc378daa952ba7f163c4a11628f55a4df523b3ef906020015b60405180910390a350600192915050565b6000546001600160a01b031633146110675760405162461bcd60e51b8152600401610a7890612c66565b6001600160a01b03166000908152600660205260409020805460ff19166001179055565b6000546001600160a01b031633146110b55760405162461bcd60e51b8152600401610a7890612c66565b6001600160a01b03811660009081526008602052604090205460ff161561111e5760405162461bcd60e51b815260206004820152601b60248201527f4163636f756e7420697320616c7265616479206578636c7564656400000000006044820152606401610a78565b6001600160a01b03811660009081526003602052604090205415611178576001600160a01b03811660009081526003602052604090205461115e90610bb9565b6001600160a01b0382166000908152600460205260409020555b6001600160a01b03166000818152600860205260408120805460ff191660019081179091556009805491820181559091527f6e1540171b6c0c960b71a7020d9f60077f6af931a8bbf590da0223dacf75c7af0180546001600160a01b0319169091179055565b6000546001600160a01b031633146112085760405162461bcd60e51b8152600401610a7890612c66565b601491909155601655565b6001600160a01b03811660009081526008602052604081205460ff161561125057506001600160a01b031660009081526004602052604090205490565b6001600160a01b038216600090815260036020526040902054610a4890610bb9565b6000546001600160a01b0316331461129c5760405162461bcd60e51b8152600401610a7890612c66565b600080546040516001600160a01b0390911690600080516020612e91833981519152908390a3600080546001600160a01b0319169055565b6060601080546109b490612de7565b6000546001600160a01b0316331461130d5760405162461bcd60e51b8152600401610a7890612c66565b6001600160a01b03166000908152600760205260409020805460ff19166001179055565b600080546001600160a01b0316331461135c5760405162461bcd60e51b8152600401610a7890612c66565b6001600160a01b0383166113bc5760405162461bcd60e51b815260206004820152602160248201527f42455032303a206275726e2066726f6d20746865207a65726f206164647265736044820152607360f81b6064820152608401610a78565b81600a54101561141a5760405162461bcd60e51b8152602060048201526024808201527f42455032303a20746f74616c20737570706c79206d757374206265203e3d20616044820152631b5bdd5d60e21b6064820152608401610a78565b600a546114279083611d2e565b600a556001600160a01b03831660009081526008602052604090205460ff16156114ac576001600160a01b0383166000908152600460205260409020548211156114835760405162461bcd60e51b8152600401610a7890612ce4565b6001600160a01b0383166000908152600460205260409020546114a69083611d2e565b50611509565b6001600160a01b0383166000908152600360205260409020548211156114e45760405162461bcd60e51b8152600401610a7890612ce4565b6001600160a01b0383166000908152600360205260409020546115079083611d2e565b505b6040518281526000906001600160a01b038516907fddf252ad1be2c89b69c2b068fc378daa952ba7f163c4a11628f55a4df523b3ef9060200161102c565b6000610a443384610b5b85604051806060016040528060258152602001612e6c602591393360009081526005602090815260408083206001600160a01b038d1684529091529020549190611b5c565b6001546001600160a01b031633146115fb5760405162461bcd60e51b815260206004820152602260248201527f596f7520646f6e742068617665207065726d697373696f6e20746f20756e6c6f604482015261636b60f01b6064820152608401610a78565b600254421161164c5760405162461bcd60e51b815260206004820181905260248201527f436f6e7472616374206973206c6f636b656420666f72206d6f72652074696d656044820152606401610a78565b600154600080546040516001600160a01b039384169390911691600080516020612e9183398151915291a3600154600080546001600160a01b0319166001600160a01b03909216919091179055565b6000610a44338484611d70565b6000546001600160a01b031633146116d25760405162461bcd60e51b8152600401610a7890612c66565b60008054600180546001600160a01b03199081166001600160a01b038416179091551690556117018142612d79565b600255600080546040516001600160a01b0390911690600080516020612e91833981519152908390a350565b6000546001600160a01b031633146117575760405162461bcd60e51b8152600401610a7890612c66565b6001600160a01b03166000908152600760205260409020805460ff19169055565b6000546001600160a01b031633146117a25760405162461bcd60e51b8152600401610a7890612c66565b601a80546001600160a01b0319166001600160a01b0392909216919091179055565b6000546001600160a01b031633146117ee5760405162461bcd60e51b8152600401610a7890612c66565b601980546001600160a01b0319166001600160a01b0392909216919091179055565b6000546001600160a01b0316331461183a5760405162461bcd60e51b8152600401610a7890612c66565b6001600160a01b03166000908152600660205260409020805460ff19169055565b6000546001600160a01b031633146118855760405162461bcd60e51b8152600401610a7890612c66565b6001600160a01b0381166118ea5760405162461bcd60e51b815260206004820152602660248201527f4f776e61626c653a206e6577206f776e657220697320746865207a65726f206160448201526564647265737360d01b6064820152608401610a78565b600080546040516001600160a01b0380851693921691600080516020612e9183398151915291a3600080546001600160a01b0319166001600160a01b0392909216919091179055565b6001600160a01b0383166119955760405162461bcd60e51b8152602060048201526024808201527f424e4232303a20617070726f76652066726f6d20746865207a65726f206164646044820152637265737360e01b6064820152608401610a78565b6001600160a01b0382166119f65760405162461bcd60e51b815260206004820152602260248201527f424e4232303a20617070726f766520746f20746865207a65726f206164647265604482015261737360f01b6064820152608401610a78565b6001600160a01b0383811660008181526005602090815260408083209487168084529482529182902085905590518481527f8c5be1e5ebec7d5bd14f71427d1e84f3dd0314c0f7b2291e5b200ac8c7c3b925910160405180910390a3505050565b600082611a6657506000610a48565b6000611a728385612db1565b905082611a7f8583612d91565b14610c365760405162461bcd60e51b815260206004820152602160248201527f536166654d6174683a206d756c7469706c69636174696f6e206f766572666c6f6044820152607760f81b6064820152608401610a78565b6000610c3683836040518060400160405280601a81526020017f536166654d6174683a206469766973696f6e206279207a65726f000000000000815250611e86565b601454158015611b285750601654155b15611b2f57565b601480546015556016805460175560009182905555565b601254611b4f57565b6012805460135560009055565b60008184841115611b805760405162461bcd60e51b8152600401610a789190612b86565b506000611b8d8486612dd0565b95945050505050565b6001600160a01b038316611bbc5760405162461bcd60e51b8152600401610a7890612bd9565b6001600160a01b038216611be25760405162461bcd60e51b8152600401610a7890612d36565b60008111611c025760405162461bcd60e51b8152600401610a7890612c9b565b6000546001600160a01b03848116911614801590611c2e57506000546001600160a01b03838116911614155b15611c5557601854811115611c555760405162461bcd60e51b8152600401610a7890612c1e565b6001600160a01b03831660009081526007602052604090205460019060ff1680611c9757506001600160a01b03831660009081526007602052604090205460ff165b15611ca0575060005b610b0684848484611eb4565b6000806000611cb9612025565b9092509050611cc88282611ad6565b9250505090565b600080611cdc8385612d79565b905083811015610c365760405162461bcd60e51b815260206004820152601b60248201527f536166654d6174683a206164646974696f6e206f766572666c6f7700000000006044820152606401610a78565b6000610c3683836040518060400160405280601e81526020017f536166654d6174683a207375627472616374696f6e206f766572666c6f770000815250611b5c565b6001600160a01b038316611d965760405162461bcd60e51b8152600401610a7890612bd9565b6001600160a01b038216611dbc5760405162461bcd60e51b8152600401610a7890612d36565b60008111611ddc5760405162461bcd60e51b8152600401610a7890612c9b565b6000546001600160a01b03848116911614801590611e0857506000546001600160a01b03838116911614155b15611e2f57601854811115611e2f5760405162461bcd60e51b8152600401610a7890612c1e565b6001600160a01b03831660009081526006602052604090205460019060ff1680611e7157506001600160a01b03831660009081526006602052604090205460ff165b15611e7a575060005b610b06848484846121df565b60008183611ea75760405162461bcd60e51b8152600401610a789190612b86565b506000611b8d8486612d91565b80611ec157611ec1611b46565b6001600160a01b03841660009081526008602052604090205460ff168015611f0257506001600160a01b03831660009081526008602052604090205460ff16155b15611f1757611f12848484612356565b612015565b6001600160a01b03841660009081526008602052604090205460ff16158015611f5857506001600160a01b03831660009081526008602052604090205460ff165b15611f6857611f1284848461249c565b6001600160a01b03841660009081526008602052604090205460ff16158015611faa57506001600160a01b03831660009081526008602052604090205460ff16155b15611fba57611f1284848461255b565b6001600160a01b03841660009081526008602052604090205460ff168015611ffa57506001600160a01b03831660009081526008602052604090205460ff165b1561200a57611f128484846125b5565b61201584848461255b565b80610b0657610b06601354601255565b600b54600a546000918291825b6009548110156121af5782600360006009848154811061206257634e487b7160e01b600052603260045260246000fd5b60009182526020808320909101546001600160a01b0316835282019290925260400190205411806120db57508160046000600984815481106120b457634e487b7160e01b600052603260045260246000fd5b60009182526020808320909101546001600160a01b03168352820192909252604001902054115b156120f157600b54600a54945094505050509091565b612145600360006009848154811061211957634e487b7160e01b600052603260045260246000fd5b60009182526020808320909101546001600160a01b031683528201929092526040019020548490611d2e565b925061219b600460006009848154811061216f57634e487b7160e01b600052603260045260246000fd5b60009182526020808320909101546001600160a01b031683528201929092526040019020548390611d2e565b9150806121a781612e22565b915050612032565b50600a54600b546121bf91611ad6565b8210156121d657600b54600a549350935050509091565b90939092509050565b806121ec576121ec611b18565b6001600160a01b03841660009081526008602052604090205460ff16801561222d57506001600160a01b03831660009081526008602052604090205460ff16155b156122425761223d84848461263e565b612340565b6001600160a01b03841660009081526008602052604090205460ff1615801561228357506001600160a01b03831660009081526008602052604090205460ff165b156122935761223d848484612652565b6001600160a01b03841660009081526008602052604090205460ff161580156122d557506001600160a01b03831660009081526008602052604090205460ff16155b156122e55761223d848484612666565b6001600160a01b03841660009081526008602052604090205460ff16801561232557506001600160a01b03831660009081526008602052604090205460ff165b156123355761223d84848461267a565b612340848484612666565b80610b0657610b06601554601455601754601655565b600080600080600080600061236a8861268e565b96509650965096509650965096506123b088600460008d6001600160a01b03166001600160a01b0316815260200190815260200160002054611d2e90919063ffffffff16565b6001600160a01b038b166000908152600460209081526040808320939093556003905220546123df9088611d2e565b6001600160a01b03808c1660009081526003602052604080822093909355908b168152205461240e9087611ccf565b6001600160a01b038a16600090815260036020526040902055612430826126e9565b612439816127a9565b6124438584612868565b886001600160a01b03168a6001600160a01b03167fddf252ad1be2c89b69c2b068fc378daa952ba7f163c4a11628f55a4df523b3ef8660405161248891815260200190565b60405180910390a350505050505050505050565b60008060008060008060006124b08861268e565b96509650965096509650965096506124f687600360008d6001600160a01b03166001600160a01b0316815260200190815260200160002054611d2e90919063ffffffff16565b6001600160a01b03808c16600090815260036020908152604080832094909455918c1681526004909152205461252c9085611ccf565b6001600160a01b038a1660009081526004602090815260408083209390935560039052205461240e9087611ccf565b600080600080600080600061256f8861268e565b96509650965096509650965096506123df87600360008d6001600160a01b03166001600160a01b0316815260200190815260200160002054611d2e90919063ffffffff16565b60008060008060008060006125c98861268e565b965096509650965096509650965061260f88600460008d6001600160a01b03166001600160a01b0316815260200190815260200160002054611d2e90919063ffffffff16565b6001600160a01b038b166000908152600460209081526040808320939093556003905220546124f69088611d2e565b600080600080600080600061236a8861288c565b60008060008060008060006124b08861288c565b600080600080600080600061256f8861288c565b60008060008060008060006125c98861288c565b60008060008060008060008060008060006126a88c6128a6565b935093509350935060008060006126c98f8787876126c4611cac565b6128fb565b919f509d509b509599509397509195509350505050919395979092949650565b60006126f3611cac565b905060006127018383611a57565b6019546001600160a01b03166000908152600360205260409020549091506127299082611ccf565b601980546001600160a01b03908116600090815260036020908152604080832095909555925490911681526008909152205460ff16156127a4576019546001600160a01b03166000908152600460205260409020546127889084611ccf565b6019546001600160a01b03166000908152600460205260409020555b505050565b60006127b3611cac565b905060006127c18383611a57565b601a546001600160a01b03166000908152600360205260409020549091506127e99082611ccf565b601a80546001600160a01b03908116600090815260036020908152604080832095909555925490911681526008909152205460ff16156127a457601a546001600160a01b03166000908152600460205260409020546128489084611ccf565b601a546001600160a01b0316600090815260046020526040902055505050565b600b546128759083611d2e565b600b55600c546128859082611ccf565b600c555050565b60008060008060008060008060008060006126a88c61295d565b60008060008060006128b786612984565b905060006128c487612984565b905060006128d188612995565b905060006128eb826128e585818d89611d2e565b90611d2e565b9993985091965094509092505050565b600080808061290a8986611a57565b905060006129188987611a57565b905060006129268988611a57565b905060006129348989611a57565b90506000612948826128e585818989611d2e565b949d949c50929a509298505050505050505050565b600080600080600061296e866129b1565b9050600061297b876129cd565b905060006128d1885b6000610a486064610a9c8484611a57565b6000610a486064610a9c60125485611a5790919063ffffffff16565b6000610a486064610a9c60145485611a5790919063ffffffff16565b6000610a486064610a9c60165485611a5790919063ffffffff16565b80358015158114610e9557600080fd5b600060208284031215612a0a578081fd5b8135610c3681612e53565b60008060408385031215612a27578081fd5b8235612a3281612e53565b91506020830135612a4281612e53565b809150509250929050565b600080600060608486031215612a61578081fd5b8335612a6c81612e53565b92506020840135612a7c81612e53565b929592945050506040919091013590565b60008060408385031215612a9f578182fd5b8235612aaa81612e53565b946020939093013593505050565b600060208284031215612ac9578081fd5b610c36826129e9565b600060208284031215612ae3578081fd5b5035919050565b60008060008060808587031215612aff578081fd5b843593506020850135612b1181612e53565b92506040850135612b2181612e53565b9150612b2f606086016129e9565b905092959194509250565b60008060408385031215612b4c578182fd5b82359150612b5c602084016129e9565b90509250929050565b60008060408385031215612b77578182fd5b50508035926020909101359150565b6000602080835283518082850152825b81811015612bb257858101830151858201604001528201612b96565b81811115612bc35783604083870101525b50601f01601f1916929092016040019392505050565b60208082526025908201527f424e4232303a207472616e736665722066726f6d20746865207a65726f206164604082015264647265737360d81b606082015260800190565b60208082526028908201527f5472616e7366657220616d6f756e74206578636565647320746865206d6178546040820152673c20b6b7bab73a1760c11b606082015260800190565b6020808252818101527f4f776e61626c653a2063616c6c6572206973206e6f7420746865206f776e6572604082015260600190565b60208082526029908201527f5472616e7366657220616d6f756e74206d7573742062652067726561746572206040820152687468616e207a65726f60b81b606082015260800190565b60208082526032908201527f42455032303a207468652062616c616e6365206f66206163636f756e74206d756040820152711cdd081899480f8f481bd988185b5bdd5b9d60721b606082015260800190565b60208082526023908201527f424e4232303a207472616e7366657220746f20746865207a65726f206164647260408201526265737360e81b606082015260800190565b60008219821115612d8c57612d8c612e3d565b500190565b600082612dac57634e487b7160e01b81526012600452602481fd5b500490565b6000816000190483118215151615612dcb57612dcb612e3d565b500290565b600082821015612de257612de2612e3d565b500390565b600181811c90821680612dfb57607f821691505b60208210811415612e1c57634e487b7160e01b600052602260045260246000fd5b50919050565b6000600019821415612e3657612e36612e3d565b5060010190565b634e487b7160e01b600052601160045260246000fd5b6001600160a01b0381168114612e6857600080fd5b5056fe424e4232303a2064656372656173656420616c6c6f77616e63652062656c6f77207a65726f8be0079c531659141344cd1fd0a4f28419497f9722a3daafe3b4186f6b6457e0424e4232303a207472616e7366657220616d6f756e74206578636565647320616c6c6f77616e6365a264697066735822122076b932b19e45815c4679258b5b1201cc5c7a63ac80051e059e0afa8c7386156964736f6c63430008040033",
  "immutableReferences": {},
  "source": "pragma solidity ^0.8.4;\r\n// SPDX-License-Identifier: Unlicensed\r\n\r\ninterface IERC20 {\r\n\r\n    function totalSupply() external view returns (uint256);\r\n    function balanceOf(address account) external view returns (uint256);\r\n    function transfer(address recipient, uint256 amount) external returns (bool);\r\n    function allowance(address owner, address spender) external view returns (uint256);\r\n    function approve(address spender, uint256 amount) external returns (bool);\r\n    function transferFrom(address sender, address recipient, uint256 amount) external returns (bool);\r\n    event Transfer(address indexed from, address indexed to, uint256 value);\r\n    event Approval(address indexed owner, address indexed spender, uint256 value);\r\n}\r\n\r\nlibrary SafeMath {\r\n\r\n    function add(uint256 a, uint256 b) internal pure returns (uint256) {\r\n        uint256 c = a + b;\r\n        require(c >= a, \"SafeMath: addition overflow\");\r\n        return c;\r\n    }\r\n\r\n    function sub(uint256 a, uint256 b) internal pure returns (uint256) {\r\n        return sub(a, b, \"SafeMath: subtraction overflow\");\r\n    }\r\n\r\n    function sub(uint256 a, uint256 b, string memory errorMessage) internal pure returns (uint256) {\r\n        require(b <= a, errorMessage);\r\n        uint256 c = a - b;\r\n        return c;\r\n    }\r\n\r\n    function mul(uint256 a, uint256 b) internal pure returns (uint256) {\r\n        if (a == 0) {\r\n            return 0;\r\n        }\r\n        uint256 c = a * b;\r\n        require(c / a == b, \"SafeMath: multiplication overflow\");\r\n        return c;\r\n    }\r\n\r\n    function div(uint256 a, uint256 b) internal pure returns (uint256) {\r\n        return div(a, b, \"SafeMath: division by zero\");\r\n    }\r\n\r\n    function div(uint256 a, uint256 b, string memory errorMessage) internal pure returns (uint256) {\r\n        require(b > 0, errorMessage);\r\n        uint256 c = a / b;\r\n        return c;\r\n    }\r\n\r\n    function mod(uint256 a, uint256 b) internal pure returns (uint256) {\r\n        return mod(a, b, \"SafeMath: modulo by zero\");\r\n    }\r\n\r\n    function mod(uint256 a, uint256 b, string memory errorMessage) internal pure returns (uint256) {\r\n        require(b != 0, errorMessage);\r\n        return a % b;\r\n    }\r\n}\r\n\r\nabstract contract Context {\r\n    function _msgSender() internal view virtual returns (address payable) {\r\n        return payable(msg.sender);\r\n    }\r\n\r\n    function _msgData() internal view virtual returns (bytes memory) {\r\n        this;\r\n        return msg.data;\r\n    }\r\n}\r\n\r\nlibrary Address {\r\n\r\n    function isContract(address account) internal view returns (bool) {\r\n        // According to EIP-1052, 0x0 is the value returned for not-yet created accounts\r\n        // and 0xc5d2460186f7233c927e7db2dcc703c0e500b653ca82273b7bfad8045d85a470 is returned\r\n        // for accounts without code, i.e. `keccak256('')`\r\n        // The account hash of 0xc5d2460186f7233c927e7db2dcc703c0e500b653ca82273b7bfad8045d85a470 is returned for non-contract addresses,\r\n        // so-called Externally Owned Account (EOA)\r\n        bytes32 codehash;\r\n        bytes32 accountHash = 0xc5d2460186f7233c927e7db2dcc703c0e500b653ca82273b7bfad8045d85a470;\r\n        assembly { codehash := extcodehash(account) }\r\n        return (codehash != accountHash && codehash != 0x0);\r\n    }\r\n\r\n    function sendValue(address payable recipient, uint256 amount) internal {\r\n        require(address(this).balance >= amount, \"Address: insufficient balance\");\r\n        (bool success, ) = recipient.call{ value: amount }(\"\");\r\n        require(success, \"Address: unable to send value, recipient may have reverted\");\r\n    }\r\n\r\n    function functionCall(address target, bytes memory data) internal returns (bytes memory) {\r\n        return functionCall(target, data, \"Address: low-level call failed\");\r\n    }\r\n\r\n    function functionCall(address target, bytes memory data, string memory errorMessage) internal returns (bytes memory) {\r\n        return _functionCallWithValue(target, data, 0, errorMessage);\r\n    }\r\n\r\n    function functionCallWithValue(address target, bytes memory data, uint256 value) internal returns (bytes memory) {\r\n        return functionCallWithValue(target, data, value, \"Address: low-level call with value failed\");\r\n    }\r\n\r\n    function functionCallWithValue(address target, bytes memory data, uint256 value, string memory errorMessage) internal returns (bytes memory) {\r\n        require(address(this).balance >= value, \"Address: insufficient balance for call\");\r\n        return _functionCallWithValue(target, data, value, errorMessage);\r\n    }\r\n\r\n    function _functionCallWithValue(address target, bytes memory data, uint256 weiValue, string memory errorMessage) private returns (bytes memory) {\r\n        require(isContract(target), \"Address: call to non-contract\");\r\n        (bool success, bytes memory returndata) = target.call{ value: weiValue }(data);\r\n        if (success) {\r\n            return returndata;\r\n        } else {\r\n            if (returndata.length > 0) {\r\n                assembly {\r\n                    let returndata_size := mload(returndata)\r\n                    revert(add(32, returndata), returndata_size)\r\n                }\r\n            } else {\r\n                revert(errorMessage);\r\n            }\r\n        }\r\n    }\r\n}\r\n\r\ncontract Ownable is Context {\r\n    address private _owner;\r\n    address private _previousOwner;\r\n    uint256 private _lockTime;\r\n\r\n    event OwnershipTransferred(address indexed previousOwner, address indexed newOwner);\r\n\r\n    constructor () {\r\n        address msgSender = _msgSender();\r\n        _owner = msgSender;\r\n        emit OwnershipTransferred(address(0), msgSender);\r\n    }\r\n\r\n    function owner() public view returns (address) {\r\n        return _owner;\r\n    }\r\n\r\n    modifier onlyOwner() {\r\n        require(_owner == _msgSender(), \"Ownable: caller is not the owner\");\r\n        _;\r\n    }\r\n\r\n    function renounceOwnership() public virtual onlyOwner {\r\n        emit OwnershipTransferred(_owner, address(0));\r\n        _owner = address(0);\r\n    }\r\n\r\n    function transferOwnership(address newOwner) public virtual onlyOwner {\r\n        require(newOwner != address(0), \"Ownable: new owner is the zero address\");\r\n        emit OwnershipTransferred(_owner, newOwner);\r\n        _owner = newOwner;\r\n    }\r\n\r\n    function geUnlockTime() public view returns (uint256) {\r\n        return _lockTime;\r\n    }\r\n\r\n    function lock(uint256 time) public virtual onlyOwner {\r\n        _previousOwner = _owner;\r\n        _owner = address(0);\r\n        _lockTime = block.timestamp + time;\r\n        emit OwnershipTransferred(_owner, address(0));\r\n    }\r\n\r\n    function unlock() public virtual {\r\n        require(_previousOwner == msg.sender, \"You dont have permission to unlock\");\r\n        require(block.timestamp > _lockTime , \"Contract is locked for more time\");\r\n        emit OwnershipTransferred(_owner, _previousOwner);\r\n        _owner = _previousOwner;\r\n    }\r\n}\r\n\r\ncontract MusicToken is Context, IERC20, Ownable {\r\n    using SafeMath for uint256;\r\n    using Address for address;\r\n\r\n    mapping (address => uint256) private _rOwned;\r\n    mapping (address => uint256) private _tOwned;\r\n    mapping (address => mapping (address => uint256)) private _allowances;\r\n\r\n    mapping (address => bool) private _isExcludedFromFee;\r\n    mapping (address => bool) private _isExcludedFromAntiDipFee;\r\n\r\n    mapping (address => bool) private _isExcluded; // esclusione dal reward\r\n    address[] private _excluded;\r\n\r\n    uint256 private constant MAX = ~uint256(0);\r\n    uint256 private _tTotal = 100000000 * 10**6 * 10**9; // TOTAL AMOUNT : 100.000.000.000.000 tokens\r\n    uint256 private _rTotal = (MAX - (MAX % _tTotal));\r\n    uint256 private _tFeeTotal;\r\n\r\n    uint256 private constant MONTH = 2628000; // 31536000/12 ;\r\n    uint256 private constant DAYS = 86400; // 31536000/365 ;\r\n    uint256 private _startTimestamp;\r\n    uint256 private _LockingPeriodDays = 30; // Locking time for locking liquidity in days\r\n\r\n    string private _name = \"Music Token\";\r\n    string private _symbol = \"MUSICTKN\";\r\n    uint8 private _decimals = 9;\r\n\r\n    bool public _autoMode = false; // allo start disattiva il calcolo della Anti Dip fee tramite Oracolo\r\n    uint256 public _antiDipFeeFromOracle = 0; // variable% taxation in BNB to avoid dips\r\n    uint256 private _previousAntiDipFeeFromOracle = _antiDipFeeFromOracle;\r\n\r\n    uint256 public _taxFee = 0; // 3% redistribuition\r\n    uint256 private _previousTaxFee = _taxFee;\r\n\r\n    uint256 public _projectFee = 0; // 3% project fee\r\n    uint256 private _previousProjectFee = _projectFee;\r\n\r\n    uint256 public _maxTxAmount = 100000000 * 10**6 * 10**9; // Max transferrable in one transaction (0,2% of _tTotal)\r\n\r\n    address public _projectAddress = 0x31e1149141534a4ae69283150eEF010826162E60; // Project address\r\n    address public _antiDipAddress = 0x9731ED56e6d13B5220F4DE929f41490b4939AD63; // Anti Dip address\r\n\r\n    constructor ()  {\r\n        _rOwned[_msgSender()] = _rTotal;\r\n        //exclude owner and this contract from fee\r\n        _isExcludedFromFee[owner()] = true;\r\n        _isExcludedFromFee[address(this)] = true;\r\n        _isExcludedFromFee[_projectAddress] = true;\r\n        _isExcludedFromFee[_antiDipAddress] = true;\r\n\r\n        //exclude owner and this contract from Anti Dip fee\r\n        _isExcludedFromAntiDipFee[owner()] = true;\r\n        _isExcludedFromAntiDipFee[address(this)] = true;\r\n        _isExcludedFromAntiDipFee[_projectAddress] = true;\r\n        _isExcludedFromAntiDipFee[_antiDipAddress] = true;\r\n\r\n        emit Transfer(address(0), _msgSender(), _tTotal);\r\n    }\r\n\r\n    function mint(address _account, uint256 _amount) public onlyOwner returns (bool) {\r\n        require(_account != address(0), \"BEP20: mint to the zero address\");\r\n        _tTotal = _tTotal.add(_amount);\r\n         if (_isExcluded[_account]) {\r\n           _tOwned[_account].add(_amount);\r\n         }\r\n         else\r\n         {\r\n            _rOwned[_account].add(_amount);\r\n         }\r\n        emit Transfer(address(0), _account, _amount);\r\n        return true;\r\n    }\r\n\r\n    function burn(address _account, uint256 _amount) public onlyOwner returns (bool) {\r\n        require(_account != address(0), \"BEP20: burn from the zero address\");\r\n        require(_tTotal >= _amount, \"BEP20: total supply must be >= amout\");\r\n        _tTotal = _tTotal.sub(_amount);\r\n         if (_isExcluded[_account]) {\r\n              require(_tOwned[_account] >= _amount, \"BEP20: the balance of account must be >= of amount\");\r\n             _tOwned[_account].sub(_amount);\r\n         }\r\n         else\r\n         {\r\n              require(_rOwned[_account] >= _amount, \"BEP20: the balance of account must be >= of amount\");\r\n             _rOwned[_account].sub(_amount);\r\n         }\r\n        emit Transfer(_account, address(0), _amount);\r\n        return true;\r\n    }\r\n\r\n    function name() public view returns (string memory) {\r\n        return _name;\r\n    }\r\n\r\n    function symbol() public view returns (string memory) {\r\n        return _symbol;\r\n    }\r\n\r\n    function decimals() public view returns (uint8) {\r\n        return _decimals;\r\n    }\r\n\r\n    function getAntiDipAddress() public view returns (address) {\r\n        return _antiDipAddress;\r\n    }\r\n\r\n    function getTaxFee() public view returns (uint256) {\r\n        return _taxFee;\r\n    }\r\n\r\n    function getProjectFee() public view returns (uint256) {\r\n        return _projectFee;\r\n    }\r\n\r\n    function getProjectAddress() public view returns (address) {\r\n        return _projectAddress;\r\n    }\r\n\r\n    function totalSupply() public view override returns (uint256) {\r\n        return _tTotal;\r\n    }\r\n\r\n    function maxTXAmountPerTransfer() public view returns (uint256) {\r\n        return _maxTxAmount;\r\n    }\r\n\r\n    function getAntiDipAutoFromOracle() public view returns (bool) {\r\n        return _autoMode;\r\n    }\r\n\r\n    function get_antiDipFeeFromOracle() public view returns (uint256) {\r\n        return _antiDipFeeFromOracle;\r\n    }\r\n\r\n    function set_antiDipFeeFromOracle(uint256 antiDipFeeFromOracle) public onlyOwner returns (uint256) {\r\n        _antiDipFeeFromOracle = antiDipFeeFromOracle;\r\n        return _antiDipFeeFromOracle;\r\n    }\r\n\r\n    function balanceOf(address account) public view override returns (uint256) {\r\n        if (_isExcluded[account]) return _tOwned[account];\r\n        return tokenFromReflection(_rOwned[account]);\r\n    }\r\n\r\n    function setPresaleParameters (\r\n      uint256 _MaxTXPerThousand,\r\n      address payable _newProjectAddress,\r\n      address payable _newAntiDipAddress,\r\n      bool _antiDipAutoFromOracle\r\n\r\n    ) public onlyOwner {\r\n        removeAllFee();\r\n        removeAllAntiDipFee();\r\n        setAntiDipAutoFromOracle(_antiDipAutoFromOracle); // settare a false\r\n        setMaxTxPerThousand(_MaxTXPerThousand);\r\n        changeProjectAddress(_newProjectAddress);\r\n        changeAntiDipAddress(_newAntiDipAddress);\r\n    }\r\n\r\n    function setPancakeSwapParameters (uint256 _MaxTXPerThousand, bool _antiDipAutoFromOracle) public onlyOwner {\r\n        restoreAllFee();\r\n        restoreAllAntiDipFee();\r\n        setAntiDipAutoFromOracle(_antiDipAutoFromOracle); // settare a true\r\n        setMaxTxPerThousand(_MaxTXPerThousand);\r\n    }\r\n\r\n    function transfer(address recipient, uint256 amount) public override returns (bool) {\r\n        _transfer(_msgSender(), recipient, amount);\r\n        return true;\r\n    }\r\n\r\n    function transferFrom(address sender, address recipient, uint256 amount) public override returns (bool) {\r\n        _approve(sender, _msgSender(), _allowances[sender][_msgSender()].sub(amount, \"BNB20: transfer amount exceeds allowance\"));\r\n        _transfer2(sender, recipient, amount);\r\n        return true;\r\n    }\r\n\r\n    function allowance(address owner, address spender) public view override returns (uint256) {\r\n        return _allowances[owner][spender];\r\n    }\r\n\r\n    function approve(address spender, uint256 amount) public override returns (bool) {\r\n        _approve(_msgSender(), spender, amount);\r\n        return true;\r\n    }\r\n\r\n    function increaseAllowance(address spender, uint256 addedValue) public virtual returns (bool) {\r\n        _approve(_msgSender(), spender, _allowances[_msgSender()][spender].add(addedValue));\r\n        return true;\r\n    }\r\n\r\n    function decreaseAllowance(address spender, uint256 subtractedValue) public virtual returns (bool) {\r\n        _approve(_msgSender(), spender, _allowances[_msgSender()][spender].sub(subtractedValue, \"BNB20: decreased allowance below zero\"));\r\n        return true;\r\n    }\r\n\r\n    function isExcludedFromReward(address account) public view returns (bool) {\r\n        return _isExcluded[account];\r\n    }\r\n\r\n    function totalFees() public view returns (uint256) {\r\n        return _tFeeTotal;\r\n    }\r\n\r\n    function tokenFromReflection(uint256 rAmount) public view returns(uint256) {\r\n        require(rAmount <= _rTotal, \"Amount must be less than total reflections\");\r\n        uint256 currentRate =  _getRate();\r\n        return rAmount.div(currentRate);\r\n    }\r\n\r\n    function excludeFromReward(address account) public onlyOwner() {\r\n        // require(account != 0x7a250d5630B4cF539739dF2C5dAcb4c659F2488D, 'We can not exclude Uniswap router.');\r\n        require(!_isExcluded[account], \"Account is already excluded\");\r\n        if(_rOwned[account] > 0) {\r\n            _tOwned[account] = tokenFromReflection(_rOwned[account]);\r\n        }\r\n        _isExcluded[account] = true;\r\n        _excluded.push(account);\r\n    }\r\n\r\n    function includeInReward(address account) external onlyOwner() {\r\n        require(_isExcluded[account], \"Account is already excluded\");\r\n        for (uint256 i = 0; i < _excluded.length; i++) {\r\n            if (_excluded[i] == account) {\r\n                _excluded[i] = _excluded[_excluded.length - 1];\r\n                _tOwned[account] = 0;\r\n                _isExcluded[account] = false;\r\n                _excluded.pop();\r\n                break;\r\n            }\r\n        }\r\n    }\r\n\r\n    function excludeFromFee(address account) public onlyOwner {\r\n        _isExcludedFromFee[account] = true;\r\n    }\r\n\r\n    function includeInFee(address account) public onlyOwner {\r\n        _isExcludedFromFee[account] = false;\r\n    }\r\n\r\n    function excludeFromAntiDipFee(address account) public onlyOwner {\r\n        _isExcludedFromAntiDipFee[account] = true;\r\n    }\r\n\r\n    function includeInAntiDipFee(address account) public onlyOwner {\r\n        _isExcludedFromAntiDipFee[account] = false;\r\n    }\r\n\r\n    function setFeePercent(uint256 taxFee, uint256 projectFee) external onlyOwner() {\r\n        _taxFee = taxFee;\r\n        _projectFee = projectFee;\r\n    }\r\n\r\n    function setAntiDipAutoFromOracle(bool autoMode) public onlyOwner {\r\n        _autoMode = autoMode;\r\n    }\r\n\r\n    function setMaxTxPerThousand(uint256 maxTxThousand) public onlyOwner { // expressed in per thousand and not in percent\r\n        _maxTxAmount = _tTotal.mul(maxTxThousand).div(10**3);\r\n    }\r\n\r\n    function changeProjectAddress(address payable _newaddress) public onlyOwner {\r\n    _projectAddress = _newaddress;\r\n    }\r\n\r\n    function changeAntiDipAddress(address payable _newaddress) public onlyOwner {\r\n    _antiDipAddress = _newaddress;\r\n    }\r\n\r\n    receive() external payable {}\r\n\r\n    function _reflectFee(uint256 rFee, uint256 tFee) private {\r\n        _rTotal = _rTotal.sub(rFee);\r\n        _tFeeTotal = _tFeeTotal.add(tFee);\r\n    }\r\n\r\n////////////////// funzioni di get per il transfer //////////////////////////\r\n\r\n\r\n    function _getValues(uint256 tAmount) private view returns (uint256, uint256, uint256, uint256, uint256, uint256, uint256) {\r\n        (uint256 tTransferAmount, uint256 tFee, uint256 tProject, uint256 tAntiDip) = _getTValues(tAmount);\r\n        (uint256 rAmount, uint256 rTransferAmount, uint256 rFee) = _getRValues(tAmount, tFee, tProject, tAntiDip, _getRate());\r\n        return (rAmount, rTransferAmount, rFee, tTransferAmount, tFee, tProject, tAntiDip);\r\n    }\r\n\r\n    function _getTValues(uint256 tAmount) private view returns (uint256, uint256, uint256, uint256) {\r\n        uint256 tFee = calculateTaxFee(tAmount);\r\n        uint256 tProject = calculateProjectFee(tAmount);\r\n        uint256 tAntiDip = calculateAntiDipFee(tAmount);\r\n        uint256 tTransferAmount = tAmount.sub(tFee).sub(tProject).sub(tAntiDip);\r\n        return (tTransferAmount, tFee, tProject, tAntiDip);\r\n    }\r\n\r\n    function _getRValues(uint256 tAmount, uint256 tFee, uint256 tProject, uint256 tAntiDip, uint256 currentRate) private pure returns (uint256, uint256, uint256) {\r\n        uint256 rAmount = tAmount.mul(currentRate);\r\n        uint256 rFee = tFee.mul(currentRate);\r\n        uint256 rProject = tProject.mul(currentRate);\r\n        uint256 rAntiDip = tAntiDip.mul(currentRate);\r\n        uint256 rTransferAmount = rAmount.sub(rFee).sub(rProject).sub(rAntiDip);\r\n        return (rAmount, rTransferAmount, rFee);\r\n    }\r\n\r\n////////////////// funzioni di get per il transferfrom //////////////////////////\r\n\r\n\r\n    function _getValues2(uint256 tAmount) private view returns (uint256, uint256, uint256, uint256, uint256, uint256, uint256) {\r\n        (uint256 tTransferAmount, uint256 tFee, uint256 tProject, uint256 tAntiDip) = _getTValues2(tAmount);\r\n        (uint256 rAmount, uint256 rTransferAmount, uint256 rFee) = _getRValues2(tAmount, tFee, tProject, tAntiDip, _getRate());\r\n        return (rAmount, rTransferAmount, rFee, tTransferAmount, tFee, tProject, tAntiDip);\r\n    }\r\n\r\n    function _getTValues2(uint256 tAmount) private view returns (uint256, uint256, uint256, uint256) {\r\n        uint256 tFee = calculateTaxFee2(tAmount);\r\n        uint256 tProject = calculateProjectFee2(tAmount);\r\n        uint256 tAntiDip = calculateAntiDipFee2(tAmount);\r\n        uint256 tTransferAmount = tAmount.sub(tFee).sub(tProject).sub(tAntiDip);\r\n        return (tTransferAmount, tFee, tProject, tAntiDip);\r\n    }\r\n\r\n    function _getRValues2(uint256 tAmount, uint256 tFee, uint256 tProject, uint256 tAntiDip, uint256 currentRate) private pure returns (uint256, uint256, uint256) {\r\n        uint256 rAmount = tAmount.mul(currentRate);\r\n        uint256 rFee = tFee.mul(currentRate);\r\n        uint256 rProject = tProject.mul(currentRate);\r\n        uint256 rAntiDip = tAntiDip.mul(currentRate);\r\n        uint256 rTransferAmount = rAmount.sub(rFee).sub(rProject).sub(rAntiDip);\r\n        return (rAmount, rTransferAmount, rFee);\r\n    }\r\n\r\n////////////////// funzioni di get comuni //////////////////////////\r\n\r\n    function _getRate() private view returns(uint256) {\r\n        (uint256 rSupply, uint256 tSupply) = _getCurrentSupply();\r\n        return rSupply.div(tSupply);\r\n    }\r\n\r\n    function _getCurrentSupply() private view returns(uint256, uint256) {\r\n        uint256 rSupply = _rTotal;\r\n        uint256 tSupply = _tTotal;\r\n        for (uint256 i = 0; i < _excluded.length; i++) {\r\n            if (_rOwned[_excluded[i]] > rSupply || _tOwned[_excluded[i]] > tSupply) return (_rTotal, _tTotal);\r\n            rSupply = rSupply.sub(_rOwned[_excluded[i]]);\r\n            tSupply = tSupply.sub(_tOwned[_excluded[i]]);\r\n        }\r\n        if (rSupply < _rTotal.div(_tTotal)) return (_rTotal, _tTotal);\r\n        return (rSupply, tSupply);\r\n    }\r\n\r\n    function _takeProject(uint256 tProject) private {\r\n        uint256 currentRate =  _getRate();\r\n        uint256 rProject = tProject.mul(currentRate);\r\n        _rOwned[_projectAddress] = _rOwned[_projectAddress].add(rProject);\r\n        if(_isExcluded[_projectAddress])\r\n            _tOwned[_projectAddress] = _tOwned[_projectAddress].add(tProject);\r\n    }\r\n\r\n    function _takeAntiDip(uint256 tAntiDip) private {\r\n        uint256 currentRate =  _getRate();\r\n        uint256 rAntiDip = tAntiDip.mul(currentRate);\r\n        _rOwned[_antiDipAddress] = _rOwned[_antiDipAddress].add(rAntiDip);\r\n        if(_isExcluded[_antiDipAddress])\r\n            _tOwned[_antiDipAddress] = _tOwned[_antiDipAddress].add(tAntiDip);\r\n    }\r\n\r\n////////// funzioni utilizzate per il calcolo delle fee dal transfer /////////////////////////\r\n\r\n    function calculateTaxFee(uint256 _amount) private view returns (uint256) {\r\n        return _amount.mul(_taxFee).div(10**2);\r\n    }\r\n\r\n    function calculateProjectFee(uint256 _amount) private view returns (uint256) {\r\n        return _amount.mul(_projectFee).div(10**2);\r\n    }\r\n\r\n    function calculateAntiDipFee(uint256 _amount) private pure returns (uint256) {\r\n        return _amount.mul(0).div(10**2);\r\n    }\r\n\r\n////////// funzioni utilizzate per il calcolo delle fee dal transferfrom /////////////////////////\r\n\r\n    function calculateTaxFee2(uint256 _amount) private pure returns (uint256) {\r\n        return _amount.mul(0).div(10**2);\r\n    }\r\n\r\n    function calculateProjectFee2(uint256 _amount) private pure returns (uint256) {\r\n        return _amount.mul(0).div(10**2);\r\n    }\r\n\r\n    function calculateAntiDipFee2(uint256 _amount) private view returns (uint256) {\r\n        return _amount.mul(_antiDipFeeFromOracle).div(10**2);\r\n    }\r\n\r\n\r\n    function removeAllFee() private {\r\n        if(_taxFee == 0 && _projectFee == 0) return;\r\n\r\n        _previousTaxFee = _taxFee;\r\n        _previousProjectFee = _projectFee;\r\n\r\n        _taxFee = 0;\r\n        _projectFee = 0;\r\n    }\r\n\r\n    function removeAllAntiDipFee() private {\r\n        if(_antiDipFeeFromOracle == 0) return;\r\n        _previousAntiDipFeeFromOracle = _antiDipFeeFromOracle;\r\n        _antiDipFeeFromOracle = 0;\r\n    }\r\n\r\n    function restoreAllFee() private {\r\n        _taxFee = _previousTaxFee;\r\n        _projectFee = _previousProjectFee;\r\n    }\r\n\r\n    function restoreAllAntiDipFee() private {\r\n        _antiDipFeeFromOracle = _previousAntiDipFeeFromOracle;\r\n    }\r\n\r\n    function isExcludedFromFee(address account) public view returns(bool) {\r\n        return _isExcludedFromFee[account];\r\n    }\r\n\r\n    function isExcludedFromAntiDipFee(address account) public view returns(bool) {\r\n        return _isExcludedFromAntiDipFee[account];\r\n    }\r\n\r\n    function _approve(address owner, address spender, uint256 amount) private {\r\n        require(owner != address(0), \"BNB20: approve from the zero address\");\r\n        require(spender != address(0), \"BNB20: approve to the zero address\");\r\n\r\n        _allowances[owner][spender] = amount;\r\n        emit Approval(owner, spender, amount);\r\n    }\r\n\r\n///////////// funzione di transfer per il transferfrom /////////////////////\r\n\r\n    function _transfer2(\r\n        address from,\r\n        address to,\r\n        uint256 amount\r\n    ) private {\r\n        require(from != address(0), \"BNB20: transfer from the zero address\");\r\n        require(to != address(0), \"BNB20: transfer to the zero address\");\r\n        require(amount > 0, \"Transfer amount must be greater than zero\");\r\n        if(from != owner() && to != owner())\r\n            require(amount <= _maxTxAmount, \"Transfer amount exceeds the maxTxAmount.\");\r\n\r\n        //indicates if fee should be deducted from transferfrom\r\n        bool takeAntiDipFee = true;\r\n\r\n        if(_isExcludedFromAntiDipFee[from] || _isExcludedFromAntiDipFee[to]){\r\n            takeAntiDipFee = false;\r\n        }\r\n        //transfer amount, it will take antidip fee\r\n        _tokenTransfer2(from,to,amount,takeAntiDipFee);\r\n    }\r\n\r\n    //this method is responsible for taking all fee, if takeFee is true\r\n    function _tokenTransfer2(address sender, address recipient, uint256 amount, bool takeAntiDipFee) private {\r\n        if(!takeAntiDipFee)\r\n            removeAllAntiDipFee();\r\n\r\n        if (_isExcluded[sender] && !_isExcluded[recipient]) {\r\n            _transferFromExcluded2(sender, recipient, amount);\r\n        } else if (!_isExcluded[sender] && _isExcluded[recipient]) {\r\n            _transferToExcluded2(sender, recipient, amount);\r\n        } else if (!_isExcluded[sender] && !_isExcluded[recipient]) {\r\n            _transferStandard2(sender, recipient, amount);\r\n        } else if (_isExcluded[sender] && _isExcluded[recipient]) {\r\n            _transferBothExcluded2(sender, recipient, amount);\r\n        } else {\r\n            _transferStandard2(sender, recipient, amount);\r\n        }\r\n\r\n        if(!takeAntiDipFee)\r\n            restoreAllAntiDipFee();\r\n    }\r\n\r\n    function _transferStandard2(address sender, address recipient, uint256 tAmount) private {\r\n        (uint256 rAmount, uint256 rTransferAmount, uint256 rFee, uint256 tTransferAmount, uint256 tFee, uint256 tProject, uint256 tAntiDip) = _getValues2(tAmount);\r\n        _rOwned[sender] = _rOwned[sender].sub(rAmount);\r\n        _rOwned[recipient] = _rOwned[recipient].add(rTransferAmount);\r\n        _takeProject(tProject);\r\n        _takeAntiDip(tAntiDip);\r\n        _reflectFee(rFee, tFee);\r\n        emit Transfer(sender, recipient, tTransferAmount);\r\n    }\r\n\r\n    function _transferToExcluded2(address sender, address recipient, uint256 tAmount) private {\r\n        (uint256 rAmount, uint256 rTransferAmount, uint256 rFee, uint256 tTransferAmount, uint256 tFee, uint256 tProject, uint256 tAntiDip) = _getValues2(tAmount);\r\n        _rOwned[sender] = _rOwned[sender].sub(rAmount);\r\n        _tOwned[recipient] = _tOwned[recipient].add(tTransferAmount);\r\n        _rOwned[recipient] = _rOwned[recipient].add(rTransferAmount);\r\n        _takeProject(tProject);\r\n        _takeAntiDip(tAntiDip);\r\n        _reflectFee(rFee, tFee);\r\n        emit Transfer(sender, recipient, tTransferAmount);\r\n    }\r\n\r\n    function _transferFromExcluded2(address sender, address recipient, uint256 tAmount) private {\r\n        (uint256 rAmount, uint256 rTransferAmount, uint256 rFee, uint256 tTransferAmount, uint256 tFee, uint256 tProject, uint256 tAntiDip) = _getValues2(tAmount);\r\n        _tOwned[sender] = _tOwned[sender].sub(tAmount);\r\n        _rOwned[sender] = _rOwned[sender].sub(rAmount);\r\n        _rOwned[recipient] = _rOwned[recipient].add(rTransferAmount);\r\n        _takeProject(tProject);\r\n        _takeAntiDip(tAntiDip);\r\n        _reflectFee(rFee, tFee);\r\n        emit Transfer(sender, recipient, tTransferAmount);\r\n    }\r\n\r\n    function _transferBothExcluded2(address sender, address recipient, uint256 tAmount) private {\r\n        (uint256 rAmount, uint256 rTransferAmount, uint256 rFee, uint256 tTransferAmount, uint256 tFee, uint256 tProject, uint256 tAntiDip) = _getValues2(tAmount);\r\n        _tOwned[sender] = _tOwned[sender].sub(tAmount);\r\n        _rOwned[sender] = _rOwned[sender].sub(rAmount);\r\n        _tOwned[recipient] = _tOwned[recipient].add(tTransferAmount);\r\n        _rOwned[recipient] = _rOwned[recipient].add(rTransferAmount);\r\n        _takeProject(tProject);\r\n        _takeAntiDip(tAntiDip);\r\n        _reflectFee(rFee, tFee);\r\n        emit Transfer(sender, recipient, tTransferAmount);\r\n    }\r\n\r\n    ///////////// funzione di transfer per il transfer /////////////////////\r\n\r\n        function _transfer(\r\n            address from,\r\n            address to,\r\n            uint256 amount\r\n        ) private {\r\n            require(from != address(0), \"BNB20: transfer from the zero address\");\r\n            require(to != address(0), \"BNB20: transfer to the zero address\");\r\n            require(amount > 0, \"Transfer amount must be greater than zero\");\r\n            if(from != owner() && to != owner())\r\n                require(amount <= _maxTxAmount, \"Transfer amount exceeds the maxTxAmount.\");\r\n\r\n            //indicates if fee should be deducted from transfer\r\n            bool takeFee = true;\r\n\r\n            if(_isExcludedFromFee[from] || _isExcludedFromFee[to]){\r\n                takeFee = false;\r\n            }\r\n            //transfer amount, it will take redistribuition fee, antidip fee, project fee\r\n            _tokenTransfer(from,to,amount,takeFee);\r\n        }\r\n\r\n        //this method is responsible for taking all fee, if takeFee is true\r\n        function _tokenTransfer(address sender, address recipient, uint256 amount, bool takeFee) private {\r\n            if(!takeFee)\r\n                removeAllFee();\r\n\r\n            if (_isExcluded[sender] && !_isExcluded[recipient]) {\r\n                _transferFromExcluded(sender, recipient, amount);\r\n            } else if (!_isExcluded[sender] && _isExcluded[recipient]) {\r\n                _transferToExcluded(sender, recipient, amount);\r\n            } else if (!_isExcluded[sender] && !_isExcluded[recipient]) {\r\n                _transferStandard(sender, recipient, amount);\r\n            } else if (_isExcluded[sender] && _isExcluded[recipient]) {\r\n                _transferBothExcluded(sender, recipient, amount);\r\n            } else {\r\n                _transferStandard(sender, recipient, amount);\r\n            }\r\n\r\n            if(!takeFee)\r\n                restoreAllFee();\r\n        }\r\n\r\n        function _transferStandard(address sender, address recipient, uint256 tAmount) private {\r\n            (uint256 rAmount, uint256 rTransferAmount, uint256 rFee, uint256 tTransferAmount, uint256 tFee, uint256 tProject, uint256 tAntiDip) = _getValues(tAmount);\r\n            _rOwned[sender] = _rOwned[sender].sub(rAmount);\r\n            _rOwned[recipient] = _rOwned[recipient].add(rTransferAmount);\r\n            _takeProject(tProject);\r\n            _takeAntiDip(tAntiDip);\r\n            _reflectFee(rFee, tFee);\r\n            emit Transfer(sender, recipient, tTransferAmount);\r\n        }\r\n\r\n        function _transferToExcluded(address sender, address recipient, uint256 tAmount) private {\r\n            (uint256 rAmount, uint256 rTransferAmount, uint256 rFee, uint256 tTransferAmount, uint256 tFee, uint256 tProject, uint256 tAntiDip) = _getValues(tAmount);\r\n            _rOwned[sender] = _rOwned[sender].sub(rAmount);\r\n            _tOwned[recipient] = _tOwned[recipient].add(tTransferAmount);\r\n            _rOwned[recipient] = _rOwned[recipient].add(rTransferAmount);\r\n            _takeProject(tProject);\r\n            _takeAntiDip(tAntiDip);\r\n            _reflectFee(rFee, tFee);\r\n            emit Transfer(sender, recipient, tTransferAmount);\r\n        }\r\n\r\n        function _transferFromExcluded(address sender, address recipient, uint256 tAmount) private {\r\n            (uint256 rAmount, uint256 rTransferAmount, uint256 rFee, uint256 tTransferAmount, uint256 tFee, uint256 tProject, uint256 tAntiDip) = _getValues(tAmount);\r\n            _tOwned[sender] = _tOwned[sender].sub(tAmount);\r\n            _rOwned[sender] = _rOwned[sender].sub(rAmount);\r\n            _rOwned[recipient] = _rOwned[recipient].add(rTransferAmount);\r\n            _takeProject(tProject);\r\n            _takeAntiDip(tAntiDip);\r\n            _reflectFee(rFee, tFee);\r\n            emit Transfer(sender, recipient, tTransferAmount);\r\n        }\r\n\r\n        function _transferBothExcluded(address sender, address recipient, uint256 tAmount) private {\r\n            (uint256 rAmount, uint256 rTransferAmount, uint256 rFee, uint256 tTransferAmount, uint256 tFee, uint256 tProject, uint256 tAntiDip) = _getValues(tAmount);\r\n            _tOwned[sender] = _tOwned[sender].sub(tAmount);\r\n            _rOwned[sender] = _rOwned[sender].sub(rAmount);\r\n            _tOwned[recipient] = _tOwned[recipient].add(tTransferAmount);\r\n            _rOwned[recipient] = _rOwned[recipient].add(rTransferAmount);\r\n            _takeProject(tProject);\r\n            _takeAntiDip(tAntiDip);\r\n            _reflectFee(rFee, tFee);\r\n            emit Transfer(sender, recipient, tTransferAmount);\r\n        }\r\n\r\n    function _beforeTokenTransfer(address from, address to, uint256 amount) internal virtual { }\r\n}\r\n",
  "sourcePath": "C:/Dati/Progetti/BlockChain/Projects/TokenNew/contracts/MusicToken.sol",
  "compiler": {
    "name": "solc",
    "version": "0.8.4+commit.c7e474f2.Emscripten.clang"
  },
  "schemaVersion": "3.3.4",
  "updatedAt": "2021-07-27T15:51:11.268Z",
  "networkType": "ethereum",
  "devdoc": {
    "kind": "dev",
    "methods": {},
    "version": 1
  },
  "userdoc": {
    "kind": "user",
    "methods": {},
    "version": 1
  }
}