{
  "contractName": "Ownable",
  "abi": [
    {
      "inputs": [],
      "stateMutability": "nonpayable",
      "type": "constructor"
    },
    {
      "anonymous": false,
      "inputs": [
        {
          "indexed": true,
          "internalType": "address",
          "name": "previousOwner",
          "type": "address"
        },
        {
          "indexed": true,
          "internalType": "address",
          "name": "newOwner",
          "type": "address"
        }
      ],
      "name": "OwnershipTransferred",
      "type": "event"
    },
    {
      "inputs": [],
      "name": "owner",
      "outputs": [
        {
          "internalType": "address",
          "name": "",
          "type": "address"
        }
      ],
      "stateMutability": "view",
      "type": "function"
    },
    {
      "inputs": [],
      "name": "renounceOwnership",
      "outputs": [],
      "stateMutability": "nonpayable",
      "type": "function"
    },
    {
      "inputs": [
        {
          "internalType": "address",
          "name": "newOwner",
          "type": "address"
        }
      ],
      "name": "transferOwnership",
      "outputs": [],
      "stateMutability": "nonpayable",
      "type": "function"
    },
    {
      "inputs": [],
      "name": "geUnlockTime",
      "outputs": [
        {
          "internalType": "uint256",
          "name": "",
          "type": "uint256"
        }
      ],
      "stateMutability": "view",
      "type": "function"
    },
    {
      "inputs": [
        {
          "internalType": "uint256",
          "name": "time",
          "type": "uint256"
        }
      ],
      "name": "lock",
      "outputs": [],
      "stateMutability": "nonpayable",
      "type": "function"
    },
    {
      "inputs": [],
      "name": "unlock",
      "outputs": [],
      "stateMutability": "nonpayable",
      "type": "function"
    }
  ],
  "bytecode": "0x608060405234801561001057600080fd5b50600080546001600160a01b031916339081178255604051909182917f8be0079c531659141344cd1fd0a4f28419497f9722a3daafe3b4186f6b6457e0908290a350610492806100616000396000f3fe608060405234801561001057600080fd5b50600436106100625760003560e01c8063715018a6146100675780638da5cb5b14610071578063a69df4b514610091578063b6c5232414610099578063dd467064146100aa578063f2fde38b146100bd575b600080fd5b61006f6100d0565b005b6000546040516001600160a01b0390911681526020015b60405180910390f35b61006f61013b565b600254604051908152602001610088565b61006f6100b83660046103cb565b610240565b61006f6100cb36600461039d565b6102c5565b6000546001600160a01b031633146101035760405162461bcd60e51b81526004016100fa906103e3565b60405180910390fd5b600080546040516001600160a01b039091169060008051602061043d833981519152908390a3600080546001600160a01b0319169055565b6001546001600160a01b031633146101a05760405162461bcd60e51b815260206004820152602260248201527f596f7520646f6e742068617665207065726d697373696f6e20746f20756e6c6f604482015261636b60f01b60648201526084016100fa565b60025442116101f15760405162461bcd60e51b815260206004820181905260248201527f436f6e7472616374206973206c6f636b656420666f72206d6f72652074696d6560448201526064016100fa565b600154600080546040516001600160a01b03938416939091169160008051602061043d83398151915291a3600154600080546001600160a01b0319166001600160a01b03909216919091179055565b6000546001600160a01b0316331461026a5760405162461bcd60e51b81526004016100fa906103e3565b60008054600180546001600160a01b03199081166001600160a01b038416179091551690556102998142610418565b600255600080546040516001600160a01b039091169060008051602061043d833981519152908390a350565b6000546001600160a01b031633146102ef5760405162461bcd60e51b81526004016100fa906103e3565b6001600160a01b0381166103545760405162461bcd60e51b815260206004820152602660248201527f4f776e61626c653a206e6577206f776e657220697320746865207a65726f206160448201526564647265737360d01b60648201526084016100fa565b600080546040516001600160a01b038085169392169160008051602061043d83398151915291a3600080546001600160a01b0319166001600160a01b0392909216919091179055565b6000602082840312156103ae578081fd5b81356001600160a01b03811681146103c4578182fd5b9392505050565b6000602082840312156103dc578081fd5b5035919050565b6020808252818101527f4f776e61626c653a2063616c6c6572206973206e6f7420746865206f776e6572604082015260600190565b6000821982111561043757634e487b7160e01b81526011600452602481fd5b50019056fe8be0079c531659141344cd1fd0a4f28419497f9722a3daafe3b4186f6b6457e0a2646970667358221220e238ae8d5b6d9c0a4f019dca9a8cf0ba849a99f5d2373981f8d8b2086c350eb064736f6c63430008040033",
  "immutableReferences": {},
  "source": "pragma solidity ^0.8.4;\r\n// SPDX-License-Identifier: Unlicensed\r\n\r\ninterface IERC20 {\r\n\r\n    function totalSupply() external view returns (uint256);\r\n    function balanceOf(address account) external view returns (uint256);\r\n    function transfer(address recipient, uint256 amount) external returns (bool);\r\n    function allowance(address owner, address spender) external view returns (uint256);\r\n    function approve(address spender, uint256 amount) external returns (bool);\r\n    function transferFrom(address sender, address recipient, uint256 amount) external returns (bool);\r\n    event Transfer(address indexed from, address indexed to, uint256 value);\r\n    event Approval(address indexed owner, address indexed spender, uint256 value);\r\n}\r\n\r\nlibrary SafeMath {\r\n\r\n    function add(uint256 a, uint256 b) internal pure returns (uint256) {\r\n        uint256 c = a + b;\r\n        require(c >= a, \"SafeMath: addition overflow\");\r\n        return c;\r\n    }\r\n\r\n    function sub(uint256 a, uint256 b) internal pure returns (uint256) {\r\n        return sub(a, b, \"SafeMath: subtraction overflow\");\r\n    }\r\n\r\n    function sub(uint256 a, uint256 b, string memory errorMessage) internal pure returns (uint256) {\r\n        require(b <= a, errorMessage);\r\n        uint256 c = a - b;\r\n        return c;\r\n    }\r\n\r\n    function mul(uint256 a, uint256 b) internal pure returns (uint256) {\r\n        if (a == 0) {\r\n            return 0;\r\n        }\r\n        uint256 c = a * b;\r\n        require(c / a == b, \"SafeMath: multiplication overflow\");\r\n        return c;\r\n    }\r\n\r\n    function div(uint256 a, uint256 b) internal pure returns (uint256) {\r\n        return div(a, b, \"SafeMath: division by zero\");\r\n    }\r\n\r\n    function div(uint256 a, uint256 b, string memory errorMessage) internal pure returns (uint256) {\r\n        require(b > 0, errorMessage);\r\n        uint256 c = a / b;\r\n        return c;\r\n    }\r\n\r\n    function mod(uint256 a, uint256 b) internal pure returns (uint256) {\r\n        return mod(a, b, \"SafeMath: modulo by zero\");\r\n    }\r\n\r\n    function mod(uint256 a, uint256 b, string memory errorMessage) internal pure returns (uint256) {\r\n        require(b != 0, errorMessage);\r\n        return a % b;\r\n    }\r\n}\r\n\r\nabstract contract Context {\r\n    function _msgSender() internal view virtual returns (address payable) {\r\n        return payable(msg.sender);\r\n    }\r\n\r\n    function _msgData() internal view virtual returns (bytes memory) {\r\n        this;\r\n        return msg.data;\r\n    }\r\n}\r\n\r\nlibrary Address {\r\n\r\n    function isContract(address account) internal view returns (bool) {\r\n        // According to EIP-1052, 0x0 is the value returned for not-yet created accounts\r\n        // and 0xc5d2460186f7233c927e7db2dcc703c0e500b653ca82273b7bfad8045d85a470 is returned\r\n        // for accounts without code, i.e. `keccak256('')`\r\n        // The account hash of 0xc5d2460186f7233c927e7db2dcc703c0e500b653ca82273b7bfad8045d85a470 is returned for non-contract addresses,\r\n        // so-called Externally Owned Account (EOA)\r\n        bytes32 codehash;\r\n        bytes32 accountHash = 0xc5d2460186f7233c927e7db2dcc703c0e500b653ca82273b7bfad8045d85a470;\r\n        assembly { codehash := extcodehash(account) }\r\n        return (codehash != accountHash && codehash != 0x0);\r\n    }\r\n\r\n    function sendValue(address payable recipient, uint256 amount) internal {\r\n        require(address(this).balance >= amount, \"Address: insufficient balance\");\r\n        (bool success, ) = recipient.call{ value: amount }(\"\");\r\n        require(success, \"Address: unable to send value, recipient may have reverted\");\r\n    }\r\n\r\n    function functionCall(address target, bytes memory data) internal returns (bytes memory) {\r\n        return functionCall(target, data, \"Address: low-level call failed\");\r\n    }\r\n\r\n    function functionCall(address target, bytes memory data, string memory errorMessage) internal returns (bytes memory) {\r\n        return _functionCallWithValue(target, data, 0, errorMessage);\r\n    }\r\n\r\n    function functionCallWithValue(address target, bytes memory data, uint256 value) internal returns (bytes memory) {\r\n        return functionCallWithValue(target, data, value, \"Address: low-level call with value failed\");\r\n    }\r\n\r\n    function functionCallWithValue(address target, bytes memory data, uint256 value, string memory errorMessage) internal returns (bytes memory) {\r\n        require(address(this).balance >= value, \"Address: insufficient balance for call\");\r\n        return _functionCallWithValue(target, data, value, errorMessage);\r\n    }\r\n\r\n    function _functionCallWithValue(address target, bytes memory data, uint256 weiValue, string memory errorMessage) private returns (bytes memory) {\r\n        require(isContract(target), \"Address: call to non-contract\");\r\n        (bool success, bytes memory returndata) = target.call{ value: weiValue }(data);\r\n        if (success) {\r\n            return returndata;\r\n        } else {\r\n            if (returndata.length > 0) {\r\n                assembly {\r\n                    let returndata_size := mload(returndata)\r\n                    revert(add(32, returndata), returndata_size)\r\n                }\r\n            } else {\r\n                revert(errorMessage);\r\n            }\r\n        }\r\n    }\r\n}\r\n\r\ncontract Ownable is Context {\r\n    address private _owner;\r\n    address private _previousOwner;\r\n    uint256 private _lockTime;\r\n\r\n    event OwnershipTransferred(address indexed previousOwner, address indexed newOwner);\r\n\r\n    constructor () {\r\n        address msgSender = _msgSender();\r\n        _owner = msgSender;\r\n        emit OwnershipTransferred(address(0), msgSender);\r\n    }\r\n\r\n    function owner() public view returns (address) {\r\n        return _owner;\r\n    }\r\n\r\n    modifier onlyOwner() {\r\n        require(_owner == _msgSender(), \"Ownable: caller is not the owner\");\r\n        _;\r\n    }\r\n\r\n    function renounceOwnership() public virtual onlyOwner {\r\n        emit OwnershipTransferred(_owner, address(0));\r\n        _owner = address(0);\r\n    }\r\n\r\n    function transferOwnership(address newOwner) public virtual onlyOwner {\r\n        require(newOwner != address(0), \"Ownable: new owner is the zero address\");\r\n        emit OwnershipTransferred(_owner, newOwner);\r\n        _owner = newOwner;\r\n    }\r\n\r\n    function geUnlockTime() public view returns (uint256) {\r\n        return _lockTime;\r\n    }\r\n\r\n    function lock(uint256 time) public virtual onlyOwner {\r\n        _previousOwner = _owner;\r\n        _owner = address(0);\r\n        _lockTime = block.timestamp + time;\r\n        emit OwnershipTransferred(_owner, address(0));\r\n    }\r\n\r\n    function unlock() public virtual {\r\n        require(_previousOwner == msg.sender, \"You dont have permission to unlock\");\r\n        require(block.timestamp > _lockTime , \"Contract is locked for more time\");\r\n        emit OwnershipTransferred(_owner, _previousOwner);\r\n        _owner = _previousOwner;\r\n    }\r\n}\r\n\r\ncontract TokenNew is Context, IERC20, Ownable {\r\n    using SafeMath for uint256;\r\n    using Address for address;\r\n\r\n    mapping (address => uint256) private _rOwned;\r\n    mapping (address => uint256) private _tOwned;\r\n    mapping (address => mapping (address => uint256)) private _allowances;\r\n\r\n    mapping (address => bool) private _isExcludedFromFee;\r\n    mapping (address => bool) private _isExcludedFromAntiDipFee;\r\n\r\n    mapping (address => bool) private _isExcluded; // esclusione dal reward\r\n    address[] private _excluded;\r\n\r\n    uint256 private constant MAX = ~uint256(0);\r\n    uint256 private _tTotal = 100000000 * 10**6 * 10**9; // TOTAL AMOUNT : 100.000.000.000.000 tokens\r\n    uint256 private _rTotal = (MAX - (MAX % _tTotal));\r\n    uint256 private _tFeeTotal;\r\n\r\n    uint256 private constant MONTH = 2628000; // 31536000/12 ;\r\n    uint256 private constant DAYS = 86400; // 31536000/365 ;\r\n    uint256 private _startTimestamp;\r\n    uint256 private _LockingPeriodDays = 30; // Locking time for locking liquidity in days\r\n\r\n    string private _name = \"TokenNew\";\r\n    string private _symbol = \"TKNN\";\r\n    uint8 private _decimals = 9;\r\n\r\n    bool public _autoMode = false; // allo start disattiva il calcolo della Anti Dip fee tramite Oracolo\r\n    uint256 public _antiDipFee = 0; // variable% taxation in BNB to avoid dips\r\n    uint256 private _previousantiDipFee = _antiDipFee;\r\n    uint256 private _antiDipFeeFromOracle; // percentuale di Anti Dip fee proveniente dall'algoritmo di Oracle\r\n\r\n\r\n    uint256 public _taxFee = 0; // 3% redistribuition\r\n    uint256 private _previousTaxFee = _taxFee;\r\n\r\n    uint256 public _liquidityFee = 0; // 3% liquidity fee\r\n    uint256 private _previousLiquidityFee = _liquidityFee;\r\n\r\n    uint256 public _charityFee = 0; // 5% charity fee\r\n    uint256 private _previousCharityFee = _charityFee;\r\n\r\n    uint256 public _maxTxAmount = 100000000 * 10**6 * 10**9; // Max transferrable in one transaction (1% of _tTotal after initial burning of 50% of total tokens)\r\n\r\n    address public _charityAddress = 0x3136F1Ec8a29b1cF5b5d73f2A1b51658007d8BB3; // Charity address o Singer address\r\n    address public _liquidityAddress = 0x31e1149141534a4ae69283150eEF010826162E60; // Liquidity address\r\n    address public _antiDipAddress = 0x9731ED56e6d13B5220F4DE929f41490b4939AD63; // Anti Dip address\r\n\r\n    constructor ()  {\r\n        _rOwned[_msgSender()] = _rTotal;\r\n        //exclude owner and this contract from fee\r\n        _isExcludedFromFee[owner()] = true;\r\n        _isExcludedFromFee[address(this)] = true;\r\n        _isExcludedFromFee[_charityAddress] = true;\r\n        _isExcludedFromFee[_liquidityAddress] = true;\r\n        _isExcludedFromFee[_antiDipAddress] = true;\r\n\r\n        //exclude owner and this contract from Anti Dip fee\r\n        _isExcludedFromAntiDipFee[owner()] = true;\r\n        _isExcludedFromAntiDipFee[address(this)] = true;\r\n        _isExcludedFromAntiDipFee[_charityAddress] = true;\r\n        _isExcludedFromAntiDipFee[_liquidityAddress] = true;\r\n        _isExcludedFromAntiDipFee[_antiDipAddress] = true;\r\n\r\n        emit Transfer(address(0), _msgSender(), _tTotal);\r\n    }\r\n\r\n    function mint(address _account, uint256 _amount) public onlyOwner returns (bool) {\r\n        require(_account != address(0), \"BEP20: mint to the zero address\");\r\n        _tTotal = _tTotal.add(_amount);\r\n         if (_isExcluded[_account]) {\r\n           _tOwned[_account].add(_amount);\r\n         }\r\n         else\r\n         {\r\n            _rOwned[_account].add(_amount);\r\n         }\r\n        emit Transfer(address(0), _account, _amount);\r\n        return true;\r\n    }\r\n\r\n    function burn(address _account, uint256 _amount) public onlyOwner returns (bool) {\r\n        require(_account != address(0), \"BEP20: burn from the zero address\");\r\n        require(_tTotal >= _amount, \"BEP20: total supply must be >= amout\");\r\n        _tTotal = _tTotal.sub(_amount);\r\n         if (_isExcluded[_account]) {\r\n              require(_tOwned[_account] >= _amount, \"BEP20: the balance of account must be >= of amount\");\r\n             _tOwned[_account].sub(_amount);\r\n         }\r\n         else\r\n         {\r\n              require(_rOwned[_account] >= _amount, \"BEP20: the balance of account must be >= of amount\");\r\n             _rOwned[_account].sub(_amount);\r\n         }\r\n        emit Transfer(_account, address(0), _amount);\r\n        return true;\r\n    }\r\n\r\n    function name() public view returns (string memory) {\r\n        return _name;\r\n    }\r\n\r\n    function symbol() public view returns (string memory) {\r\n        return _symbol;\r\n    }\r\n\r\n    function decimals() public view returns (uint8) {\r\n        return _decimals;\r\n    }\r\n\r\n    function getAntiDipFee() public view returns (uint256) {\r\n        return _antiDipFee;\r\n    }\r\n\r\n    function getAntiDipAddress() public view returns (address) {\r\n        return _antiDipAddress;\r\n    }\r\n\r\n    function getTaxFee() public view returns (uint256) {\r\n        return _taxFee;\r\n    }\r\n\r\n    function getLiquidityFee() public view returns (uint256) {\r\n        return _liquidityFee;\r\n    }\r\n\r\n    function getLiquidityAddress() public view returns (address) {\r\n        return _liquidityAddress;\r\n    }\r\n\r\n    function getCharityFee() public view returns (uint256) {\r\n        return _charityFee;\r\n    }\r\n\r\n    function getCharityAddress() public view returns (address) {\r\n        return _charityAddress;\r\n    }\r\n\r\n    function totalSupply() public view override returns (uint256) {\r\n        return _tTotal;\r\n    }\r\n\r\n    function maxTXAmountPerTransfer() public view returns (uint256) {\r\n        return _maxTxAmount;\r\n    }\r\n\r\n    function getAntiDipAutoFromOracle() public view returns (bool) {\r\n        return _autoMode;\r\n    }\r\n\r\n    function get_antiDipFeeFromOracle() public view returns (uint256) {\r\n        return _antiDipFeeFromOracle;\r\n    }\r\n\r\n    function set_antiDipFeeFromOracle(uint256 antiDipFeeFromOracle) public onlyOwner returns (uint256) {\r\n        _antiDipFeeFromOracle = antiDipFeeFromOracle;\r\n        return _antiDipFeeFromOracle;\r\n    }\r\n\r\n    function balanceOf(address account) public view override returns (uint256) {\r\n        if (_isExcluded[account]) return _tOwned[account];\r\n        return tokenFromReflection(_rOwned[account]);\r\n    }\r\n\r\n    function setPresaleParameters (\r\n      uint256 _MaxTXPerThousand,\r\n      address payable _newCharityAddress,\r\n      address payable _newLiquidityAddress,\r\n      address payable _newAntiDipAddress,\r\n      bool _antiDipAutoFromOracle\r\n\r\n    ) public onlyOwner {\r\n        removeAllFee();\r\n        removeAllAntiDipFee();\r\n        setAntiDipAutoFromOracle(_antiDipAutoFromOracle); // settare a false\r\n        setMaxTxPerThousand(_MaxTXPerThousand);\r\n        changeCharityAddress(_newCharityAddress);\r\n        changeLiquidityAddress(_newLiquidityAddress);\r\n        changeAntiDipAddress(_newAntiDipAddress);\r\n    }\r\n\r\n    function setPancakeSwapParameters (uint256 _MaxTXPerThousand, bool _antiDipAutoFromOracle) public onlyOwner {\r\n        restoreAllFee();\r\n        restoreAllAntiDipFee();\r\n        setAntiDipAutoFromOracle(_antiDipAutoFromOracle); // settare a true\r\n        setMaxTxPerThousand(_MaxTXPerThousand);\r\n    }\r\n\r\n    function transfer(address recipient, uint256 amount) public override returns (bool) {\r\n        _transfer(_msgSender(), recipient, amount);\r\n        return true;\r\n    }\r\n\r\n    function transferFrom(address sender, address recipient, uint256 amount) public override returns (bool) {\r\n        _approve(sender, _msgSender(), _allowances[sender][_msgSender()].sub(amount, \"ERC20: transfer amount exceeds allowance\"));\r\n        _transfer(sender, recipient, amount);\r\n        return true;\r\n    }\r\n\r\n    function allowance(address owner, address spender) public view override returns (uint256) {\r\n        return _allowances[owner][spender];\r\n    }\r\n\r\n    function approve(address spender, uint256 amount) public override returns (bool) {\r\n        _approve(_msgSender(), spender, amount);\r\n        return true;\r\n    }\r\n\r\n    function increaseAllowance(address spender, uint256 addedValue) public virtual returns (bool) {\r\n        _approve(_msgSender(), spender, _allowances[_msgSender()][spender].add(addedValue));\r\n        return true;\r\n    }\r\n\r\n    function decreaseAllowance(address spender, uint256 subtractedValue) public virtual returns (bool) {\r\n        _approve(_msgSender(), spender, _allowances[_msgSender()][spender].sub(subtractedValue, \"ERC20: decreased allowance below zero\"));\r\n        return true;\r\n    }\r\n\r\n    function isExcludedFromReward(address account) public view returns (bool) {\r\n        return _isExcluded[account];\r\n    }\r\n\r\n    function totalFees() public view returns (uint256) {\r\n        return _tFeeTotal;\r\n    }\r\n\r\n    function tokenFromReflection(uint256 rAmount) public view returns(uint256) {\r\n        require(rAmount <= _rTotal, \"Amount must be less than total reflections\");\r\n        uint256 currentRate =  _getRate();\r\n        return rAmount.div(currentRate);\r\n    }\r\n\r\n    function excludeFromReward(address account) public onlyOwner() {\r\n        // require(account != 0x7a250d5630B4cF539739dF2C5dAcb4c659F2488D, 'We can not exclude Uniswap router.');\r\n        require(!_isExcluded[account], \"Account is already excluded\");\r\n        if(_rOwned[account] > 0) {\r\n            _tOwned[account] = tokenFromReflection(_rOwned[account]);\r\n        }\r\n        _isExcluded[account] = true;\r\n        _excluded.push(account);\r\n    }\r\n\r\n    function includeInReward(address account) external onlyOwner() {\r\n        require(_isExcluded[account], \"Account is already excluded\");\r\n        for (uint256 i = 0; i < _excluded.length; i++) {\r\n            if (_excluded[i] == account) {\r\n                _excluded[i] = _excluded[_excluded.length - 1];\r\n                _tOwned[account] = 0;\r\n                _isExcluded[account] = false;\r\n                _excluded.pop();\r\n                break;\r\n            }\r\n        }\r\n    }\r\n\r\n    function excludeFromFee(address account) public onlyOwner {\r\n        _isExcludedFromFee[account] = true;\r\n    }\r\n\r\n    function includeInFee(address account) public onlyOwner {\r\n        _isExcludedFromFee[account] = false;\r\n    }\r\n\r\n    function excludeFromAntiDipFee(address account) public onlyOwner {\r\n        _isExcludedFromAntiDipFee[account] = true;\r\n    }\r\n\r\n    function includeInAntiDipFee(address account) public onlyOwner {\r\n        _isExcludedFromAntiDipFee[account] = false;\r\n    }\r\n\r\n    function setFeePercent(uint256 taxFee, uint256 liquidityFee, uint256 charityFee) external onlyOwner() {\r\n        _taxFee = taxFee;\r\n        _liquidityFee = liquidityFee;\r\n        _charityFee = charityFee;\r\n    }\r\n\r\n    function setAntiDipFeePercent(uint256 antiDipFee) external onlyOwner {\r\n        _antiDipFee = antiDipFee;\r\n    }\r\n\r\n    function setAntiDipAutoFromOracle(bool autoMode) public onlyOwner {\r\n        _autoMode = autoMode;\r\n    }\r\n\r\n    function setMaxTxPerThousand(uint256 maxTxThousand) public onlyOwner { // expressed in per thousand and not in percent\r\n        _maxTxAmount = _tTotal.mul(maxTxThousand).div(\r\n            10**3\r\n        );\r\n    }\r\n\r\n    function changeCharityAddress(address payable _newaddress) public onlyOwner {\r\n    _charityAddress = _newaddress;\r\n    }\r\n\r\n    function changeLiquidityAddress(address payable _newaddress) public onlyOwner {\r\n    _liquidityAddress = _newaddress;\r\n    }\r\n\r\n    function changeAntiDipAddress(address payable _newaddress) public onlyOwner {\r\n    _antiDipAddress = _newaddress;\r\n    }\r\n\r\n    receive() external payable {}\r\n\r\n    function _reflectFee(uint256 rFee, uint256 tFee) private {\r\n        _rTotal = _rTotal.sub(rFee);\r\n        _tFeeTotal = _tFeeTotal.add(tFee);\r\n    }\r\n\r\n////////////////// funzioni di get per il transfer //////////////////////////\r\n\r\n\r\n    function _getValues(uint256 tAmount) private view returns (uint256, uint256, uint256, uint256, uint256, uint256, uint256) {\r\n        (uint256 tTransferAmount, uint256 tFee, uint256 tLiquidity, uint256 tCharity) = _getTValues(tAmount);\r\n        (uint256 rAmount, uint256 rTransferAmount, uint256 rFee) = _getRValues(tAmount, tFee, tLiquidity, tCharity, _getRate());\r\n        return (rAmount, rTransferAmount, rFee, tTransferAmount, tFee, tLiquidity, tCharity);\r\n    }\r\n\r\n    function _getTValues(uint256 tAmount) private view returns (uint256, uint256, uint256, uint256) {\r\n        uint256 tFee = calculateTaxFee(tAmount);\r\n        uint256 tLiquidity = calculateLiquidityFee(tAmount);\r\n        uint256 tCharity = calculateCharityFee(tAmount);\r\n        uint256 tTransferAmount = tAmount.sub(tFee).sub(tLiquidity).sub(tCharity);\r\n        return (tTransferAmount, tFee, tLiquidity, tCharity);\r\n    }\r\n\r\n    function _getRValues(uint256 tAmount, uint256 tFee, uint256 tLiquidity, uint256 tCharity, uint256 currentRate) private pure returns (uint256, uint256, uint256) {\r\n        uint256 rAmount = tAmount.mul(currentRate);\r\n        uint256 rFee = tFee.mul(currentRate);\r\n        uint256 rLiquidity = tLiquidity.mul(currentRate);\r\n        uint256 rCharity = tCharity.mul(currentRate);\r\n        uint256 rTransferAmount = rAmount.sub(rFee).sub(rLiquidity).sub(rCharity);\r\n        return (rAmount, rTransferAmount, rFee);\r\n    }\r\n\r\n////////////////// funzioni di get per il transferfrom //////////////////////////\r\n\r\n    function _getValuesSell(uint256 tAmount) private view returns (uint256, uint256, uint256, uint256, uint256, uint256) {\r\n        (uint256 tTransferAmount, uint256 tFee, uint256 tAntiDip) = _getTValuesSell(tAmount);\r\n        (uint256 rAmount, uint256 rTransferAmount, uint256 rFee) = _getRValuesSell(tAmount, tFee, tAntiDip, _getRate());\r\n        return (rAmount, rTransferAmount, rFee, tTransferAmount, tFee, tAntiDip);\r\n    }\r\n\r\n    function _getTValuesSell(uint256 tAmount) private view returns (uint256, uint256, uint256) {\r\n        uint256 tFee = calculateTaxFee(tAmount);\r\n        uint256 tAntiDip = calculateAntiDipFee(tAmount);\r\n        uint256 tTransferAmount = tAmount.sub(tFee).sub(tAntiDip);\r\n        return (tTransferAmount, tFee, tAntiDip);\r\n    }\r\n\r\n    function _getRValuesSell(uint256 tAmount, uint256 tFee, uint256 tAntiDip, uint256 currentRate) private pure returns (uint256, uint256, uint256) {\r\n        uint256 rAmount = tAmount.mul(currentRate);\r\n        uint256 rFee = tFee.mul(currentRate);\r\n        uint256 rAntiDip = tAntiDip.mul(currentRate);\r\n        uint256 rTransferAmount = rAmount.sub(rFee).sub(rAntiDip);\r\n        return (rAmount, rTransferAmount, rFee);\r\n    }\r\n\r\n////////////////// funzioni di get comuni //////////////////////////\r\n\r\n    function _getRate() private view returns(uint256) {\r\n        (uint256 rSupply, uint256 tSupply) = _getCurrentSupply();\r\n        return rSupply.div(tSupply);\r\n    }\r\n\r\n    function _getCurrentSupply() private view returns(uint256, uint256) {\r\n        uint256 rSupply = _rTotal;\r\n        uint256 tSupply = _tTotal;\r\n        for (uint256 i = 0; i < _excluded.length; i++) {\r\n            if (_rOwned[_excluded[i]] > rSupply || _tOwned[_excluded[i]] > tSupply) return (_rTotal, _tTotal);\r\n            rSupply = rSupply.sub(_rOwned[_excluded[i]]);\r\n            tSupply = tSupply.sub(_tOwned[_excluded[i]]);\r\n        }\r\n        if (rSupply < _rTotal.div(_tTotal)) return (_rTotal, _tTotal);\r\n        return (rSupply, tSupply);\r\n    }\r\n\r\n    function _takeLiquidity(uint256 tLiquidity) private {\r\n        uint256 currentRate =  _getRate();\r\n        uint256 rLiquidity = tLiquidity.mul(currentRate);\r\n        _rOwned[address(this)] = _rOwned[address(this)].add(rLiquidity);\r\n        if(_isExcluded[address(this)])\r\n            _tOwned[address(this)] = _tOwned[address(this)].add(tLiquidity);\r\n    }\r\n\r\n    function _takeCharity(uint256 tCharity) private {\r\n        uint256 currentRate =  _getRate();\r\n        uint256 rCharity = tCharity.mul(currentRate);\r\n        _rOwned[_charityAddress] = _rOwned[_charityAddress].add(rCharity);\r\n        if(_isExcluded[_charityAddress])\r\n            _tOwned[_charityAddress] = _tOwned[_charityAddress].add(tCharity);\r\n    }\r\n\r\n    function _takeAntiDip(uint256 tAntiDip) private {\r\n        uint256 currentRate =  _getRate();\r\n        uint256 rAntiDip = tAntiDip.mul(currentRate);\r\n        _rOwned[_antiDipAddress] = _rOwned[_antiDipAddress].add(rAntiDip);\r\n        if(_isExcluded[_antiDipAddress])\r\n            _tOwned[_antiDipAddress] = _tOwned[_antiDipAddress].add(tAntiDip);\r\n    }\r\n\r\n    function calculateTaxFee(uint256 _amount) private view returns (uint256) {\r\n        return _amount.mul(_taxFee).div(10**2);\r\n    }\r\n\r\n    function calculateLiquidityFee(uint256 _amount) private view returns (uint256) {\r\n        return _amount.mul(_liquidityFee).div(10**2);\r\n    }\r\n\r\n    function calculateCharityFee(uint256 _amount) private view returns (uint256) {\r\n        return _amount.mul(_charityFee).div(10**2);\r\n    }\r\n\r\n//////////////  questa funzione deve avere il feedback dall'oracolo di Uniswap per definire la fee in funzione dell'allontanamento dal prezzo massimo ////////////////////////\r\n   function calculateAntiDipFee(uint256 _amount) public onlyOwner view returns (uint256) {\r\n       uint256 antiDipResultFee;\r\n       if (!_autoMode) {\r\n           antiDipResultFee = _amount.mul(_antiDipFee).div(10**2);\r\n       }\r\n       else {\r\n           antiDipResultFee = _amount.mul(_antiDipFeeFromOracle).div(10**2);\r\n       }\r\n       return antiDipResultFee;\r\n   }\r\n\r\n    function removeAllFee() private {\r\n        if(_taxFee == 0 && _liquidityFee == 0 && _charityFee == 0) return;\r\n\r\n        _previousTaxFee = _taxFee;\r\n        _previousLiquidityFee = _liquidityFee;\r\n        _previousCharityFee = _charityFee;\r\n\r\n        _taxFee = 0;\r\n        _liquidityFee = 0;\r\n        _charityFee = 0;\r\n    }\r\n\r\n    function removeAllAntiDipFee() private {\r\n        if(_antiDipFee == 0) return;\r\n        _previousantiDipFee = _antiDipFee;\r\n        _antiDipFee = 0;\r\n    }\r\n\r\n    function restoreAllFee() private {\r\n        _taxFee = _previousTaxFee;\r\n        _liquidityFee = _previousLiquidityFee;\r\n        _charityFee = _previousCharityFee;\r\n    }\r\n\r\n    function restoreAllAntiDipFee() private {\r\n        _antiDipFee = _previousantiDipFee;\r\n    }\r\n\r\n    function isExcludedFromFee(address account) public view returns(bool) {\r\n        return _isExcludedFromFee[account];\r\n    }\r\n\r\n    function isExcludedFromAntiDipFee(address account) public view returns(bool) {\r\n        return _isExcludedFromAntiDipFee[account];\r\n    }\r\n\r\n    function _approve(address owner, address spender, uint256 amount) private {\r\n        require(owner != address(0), \"ERC20: approve from the zero address\");\r\n        require(spender != address(0), \"ERC20: approve to the zero address\");\r\n\r\n        _allowances[owner][spender] = amount;\r\n        emit Approval(owner, spender, amount);\r\n    }\r\n\r\n///////////// funzione di transfer per il transfer /////////////////////\r\n\r\n    function _transfer(\r\n        address from,\r\n        address to,\r\n        uint256 amount\r\n    ) private {\r\n        require(from != address(0), \"ERC20: transfer from the zero address\");\r\n        require(to != address(0), \"ERC20: transfer to the zero address\");\r\n        require(amount > 0, \"Transfer amount must be greater than zero\");\r\n        if(from != owner() && to != owner())\r\n            require(amount <= _maxTxAmount, \"Transfer amount exceeds the maxTxAmount.\");\r\n\r\n        //indicates if fee should be deducted from transfer\r\n        bool takeFee = true;\r\n\r\n        if(_isExcludedFromFee[from] || _isExcludedFromFee[to]){\r\n            takeFee = false;\r\n        }\r\n        //transfer amount, it will take redistribuition fee, charity fee, liquidity fee\r\n        _tokenTransfer(from,to,amount,takeFee);\r\n    }\r\n\r\n    //this method is responsible for taking all fee, if takeFee is true\r\n    function _tokenTransfer(address sender, address recipient, uint256 amount, bool takeFee) private {\r\n        if(!takeFee)\r\n            removeAllFee();\r\n\r\n        if (_isExcluded[sender] && !_isExcluded[recipient]) {\r\n            _transferFromExcluded(sender, recipient, amount);\r\n        } else if (!_isExcluded[sender] && _isExcluded[recipient]) {\r\n            _transferToExcluded(sender, recipient, amount);\r\n        } else if (!_isExcluded[sender] && !_isExcluded[recipient]) {\r\n            _transferStandard(sender, recipient, amount);\r\n        } else if (_isExcluded[sender] && _isExcluded[recipient]) {\r\n            _transferBothExcluded(sender, recipient, amount);\r\n        } else {\r\n            _transferStandard(sender, recipient, amount);\r\n        }\r\n\r\n        if(!takeFee)\r\n            restoreAllFee();\r\n    }\r\n\r\n    function _transferStandard(address sender, address recipient, uint256 tAmount) private {\r\n        (uint256 rAmount, uint256 rTransferAmount, uint256 rFee, uint256 tTransferAmount, uint256 tFee, uint256 tLiquidity, uint256 tCharity) = _getValues(tAmount);\r\n        _rOwned[sender] = _rOwned[sender].sub(rAmount);\r\n        _rOwned[recipient] = _rOwned[recipient].add(rTransferAmount);\r\n        _takeLiquidity(tLiquidity);\r\n        _takeCharity(tCharity);\r\n        _reflectFee(rFee, tFee);\r\n        emit Transfer(sender, recipient, tTransferAmount);\r\n    }\r\n\r\n    function _transferToExcluded(address sender, address recipient, uint256 tAmount) private {\r\n        (uint256 rAmount, uint256 rTransferAmount, uint256 rFee, uint256 tTransferAmount, uint256 tFee, uint256 tLiquidity, uint256 tCharity) = _getValues(tAmount);\r\n        _rOwned[sender] = _rOwned[sender].sub(rAmount);\r\n        _tOwned[recipient] = _tOwned[recipient].add(tTransferAmount);\r\n        _rOwned[recipient] = _rOwned[recipient].add(rTransferAmount);\r\n        _takeLiquidity(tLiquidity);\r\n        _takeCharity(tCharity);\r\n        _reflectFee(rFee, tFee);\r\n        emit Transfer(sender, recipient, tTransferAmount);\r\n    }\r\n\r\n    function _transferFromExcluded(address sender, address recipient, uint256 tAmount) private {\r\n        (uint256 rAmount, uint256 rTransferAmount, uint256 rFee, uint256 tTransferAmount, uint256 tFee, uint256 tLiquidity, uint256 tCharity) = _getValues(tAmount);\r\n        _tOwned[sender] = _tOwned[sender].sub(tAmount);\r\n        _rOwned[sender] = _rOwned[sender].sub(rAmount);\r\n        _rOwned[recipient] = _rOwned[recipient].add(rTransferAmount);\r\n        _takeLiquidity(tLiquidity);\r\n        _takeCharity(tCharity);\r\n        _reflectFee(rFee, tFee);\r\n        emit Transfer(sender, recipient, tTransferAmount);\r\n    }\r\n\r\n    function _transferBothExcluded(address sender, address recipient, uint256 tAmount) private {\r\n        (uint256 rAmount, uint256 rTransferAmount, uint256 rFee, uint256 tTransferAmount, uint256 tFee, uint256 tLiquidity, uint256 tCharity) = _getValues(tAmount);\r\n        _tOwned[sender] = _tOwned[sender].sub(tAmount);\r\n        _rOwned[sender] = _rOwned[sender].sub(rAmount);\r\n        _tOwned[recipient] = _tOwned[recipient].add(tTransferAmount);\r\n        _rOwned[recipient] = _rOwned[recipient].add(rTransferAmount);\r\n        _takeLiquidity(tLiquidity);\r\n        _takeCharity(tCharity);\r\n        _reflectFee(rFee, tFee);\r\n        emit Transfer(sender, recipient, tTransferAmount);\r\n    }\r\n\r\n///////////// funzione di transfer per il transferfrom /////////////////////\r\n\r\n    function _transferSell(\r\n        address from,\r\n        address to,\r\n        uint256 amount\r\n    ) private {\r\n        require(from != address(0), \"ERC20: transfer from the zero address\");\r\n        require(to != address(0), \"ERC20: transfer to the zero address\");\r\n        require(amount > 0, \"Transfer amount must be greater than zero\");\r\n        if(from != owner() && to != owner())\r\n            require(amount <= _maxTxAmount, \"Transfer amount exceeds the maxTxAmount.\");\r\n\r\n        //indicates if fee should be deducted from transfer\r\n        bool takeAntiDipFee = true;\r\n\r\n        if(_isExcludedFromAntiDipFee[from] || _isExcludedFromAntiDipFee[to]){\r\n            takeAntiDipFee = false;\r\n        }\r\n        //transfer amount, it will take AntiDip fee\r\n        _tokenTransferSell(from,to,amount,takeAntiDipFee);\r\n    }\r\n\r\n    //this method is responsible for taking all fee, if takeFee is true\r\n    function _tokenTransferSell(address sender, address recipient, uint256 amount, bool takeAntiDipFee) private {\r\n        if(!takeAntiDipFee)\r\n            removeAllAntiDipFee();\r\n\r\n        if (_isExcluded[sender] && !_isExcluded[recipient]) {\r\n            _transferSellFromExcluded(sender, recipient, amount);\r\n        } else if (!_isExcluded[sender] && _isExcluded[recipient]) {\r\n            _transferSellToExcluded(sender, recipient, amount);\r\n        } else if (!_isExcluded[sender] && !_isExcluded[recipient]) {\r\n            _transferSellStandard(sender, recipient, amount);\r\n        } else if (_isExcluded[sender] && _isExcluded[recipient]) {\r\n            _transferSellBothExcluded(sender, recipient, amount);\r\n        } else {\r\n            _transferSellStandard(sender, recipient, amount);\r\n        }\r\n\r\n        if(!takeAntiDipFee)\r\n            restoreAllAntiDipFee();\r\n    }\r\n\r\n    function _transferSellStandard(address sender, address recipient, uint256 tAmount) private {\r\n        (uint256 rAmount, uint256 rTransferAmount, uint256 rFee, uint256 tTransferAmount, uint256 tFee, uint256 tAntiDip) = _getValuesSell(tAmount);\r\n        _rOwned[sender] = _rOwned[sender].sub(rAmount);\r\n        _rOwned[recipient] = _rOwned[recipient].add(rTransferAmount);\r\n        _takeAntiDip(tAntiDip);\r\n        _reflectFee(rFee, tFee);\r\n        emit Transfer(sender, recipient, tTransferAmount);\r\n    }\r\n\r\n    function _transferSellToExcluded(address sender, address recipient, uint256 tAmount) private {\r\n        (uint256 rAmount, uint256 rTransferAmount, uint256 rFee, uint256 tTransferAmount, uint256 tFee, uint256 tAntiDip) = _getValuesSell(tAmount);\r\n        _rOwned[sender] = _rOwned[sender].sub(rAmount);\r\n        _tOwned[recipient] = _tOwned[recipient].add(tTransferAmount);\r\n        _rOwned[recipient] = _rOwned[recipient].add(rTransferAmount);\r\n        _takeAntiDip(tAntiDip);\r\n        _reflectFee(rFee, tFee);\r\n        emit Transfer(sender, recipient, tTransferAmount);\r\n    }\r\n\r\n    function _transferSellFromExcluded(address sender, address recipient, uint256 tAmount) private {\r\n        (uint256 rAmount, uint256 rTransferAmount, uint256 rFee, uint256 tTransferAmount, uint256 tFee, uint256 tAntiDip) = _getValuesSell(tAmount);\r\n        _tOwned[sender] = _tOwned[sender].sub(tAmount);\r\n        _rOwned[sender] = _rOwned[sender].sub(rAmount);\r\n        _rOwned[recipient] = _rOwned[recipient].add(rTransferAmount);\r\n        _takeAntiDip(tAntiDip);\r\n        _reflectFee(rFee, tFee);\r\n        emit Transfer(sender, recipient, tTransferAmount);\r\n    }\r\n\r\n    function _transferSellBothExcluded(address sender, address recipient, uint256 tAmount) private {\r\n        (uint256 rAmount, uint256 rTransferAmount, uint256 rFee, uint256 tTransferAmount, uint256 tFee, uint256 tAntiDip) = _getValuesSell(tAmount);\r\n        _tOwned[sender] = _tOwned[sender].sub(tAmount);\r\n        _rOwned[sender] = _rOwned[sender].sub(rAmount);\r\n        _tOwned[recipient] = _tOwned[recipient].add(tTransferAmount);\r\n        _rOwned[recipient] = _rOwned[recipient].add(rTransferAmount);\r\n        _takeAntiDip(tAntiDip);\r\n        _reflectFee(rFee, tFee);\r\n        emit Transfer(sender, recipient, tTransferAmount);\r\n    }\r\n\r\n\r\n\r\n\r\n}\r\n",
  "sourcePath": "C:/Dati/Progetti/BlockChain/Projects/TokenNew/contracts/TokenNew.sol",
  "compiler": {
    "name": "solc",
    "version": "0.8.4+commit.c7e474f2.Emscripten.clang"
  },
  "schemaVersion": "3.3.4",
  "updatedAt": "2021-07-20T18:39:34.145Z",
  "devdoc": {
    "kind": "dev",
    "methods": {},
    "version": 1
  },
  "userdoc": {
    "kind": "user",
    "methods": {},
    "version": 1
  }
}