{
  "contractName": "TokenNew",
  "abi": [
    {
      "inputs": [],
      "stateMutability": "nonpayable",
      "type": "constructor"
    },
    {
      "anonymous": false,
      "inputs": [
        {
          "indexed": true,
          "internalType": "address",
          "name": "owner",
          "type": "address"
        },
        {
          "indexed": true,
          "internalType": "address",
          "name": "spender",
          "type": "address"
        },
        {
          "indexed": false,
          "internalType": "uint256",
          "name": "value",
          "type": "uint256"
        }
      ],
      "name": "Approval",
      "type": "event"
    },
    {
      "anonymous": false,
      "inputs": [
        {
          "indexed": true,
          "internalType": "address",
          "name": "previousOwner",
          "type": "address"
        },
        {
          "indexed": true,
          "internalType": "address",
          "name": "newOwner",
          "type": "address"
        }
      ],
      "name": "OwnershipTransferred",
      "type": "event"
    },
    {
      "anonymous": false,
      "inputs": [
        {
          "indexed": true,
          "internalType": "address",
          "name": "from",
          "type": "address"
        },
        {
          "indexed": true,
          "internalType": "address",
          "name": "to",
          "type": "address"
        },
        {
          "indexed": false,
          "internalType": "uint256",
          "name": "value",
          "type": "uint256"
        }
      ],
      "name": "Transfer",
      "type": "event"
    },
    {
      "inputs": [],
      "name": "_antiDipAddress",
      "outputs": [
        {
          "internalType": "address",
          "name": "",
          "type": "address"
        }
      ],
      "stateMutability": "view",
      "type": "function",
      "constant": true
    },
    {
      "inputs": [],
      "name": "_antiDipFee",
      "outputs": [
        {
          "internalType": "uint256",
          "name": "",
          "type": "uint256"
        }
      ],
      "stateMutability": "view",
      "type": "function",
      "constant": true
    },
    {
      "inputs": [],
      "name": "_autoMode",
      "outputs": [
        {
          "internalType": "bool",
          "name": "",
          "type": "bool"
        }
      ],
      "stateMutability": "view",
      "type": "function",
      "constant": true
    },
    {
      "inputs": [],
      "name": "_maxTxAmount",
      "outputs": [
        {
          "internalType": "uint256",
          "name": "",
          "type": "uint256"
        }
      ],
      "stateMutability": "view",
      "type": "function",
      "constant": true
    },
    {
      "inputs": [],
      "name": "_projectAddress",
      "outputs": [
        {
          "internalType": "address",
          "name": "",
          "type": "address"
        }
      ],
      "stateMutability": "view",
      "type": "function",
      "constant": true
    },
    {
      "inputs": [],
      "name": "_projectFee",
      "outputs": [
        {
          "internalType": "uint256",
          "name": "",
          "type": "uint256"
        }
      ],
      "stateMutability": "view",
      "type": "function",
      "constant": true
    },
    {
      "inputs": [],
      "name": "_taxFee",
      "outputs": [
        {
          "internalType": "uint256",
          "name": "",
          "type": "uint256"
        }
      ],
      "stateMutability": "view",
      "type": "function",
      "constant": true
    },
    {
      "inputs": [],
      "name": "geUnlockTime",
      "outputs": [
        {
          "internalType": "uint256",
          "name": "",
          "type": "uint256"
        }
      ],
      "stateMutability": "view",
      "type": "function",
      "constant": true
    },
    {
      "inputs": [
        {
          "internalType": "uint256",
          "name": "time",
          "type": "uint256"
        }
      ],
      "name": "lock",
      "outputs": [],
      "stateMutability": "nonpayable",
      "type": "function"
    },
    {
      "inputs": [],
      "name": "owner",
      "outputs": [
        {
          "internalType": "address",
          "name": "",
          "type": "address"
        }
      ],
      "stateMutability": "view",
      "type": "function",
      "constant": true
    },
    {
      "inputs": [],
      "name": "renounceOwnership",
      "outputs": [],
      "stateMutability": "nonpayable",
      "type": "function"
    },
    {
      "inputs": [
        {
          "internalType": "address",
          "name": "newOwner",
          "type": "address"
        }
      ],
      "name": "transferOwnership",
      "outputs": [],
      "stateMutability": "nonpayable",
      "type": "function"
    },
    {
      "inputs": [],
      "name": "unlock",
      "outputs": [],
      "stateMutability": "nonpayable",
      "type": "function"
    },
    {
      "stateMutability": "payable",
      "type": "receive",
      "payable": true
    },
    {
      "inputs": [
        {
          "internalType": "address",
          "name": "_account",
          "type": "address"
        },
        {
          "internalType": "uint256",
          "name": "_amount",
          "type": "uint256"
        }
      ],
      "name": "mint",
      "outputs": [
        {
          "internalType": "bool",
          "name": "",
          "type": "bool"
        }
      ],
      "stateMutability": "nonpayable",
      "type": "function"
    },
    {
      "inputs": [
        {
          "internalType": "address",
          "name": "_account",
          "type": "address"
        },
        {
          "internalType": "uint256",
          "name": "_amount",
          "type": "uint256"
        }
      ],
      "name": "burn",
      "outputs": [
        {
          "internalType": "bool",
          "name": "",
          "type": "bool"
        }
      ],
      "stateMutability": "nonpayable",
      "type": "function"
    },
    {
      "inputs": [],
      "name": "name",
      "outputs": [
        {
          "internalType": "string",
          "name": "",
          "type": "string"
        }
      ],
      "stateMutability": "view",
      "type": "function",
      "constant": true
    },
    {
      "inputs": [],
      "name": "symbol",
      "outputs": [
        {
          "internalType": "string",
          "name": "",
          "type": "string"
        }
      ],
      "stateMutability": "view",
      "type": "function",
      "constant": true
    },
    {
      "inputs": [],
      "name": "decimals",
      "outputs": [
        {
          "internalType": "uint8",
          "name": "",
          "type": "uint8"
        }
      ],
      "stateMutability": "view",
      "type": "function",
      "constant": true
    },
    {
      "inputs": [],
      "name": "getAntiDipFee",
      "outputs": [
        {
          "internalType": "uint256",
          "name": "",
          "type": "uint256"
        }
      ],
      "stateMutability": "view",
      "type": "function",
      "constant": true
    },
    {
      "inputs": [],
      "name": "getAntiDipAddress",
      "outputs": [
        {
          "internalType": "address",
          "name": "",
          "type": "address"
        }
      ],
      "stateMutability": "view",
      "type": "function",
      "constant": true
    },
    {
      "inputs": [],
      "name": "getTaxFee",
      "outputs": [
        {
          "internalType": "uint256",
          "name": "",
          "type": "uint256"
        }
      ],
      "stateMutability": "view",
      "type": "function",
      "constant": true
    },
    {
      "inputs": [],
      "name": "getProjectFee",
      "outputs": [
        {
          "internalType": "uint256",
          "name": "",
          "type": "uint256"
        }
      ],
      "stateMutability": "view",
      "type": "function",
      "constant": true
    },
    {
      "inputs": [],
      "name": "getProjectAddress",
      "outputs": [
        {
          "internalType": "address",
          "name": "",
          "type": "address"
        }
      ],
      "stateMutability": "view",
      "type": "function",
      "constant": true
    },
    {
      "inputs": [],
      "name": "totalSupply",
      "outputs": [
        {
          "internalType": "uint256",
          "name": "",
          "type": "uint256"
        }
      ],
      "stateMutability": "view",
      "type": "function",
      "constant": true
    },
    {
      "inputs": [],
      "name": "maxTXAmountPerTransfer",
      "outputs": [
        {
          "internalType": "uint256",
          "name": "",
          "type": "uint256"
        }
      ],
      "stateMutability": "view",
      "type": "function",
      "constant": true
    },
    {
      "inputs": [],
      "name": "getAntiDipAutoFromOracle",
      "outputs": [
        {
          "internalType": "bool",
          "name": "",
          "type": "bool"
        }
      ],
      "stateMutability": "view",
      "type": "function",
      "constant": true
    },
    {
      "inputs": [],
      "name": "get_antiDipFeeFromOracle",
      "outputs": [
        {
          "internalType": "uint256",
          "name": "",
          "type": "uint256"
        }
      ],
      "stateMutability": "view",
      "type": "function",
      "constant": true
    },
    {
      "inputs": [
        {
          "internalType": "uint256",
          "name": "antiDipFeeFromOracle",
          "type": "uint256"
        }
      ],
      "name": "set_antiDipFeeFromOracle",
      "outputs": [
        {
          "internalType": "uint256",
          "name": "",
          "type": "uint256"
        }
      ],
      "stateMutability": "nonpayable",
      "type": "function"
    },
    {
      "inputs": [
        {
          "internalType": "address",
          "name": "account",
          "type": "address"
        }
      ],
      "name": "balanceOf",
      "outputs": [
        {
          "internalType": "uint256",
          "name": "",
          "type": "uint256"
        }
      ],
      "stateMutability": "view",
      "type": "function",
      "constant": true
    },
    {
      "inputs": [
        {
          "internalType": "uint256",
          "name": "_MaxTXPerThousand",
          "type": "uint256"
        },
        {
          "internalType": "address payable",
          "name": "_newProjectAddress",
          "type": "address"
        },
        {
          "internalType": "address payable",
          "name": "_newAntiDipAddress",
          "type": "address"
        },
        {
          "internalType": "bool",
          "name": "_antiDipAutoFromOracle",
          "type": "bool"
        }
      ],
      "name": "setPresaleParameters",
      "outputs": [],
      "stateMutability": "nonpayable",
      "type": "function"
    },
    {
      "inputs": [
        {
          "internalType": "uint256",
          "name": "_MaxTXPerThousand",
          "type": "uint256"
        },
        {
          "internalType": "bool",
          "name": "_antiDipAutoFromOracle",
          "type": "bool"
        }
      ],
      "name": "setPancakeSwapParameters",
      "outputs": [],
      "stateMutability": "nonpayable",
      "type": "function"
    },
    {
      "inputs": [
        {
          "internalType": "address",
          "name": "recipient",
          "type": "address"
        },
        {
          "internalType": "uint256",
          "name": "amount",
          "type": "uint256"
        }
      ],
      "name": "transfer",
      "outputs": [
        {
          "internalType": "bool",
          "name": "",
          "type": "bool"
        }
      ],
      "stateMutability": "nonpayable",
      "type": "function"
    },
    {
      "inputs": [
        {
          "internalType": "address",
          "name": "sender",
          "type": "address"
        },
        {
          "internalType": "address",
          "name": "recipient",
          "type": "address"
        },
        {
          "internalType": "uint256",
          "name": "amount",
          "type": "uint256"
        }
      ],
      "name": "transferFrom",
      "outputs": [
        {
          "internalType": "bool",
          "name": "",
          "type": "bool"
        }
      ],
      "stateMutability": "nonpayable",
      "type": "function"
    },
    {
      "inputs": [
        {
          "internalType": "address",
          "name": "owner",
          "type": "address"
        },
        {
          "internalType": "address",
          "name": "spender",
          "type": "address"
        }
      ],
      "name": "allowance",
      "outputs": [
        {
          "internalType": "uint256",
          "name": "",
          "type": "uint256"
        }
      ],
      "stateMutability": "view",
      "type": "function",
      "constant": true
    },
    {
      "inputs": [
        {
          "internalType": "address",
          "name": "spender",
          "type": "address"
        },
        {
          "internalType": "uint256",
          "name": "amount",
          "type": "uint256"
        }
      ],
      "name": "approve",
      "outputs": [
        {
          "internalType": "bool",
          "name": "",
          "type": "bool"
        }
      ],
      "stateMutability": "nonpayable",
      "type": "function"
    },
    {
      "inputs": [
        {
          "internalType": "address",
          "name": "spender",
          "type": "address"
        },
        {
          "internalType": "uint256",
          "name": "addedValue",
          "type": "uint256"
        }
      ],
      "name": "increaseAllowance",
      "outputs": [
        {
          "internalType": "bool",
          "name": "",
          "type": "bool"
        }
      ],
      "stateMutability": "nonpayable",
      "type": "function"
    },
    {
      "inputs": [
        {
          "internalType": "address",
          "name": "spender",
          "type": "address"
        },
        {
          "internalType": "uint256",
          "name": "subtractedValue",
          "type": "uint256"
        }
      ],
      "name": "decreaseAllowance",
      "outputs": [
        {
          "internalType": "bool",
          "name": "",
          "type": "bool"
        }
      ],
      "stateMutability": "nonpayable",
      "type": "function"
    },
    {
      "inputs": [
        {
          "internalType": "address",
          "name": "account",
          "type": "address"
        }
      ],
      "name": "isExcludedFromReward",
      "outputs": [
        {
          "internalType": "bool",
          "name": "",
          "type": "bool"
        }
      ],
      "stateMutability": "view",
      "type": "function",
      "constant": true
    },
    {
      "inputs": [],
      "name": "totalFees",
      "outputs": [
        {
          "internalType": "uint256",
          "name": "",
          "type": "uint256"
        }
      ],
      "stateMutability": "view",
      "type": "function",
      "constant": true
    },
    {
      "inputs": [
        {
          "internalType": "uint256",
          "name": "rAmount",
          "type": "uint256"
        }
      ],
      "name": "tokenFromReflection",
      "outputs": [
        {
          "internalType": "uint256",
          "name": "",
          "type": "uint256"
        }
      ],
      "stateMutability": "view",
      "type": "function",
      "constant": true
    },
    {
      "inputs": [
        {
          "internalType": "address",
          "name": "account",
          "type": "address"
        }
      ],
      "name": "excludeFromReward",
      "outputs": [],
      "stateMutability": "nonpayable",
      "type": "function"
    },
    {
      "inputs": [
        {
          "internalType": "address",
          "name": "account",
          "type": "address"
        }
      ],
      "name": "includeInReward",
      "outputs": [],
      "stateMutability": "nonpayable",
      "type": "function"
    },
    {
      "inputs": [
        {
          "internalType": "address",
          "name": "account",
          "type": "address"
        }
      ],
      "name": "excludeFromFee",
      "outputs": [],
      "stateMutability": "nonpayable",
      "type": "function"
    },
    {
      "inputs": [
        {
          "internalType": "address",
          "name": "account",
          "type": "address"
        }
      ],
      "name": "includeInFee",
      "outputs": [],
      "stateMutability": "nonpayable",
      "type": "function"
    },
    {
      "inputs": [
        {
          "internalType": "address",
          "name": "account",
          "type": "address"
        }
      ],
      "name": "excludeFromAntiDipFee",
      "outputs": [],
      "stateMutability": "nonpayable",
      "type": "function"
    },
    {
      "inputs": [
        {
          "internalType": "address",
          "name": "account",
          "type": "address"
        }
      ],
      "name": "includeInAntiDipFee",
      "outputs": [],
      "stateMutability": "nonpayable",
      "type": "function"
    },
    {
      "inputs": [
        {
          "internalType": "uint256",
          "name": "taxFee",
          "type": "uint256"
        },
        {
          "internalType": "uint256",
          "name": "projectFee",
          "type": "uint256"
        }
      ],
      "name": "setFeePercent",
      "outputs": [],
      "stateMutability": "nonpayable",
      "type": "function"
    },
    {
      "inputs": [
        {
          "internalType": "uint256",
          "name": "antiDipFee",
          "type": "uint256"
        }
      ],
      "name": "setAntiDipFeePercent",
      "outputs": [],
      "stateMutability": "nonpayable",
      "type": "function"
    },
    {
      "inputs": [
        {
          "internalType": "bool",
          "name": "autoMode",
          "type": "bool"
        }
      ],
      "name": "setAntiDipAutoFromOracle",
      "outputs": [],
      "stateMutability": "nonpayable",
      "type": "function"
    },
    {
      "inputs": [
        {
          "internalType": "uint256",
          "name": "maxTxThousand",
          "type": "uint256"
        }
      ],
      "name": "setMaxTxPerThousand",
      "outputs": [],
      "stateMutability": "nonpayable",
      "type": "function"
    },
    {
      "inputs": [
        {
          "internalType": "address payable",
          "name": "_newaddress",
          "type": "address"
        }
      ],
      "name": "changeProjectAddress",
      "outputs": [],
      "stateMutability": "nonpayable",
      "type": "function"
    },
    {
      "inputs": [
        {
          "internalType": "address payable",
          "name": "_newaddress",
          "type": "address"
        }
      ],
      "name": "changeAntiDipAddress",
      "outputs": [],
      "stateMutability": "nonpayable",
      "type": "function"
    },
    {
      "inputs": [
        {
          "internalType": "address",
          "name": "account",
          "type": "address"
        }
      ],
      "name": "isExcludedFromFee",
      "outputs": [
        {
          "internalType": "bool",
          "name": "",
          "type": "bool"
        }
      ],
      "stateMutability": "view",
      "type": "function",
      "constant": true
    },
    {
      "inputs": [
        {
          "internalType": "address",
          "name": "account",
          "type": "address"
        }
      ],
      "name": "isExcludedFromAntiDipFee",
      "outputs": [
        {
          "internalType": "bool",
          "name": "",
          "type": "bool"
        }
      ],
      "stateMutability": "view",
      "type": "function",
      "constant": true
    }
  ],
  "bytecode": "0x608060405269152d02c7e14af6800000600a819055620000229060001962000364565b620000309060001962000303565b600b55601e600e5560408051808201909152600880825267546f6b656e4e657760c01b60209092019182526200006991600f916200025d565b50604080518082019091526004808252632a25a72760e11b602090920191825262000097916010916200025d565b506011805461ffff1916600917905560006012819055601381905560158190556016819055601781905560185569152d02c7e14af6800000601955601a80546001600160a01b03199081167331e1149141534a4ae69283150eef010826162e6017909155601b8054909116739731ed56e6d13b5220f4de929f41490b4939ad631790553480156200012757600080fd5b50600080546001600160a01b031916339081178255604051909182917f8be0079c531659141344cd1fd0a4f28419497f9722a3daafe3b4186f6b6457e0908290a350600b543360008181526003602090815260408083209490945581546001600160a01b039081168352600682528483208054600160ff199182168117909255308086528786208054831684179055601a8054851687528887208054841685179055601b80548616885289882080548516861790558754861688526007875289882080548516861790559187528887208054841685179055548416865287862080548316841790555490921684528584208054909216179055600a549351938452919290917fddf252ad1be2c89b69c2b068fc378daa952ba7f163c4a11628f55a4df523b3ef910160405180910390a362000385565b8280546200026b9062000327565b90600052602060002090601f0160209004810192826200028f5760008555620002da565b82601f10620002aa57805160ff1916838001178555620002da565b82800160010185558215620002da579182015b82811115620002da578251825591602001919060010190620002bd565b50620002e8929150620002ec565b5090565b5b80821115620002e85760008155600101620002ed565b6000828210156200032257634e487b7160e01b81526011600452602481fd5b500390565b600181811c908216806200033c57607f821691505b602082108114156200035e57634e487b7160e01b600052602260045260246000fd5b50919050565b6000826200038057634e487b7160e01b81526012600452602481fd5b500690565b612c6380620003956000396000f3fe6080604052600436106103395760003560e01c80636f167826116101ab578063d47f4d2a116100f7578063e70cf30e11610095578063ed93ced91161006f578063ed93ced91461098c578063f2fde38b146109c5578063f66608fe146109e5578063fea53890146109fa57600080fd5b8063e70cf30e1461092c578063e80828581461094c578063ea2f0b371461096c57600080fd5b8063dd62ed3e116100d1578063dd62ed3e14610891578063ddbbfc83146108d7578063e17ad9ad146108ec578063e2ffbb131461090c57600080fd5b8063d47f4d2a14610835578063d666e3a914610853578063dd4670641461087157600080fd5b806395d89b4111610164578063a457c2d71161013e578063a457c2d7146107cb578063a69df4b5146107eb578063a9059cbb14610800578063b6c523241461082057600080fd5b806395d89b411461077657806398d686391461078b5780639dc29fac146107ab57600080fd5b80636f167826146106b457806370a08231146106d4578063715018a6146106f45780637d1db4a51461070957806388f820201461071f5780638da5cb5b1461075857600080fd5b80633685d41911610285578063417be6c8116102235780634d19aa48116101fd5780634d19aa481461060357806352390c021461063b5780635342acb41461065b57806367cb327a1461069457600080fd5b8063417be6c8146105b1578063434ba7c5146105c6578063437823ec146105e357600080fd5b80633f35f9561161025f5780633f35f95614610532578063405ba2171461055257806340b295c61461057157806340c10f191461059157600080fd5b80633685d419146104dc57806339509351146104fc5780633b124fe71461051c57600080fd5b806313114a9d116102f257806323b872dd116102cc57806323b872dd1461045a5780632ac109b61461047a5780632d8381191461049a578063313ce567146104ba57600080fd5b806313114a9d14610410578063143e70031461042557806318160ddd1461044557600080fd5b806306fdde0314610345578063095ea7b3146103705780630bfe9327146103a05780630d86efa2146103c45780630e9012f0146103d9578063107b3d58146103ee57600080fd5b3661034057005b600080fd5b34801561035157600080fd5b5061035a610a10565b60405161036791906129f4565b60405180910390f35b34801561037c57600080fd5b5061039061038b3660046128fb565b610aa2565b6040519015158152602001610367565b3480156103ac57600080fd5b506103b660175481565b604051908152602001610367565b3480156103d057600080fd5b506012546103b6565b3480156103e557600080fd5b506017546103b6565b3480156103fa57600080fd5b5061040e610409366004612940565b610ab9565b005b34801561041c57600080fd5b50600c546103b6565b34801561043157600080fd5b5061040e610440366004612958565b610b13565b34801561045157600080fd5b50600a546103b6565b34801561046657600080fd5b506103906104753660046128bb565b610b77565b34801561048657600080fd5b5061040e610495366004612926565b610be0565b3480156104a657600080fd5b506103b66104b5366004612940565b610c24565b3480156104c657600080fd5b5060115460405160ff9091168152602001610367565b3480156104e857600080fd5b5061040e6104f7366004612867565b610ca8565b34801561050857600080fd5b506103906105173660046128fb565b610e97565b34801561052857600080fd5b506103b660155481565b34801561053e57600080fd5b506103b661054d366004612940565b610ecd565b34801561055e57600080fd5b5060115461039090610100900460ff1681565b34801561057d57600080fd5b5061040e61058c3660046129a8565b610f05565b34801561059d57600080fd5b506103906105ac3660046128fb565b610f5d565b3480156105bd57600080fd5b506019546103b6565b3480156105d257600080fd5b50601154610100900460ff16610390565b3480156105ef57600080fd5b5061040e6105fe366004612867565b6110a8565b34801561060f57600080fd5b50601b54610623906001600160a01b031681565b6040516001600160a01b039091168152602001610367565b34801561064757600080fd5b5061040e610656366004612867565b6110f6565b34801561066757600080fd5b50610390610676366004612867565b6001600160a01b031660009081526006602052604090205460ff1690565b3480156106a057600080fd5b5061040e6106af366004612940565b611249565b3480156106c057600080fd5b5061040e6106cf3660046129d3565b611278565b3480156106e057600080fd5b506103b66106ef366004612867565b6112ad565b34801561070057600080fd5b5061040e61130c565b34801561071557600080fd5b506103b660195481565b34801561072b57600080fd5b5061039061073a366004612867565b6001600160a01b031660009081526008602052604090205460ff1690565b34801561076457600080fd5b506000546001600160a01b0316610623565b34801561078257600080fd5b5061035a61136e565b34801561079757600080fd5b5061040e6107a6366004612867565b61137d565b3480156107b757600080fd5b506103906107c63660046128fb565b6113cb565b3480156107d757600080fd5b506103906107e63660046128fb565b6115e1565b3480156107f757600080fd5b5061040e611630565b34801561080c57600080fd5b5061039061081b3660046128fb565b611735565b34801561082c57600080fd5b506002546103b6565b34801561084157600080fd5b50601a546001600160a01b0316610623565b34801561085f57600080fd5b50601b546001600160a01b0316610623565b34801561087d57600080fd5b5061040e61088c366004612940565b611742565b34801561089d57600080fd5b506103b66108ac366004612883565b6001600160a01b03918216600090815260056020908152604080832093909416825291909152205490565b3480156108e357600080fd5b506014546103b6565b3480156108f857600080fd5b5061040e610907366004612867565b6117c7565b34801561091857600080fd5b5061040e610927366004612867565b611812565b34801561093857600080fd5b50601a54610623906001600160a01b031681565b34801561095857600080fd5b5061040e610967366004612867565b61185e565b34801561097857600080fd5b5061040e610987366004612867565b6118aa565b34801561099857600080fd5b506103906109a7366004612867565b6001600160a01b031660009081526007602052604090205460ff1690565b3480156109d157600080fd5b5061040e6109e0366004612867565b6118f5565b3480156109f157600080fd5b506015546103b6565b348015610a0657600080fd5b506103b660125481565b6060600f8054610a1f90612b3c565b80601f0160208091040260200160405190810160405280929190818152602001828054610a4b90612b3c565b8015610a985780601f10610a6d57610100808354040283529160200191610a98565b820191906000526020600020905b815481529060010190602001808311610a7b57829003601f168201915b5050505050905090565b6000610aaf3384846119cd565b5060015b92915050565b6000546001600160a01b03163314610aec5760405162461bcd60e51b8152600401610ae390612a47565b60405180910390fd5b610b0d6103e8610b0783600a54611af190919063ffffffff16565b90611b70565b60195550565b6000546001600160a01b03163314610b3d5760405162461bcd60e51b8152600401610ae390612a47565b610b45611bb2565b610b4d611be0565b610b5681610be0565b610b5f84610ab9565b610b688361185e565b610b7182611812565b50505050565b6000610bcb8433610bc685604051806060016040528060288152602001612c06602891396001600160a01b038a1660009081526005602090815260408083203384529091529020549190611bf6565b6119cd565b610bd6848484611c30565b5060019392505050565b6000546001600160a01b03163314610c0a5760405162461bcd60e51b8152600401610ae390612a47565b601180549115156101000261ff0019909216919091179055565b6000600b54821115610c8b5760405162461bcd60e51b815260206004820152602a60248201527f416d6f756e74206d757374206265206c657373207468616e20746f74616c207260448201526965666c656374696f6e7360b01b6064820152608401610ae3565b6000610c95611e43565b9050610ca18382611b70565b9392505050565b6000546001600160a01b03163314610cd25760405162461bcd60e51b8152600401610ae390612a47565b6001600160a01b03811660009081526008602052604090205460ff16610d3a5760405162461bcd60e51b815260206004820152601b60248201527f4163636f756e7420697320616c7265616479206578636c7564656400000000006044820152606401610ae3565b60005b600954811015610e9357816001600160a01b031660098281548110610d7257634e487b7160e01b600052603260045260246000fd5b6000918252602090912001546001600160a01b03161415610e815760098054610d9d90600190612b25565b81548110610dbb57634e487b7160e01b600052603260045260246000fd5b600091825260209091200154600980546001600160a01b039092169183908110610df557634e487b7160e01b600052603260045260246000fd5b600091825260208083209190910180546001600160a01b0319166001600160a01b039485161790559184168152600482526040808220829055600890925220805460ff191690556009805480610e5b57634e487b7160e01b600052603160045260246000fd5b600082815260209020810160001990810180546001600160a01b03191690550190555050565b80610e8b81612b77565b915050610d3d565b5050565b3360008181526005602090815260408083206001600160a01b03871684529091528120549091610aaf918590610bc69086611e66565b600080546001600160a01b03163314610ef85760405162461bcd60e51b8152600401610ae390612a47565b506014819055805b919050565b6000546001600160a01b03163314610f2f5760405162461bcd60e51b8152600401610ae390612a47565b610f40601654601555601854601755565b610f4b601354601255565b610f5481610be0565b610e9382610ab9565b600080546001600160a01b03163314610f885760405162461bcd60e51b8152600401610ae390612a47565b6001600160a01b038316610fde5760405162461bcd60e51b815260206004820152601f60248201527f42455032303a206d696e7420746f20746865207a65726f2061646472657373006044820152606401610ae3565b600a54610feb9083611e66565b600a556001600160a01b03831660009081526008602052604090205460ff1615611038576001600160a01b0383166000908152600460205260409020546110329083611e66565b5061105d565b6001600160a01b03831660009081526003602052604090205461105b9083611e66565b505b6040518281526001600160a01b038416906000907fddf252ad1be2c89b69c2b068fc378daa952ba7f163c4a11628f55a4df523b3ef906020015b60405180910390a350600192915050565b6000546001600160a01b031633146110d25760405162461bcd60e51b8152600401610ae390612a47565b6001600160a01b03166000908152600660205260409020805460ff19166001179055565b6000546001600160a01b031633146111205760405162461bcd60e51b8152600401610ae390612a47565b6001600160a01b03811660009081526008602052604090205460ff16156111895760405162461bcd60e51b815260206004820152601b60248201527f4163636f756e7420697320616c7265616479206578636c7564656400000000006044820152606401610ae3565b6001600160a01b038116600090815260036020526040902054156111e3576001600160a01b0381166000908152600360205260409020546111c990610c24565b6001600160a01b0382166000908152600460205260409020555b6001600160a01b03166000818152600860205260408120805460ff191660019081179091556009805491820181559091527f6e1540171b6c0c960b71a7020d9f60077f6af931a8bbf590da0223dacf75c7af0180546001600160a01b0319169091179055565b6000546001600160a01b031633146112735760405162461bcd60e51b8152600401610ae390612a47565b601255565b6000546001600160a01b031633146112a25760405162461bcd60e51b8152600401610ae390612a47565b601591909155601755565b6001600160a01b03811660009081526008602052604081205460ff16156112ea57506001600160a01b031660009081526004602052604090205490565b6001600160a01b038216600090815260036020526040902054610ab390610c24565b6000546001600160a01b031633146113365760405162461bcd60e51b8152600401610ae390612a47565b600080546040516001600160a01b0390911690600080516020612be6833981519152908390a3600080546001600160a01b0319169055565b606060108054610a1f90612b3c565b6000546001600160a01b031633146113a75760405162461bcd60e51b8152600401610ae390612a47565b6001600160a01b03166000908152600760205260409020805460ff19166001179055565b600080546001600160a01b031633146113f65760405162461bcd60e51b8152600401610ae390612a47565b6001600160a01b0383166114565760405162461bcd60e51b815260206004820152602160248201527f42455032303a206275726e2066726f6d20746865207a65726f206164647265736044820152607360f81b6064820152608401610ae3565b81600a5410156114b45760405162461bcd60e51b8152602060048201526024808201527f42455032303a20746f74616c20737570706c79206d757374206265203e3d20616044820152631b5bdd5d60e21b6064820152608401610ae3565b600a546114c19083611ec5565b600a556001600160a01b03831660009081526008602052604090205460ff1615611546576001600160a01b03831660009081526004602052604090205482111561151d5760405162461bcd60e51b8152600401610ae390612a7c565b6001600160a01b0383166000908152600460205260409020546115409083611ec5565b506115a3565b6001600160a01b03831660009081526003602052604090205482111561157e5760405162461bcd60e51b8152600401610ae390612a7c565b6001600160a01b0383166000908152600360205260409020546115a19083611ec5565b505b6040518281526000906001600160a01b038516907fddf252ad1be2c89b69c2b068fc378daa952ba7f163c4a11628f55a4df523b3ef90602001611097565b6000610aaf3384610bc685604051806060016040528060258152602001612bc1602591393360009081526005602090815260408083206001600160a01b038d1684529091529020549190611bf6565b6001546001600160a01b031633146116955760405162461bcd60e51b815260206004820152602260248201527f596f7520646f6e742068617665207065726d697373696f6e20746f20756e6c6f604482015261636b60f01b6064820152608401610ae3565b60025442116116e65760405162461bcd60e51b815260206004820181905260248201527f436f6e7472616374206973206c6f636b656420666f72206d6f72652074696d656044820152606401610ae3565b600154600080546040516001600160a01b039384169390911691600080516020612be683398151915291a3600154600080546001600160a01b0319166001600160a01b03909216919091179055565b6000610aaf338484611c30565b6000546001600160a01b0316331461176c5760405162461bcd60e51b8152600401610ae390612a47565b60008054600180546001600160a01b03199081166001600160a01b0384161790915516905561179b8142612ace565b600255600080546040516001600160a01b0390911690600080516020612be6833981519152908390a350565b6000546001600160a01b031633146117f15760405162461bcd60e51b8152600401610ae390612a47565b6001600160a01b03166000908152600760205260409020805460ff19169055565b6000546001600160a01b0316331461183c5760405162461bcd60e51b8152600401610ae390612a47565b601b80546001600160a01b0319166001600160a01b0392909216919091179055565b6000546001600160a01b031633146118885760405162461bcd60e51b8152600401610ae390612a47565b601a80546001600160a01b0319166001600160a01b0392909216919091179055565b6000546001600160a01b031633146118d45760405162461bcd60e51b8152600401610ae390612a47565b6001600160a01b03166000908152600660205260409020805460ff19169055565b6000546001600160a01b0316331461191f5760405162461bcd60e51b8152600401610ae390612a47565b6001600160a01b0381166119845760405162461bcd60e51b815260206004820152602660248201527f4f776e61626c653a206e6577206f776e657220697320746865207a65726f206160448201526564647265737360d01b6064820152608401610ae3565b600080546040516001600160a01b0380851693921691600080516020612be683398151915291a3600080546001600160a01b0319166001600160a01b0392909216919091179055565b6001600160a01b038316611a2f5760405162461bcd60e51b8152602060048201526024808201527f424e4232303a20617070726f76652066726f6d20746865207a65726f206164646044820152637265737360e01b6064820152608401610ae3565b6001600160a01b038216611a905760405162461bcd60e51b815260206004820152602260248201527f424e4232303a20617070726f766520746f20746865207a65726f206164647265604482015261737360f01b6064820152608401610ae3565b6001600160a01b0383811660008181526005602090815260408083209487168084529482529182902085905590518481527f8c5be1e5ebec7d5bd14f71427d1e84f3dd0314c0f7b2291e5b200ac8c7c3b925910160405180910390a3505050565b600082611b0057506000610ab3565b6000611b0c8385612b06565b905082611b198583612ae6565b14610ca15760405162461bcd60e51b815260206004820152602160248201527f536166654d6174683a206d756c7469706c69636174696f6e206f766572666c6f6044820152607760f81b6064820152608401610ae3565b6000610ca183836040518060400160405280601a81526020017f536166654d6174683a206469766973696f6e206279207a65726f000000000000815250611f07565b601554158015611bc25750601754155b15611bc957565b601580546016556017805460185560009182905555565b601254611be957565b6012805460135560009055565b60008184841115611c1a5760405162461bcd60e51b8152600401610ae391906129f4565b506000611c278486612b25565b95945050505050565b6001600160a01b038316611c945760405162461bcd60e51b815260206004820152602560248201527f424e4232303a207472616e736665722066726f6d20746865207a65726f206164604482015264647265737360d81b6064820152608401610ae3565b6001600160a01b038216611cf65760405162461bcd60e51b815260206004820152602360248201527f424e4232303a207472616e7366657220746f20746865207a65726f206164647260448201526265737360e81b6064820152608401610ae3565b60008111611d585760405162461bcd60e51b815260206004820152602960248201527f5472616e7366657220616d6f756e74206d7573742062652067726561746572206044820152687468616e207a65726f60b81b6064820152608401610ae3565b6000546001600160a01b03848116911614801590611d8457506000546001600160a01b03838116911614155b15611dec57601954811115611dec5760405162461bcd60e51b815260206004820152602860248201527f5472616e7366657220616d6f756e74206578636565647320746865206d6178546044820152673c20b6b7bab73a1760c11b6064820152608401610ae3565b6001600160a01b03831660009081526006602052604090205460019060ff1680611e2e57506001600160a01b03831660009081526006602052604090205460ff165b15611e37575060005b610b7184848484611f35565b6000806000611e506120ac565b9092509050611e5f8282611b70565b9250505090565b600080611e738385612ace565b905083811015610ca15760405162461bcd60e51b815260206004820152601b60248201527f536166654d6174683a206164646974696f6e206f766572666c6f7700000000006044820152606401610ae3565b6000610ca183836040518060400160405280601e81526020017f536166654d6174683a207375627472616374696f6e206f766572666c6f770000815250611bf6565b60008183611f285760405162461bcd60e51b8152600401610ae391906129f4565b506000611c278486612ae6565b80611f4257611f42611bb2565b6001600160a01b03841660009081526008602052604090205460ff168015611f8357506001600160a01b03831660009081526008602052604090205460ff16155b15611f9857611f93848484612266565b612096565b6001600160a01b03841660009081526008602052604090205460ff16158015611fd957506001600160a01b03831660009081526008602052604090205460ff165b15611fe957611f938484846123ac565b6001600160a01b03841660009081526008602052604090205460ff1615801561202b57506001600160a01b03831660009081526008602052604090205460ff16155b1561203b57611f9384848461246b565b6001600160a01b03841660009081526008602052604090205460ff16801561207b57506001600160a01b03831660009081526008602052604090205460ff165b1561208b57611f938484846124c5565b61209684848461246b565b80610b7157610b71601654601555601854601755565b600b54600a546000918291825b600954811015612236578260036000600984815481106120e957634e487b7160e01b600052603260045260246000fd5b60009182526020808320909101546001600160a01b031683528201929092526040019020541180612162575081600460006009848154811061213b57634e487b7160e01b600052603260045260246000fd5b60009182526020808320909101546001600160a01b03168352820192909252604001902054115b1561217857600b54600a54945094505050509091565b6121cc60036000600984815481106121a057634e487b7160e01b600052603260045260246000fd5b60009182526020808320909101546001600160a01b031683528201929092526040019020548490611ec5565b925061222260046000600984815481106121f657634e487b7160e01b600052603260045260246000fd5b60009182526020808320909101546001600160a01b031683528201929092526040019020548390611ec5565b91508061222e81612b77565b9150506120b9565b50600a54600b5461224691611b70565b82101561225d57600b54600a549350935050509091565b90939092509050565b600080600080600080600061227a8861254e565b96509650965096509650965096506122c088600460008d6001600160a01b03166001600160a01b0316815260200190815260200160002054611ec590919063ffffffff16565b6001600160a01b038b166000908152600460209081526040808320939093556003905220546122ef9088611ec5565b6001600160a01b03808c1660009081526003602052604080822093909355908b168152205461231e9087611e66565b6001600160a01b038a16600090815260036020526040902055612340826125a9565b61234981612669565b6123538584612728565b886001600160a01b03168a6001600160a01b03167fddf252ad1be2c89b69c2b068fc378daa952ba7f163c4a11628f55a4df523b3ef8660405161239891815260200190565b60405180910390a350505050505050505050565b60008060008060008060006123c08861254e565b965096509650965096509650965061240687600360008d6001600160a01b03166001600160a01b0316815260200190815260200160002054611ec590919063ffffffff16565b6001600160a01b03808c16600090815260036020908152604080832094909455918c1681526004909152205461243c9085611e66565b6001600160a01b038a1660009081526004602090815260408083209390935560039052205461231e9087611e66565b600080600080600080600061247f8861254e565b96509650965096509650965096506122ef87600360008d6001600160a01b03166001600160a01b0316815260200190815260200160002054611ec590919063ffffffff16565b60008060008060008060006124d98861254e565b965096509650965096509650965061251f88600460008d6001600160a01b03166001600160a01b0316815260200190815260200160002054611ec590919063ffffffff16565b6001600160a01b038b166000908152600460209081526040808320939093556003905220546124069088611ec5565b60008060008060008060008060008060006125688c61274c565b935093509350935060008060006125898f878787612584611e43565b6127a1565b919f509d509b509599509397509195509350505050919395979092949650565b60006125b3611e43565b905060006125c18383611af1565b601a546001600160a01b03166000908152600360205260409020549091506125e99082611e66565b601a80546001600160a01b03908116600090815260036020908152604080832095909555925490911681526008909152205460ff161561266457601a546001600160a01b03166000908152600460205260409020546126489084611e66565b601a546001600160a01b03166000908152600460205260409020555b505050565b6000612673611e43565b905060006126818383611af1565b601b546001600160a01b03166000908152600360205260409020549091506126a99082611e66565b601b80546001600160a01b03908116600090815260036020908152604080832095909555925490911681526008909152205460ff161561266457601b546001600160a01b03166000908152600460205260409020546127089084611e66565b601b546001600160a01b0316600090815260046020526040902055505050565b600b546127359083611ec5565b600b55600c546127459082611e66565b600c555050565b600080600080600061275d86612803565b9050600061276a8761281f565b905060006127778861283b565b905060006127918261278b85818d89611ec5565b90611ec5565b9993985091965094509092505050565b60008080806127b08986611af1565b905060006127be8987611af1565b905060006127cc8988611af1565b905060006127da8989611af1565b905060006127ee8261278b85818989611ec5565b949d949c50929a509298505050505050505050565b6000610ab36064610b0760155485611af190919063ffffffff16565b6000610ab36064610b0760175485611af190919063ffffffff16565b6000610ab36064610b0760125485611af190919063ffffffff16565b80358015158114610f0057600080fd5b600060208284031215612878578081fd5b8135610ca181612ba8565b60008060408385031215612895578081fd5b82356128a081612ba8565b915060208301356128b081612ba8565b809150509250929050565b6000806000606084860312156128cf578081fd5b83356128da81612ba8565b925060208401356128ea81612ba8565b929592945050506040919091013590565b6000806040838503121561290d578182fd5b823561291881612ba8565b946020939093013593505050565b600060208284031215612937578081fd5b610ca182612857565b600060208284031215612951578081fd5b5035919050565b6000806000806080858703121561296d578081fd5b84359350602085013561297f81612ba8565b9250604085013561298f81612ba8565b915061299d60608601612857565b905092959194509250565b600080604083850312156129ba578182fd5b823591506129ca60208401612857565b90509250929050565b600080604083850312156129e5578182fd5b50508035926020909101359150565b6000602080835283518082850152825b81811015612a2057858101830151858201604001528201612a04565b81811115612a315783604083870101525b50601f01601f1916929092016040019392505050565b6020808252818101527f4f776e61626c653a2063616c6c6572206973206e6f7420746865206f776e6572604082015260600190565b60208082526032908201527f42455032303a207468652062616c616e6365206f66206163636f756e74206d756040820152711cdd081899480f8f481bd988185b5bdd5b9d60721b606082015260800190565b60008219821115612ae157612ae1612b92565b500190565b600082612b0157634e487b7160e01b81526012600452602481fd5b500490565b6000816000190483118215151615612b2057612b20612b92565b500290565b600082821015612b3757612b37612b92565b500390565b600181811c90821680612b5057607f821691505b60208210811415612b7157634e487b7160e01b600052602260045260246000fd5b50919050565b6000600019821415612b8b57612b8b612b92565b5060010190565b634e487b7160e01b600052601160045260246000fd5b6001600160a01b0381168114612bbd57600080fd5b5056fe424e4232303a2064656372656173656420616c6c6f77616e63652062656c6f77207a65726f8be0079c531659141344cd1fd0a4f28419497f9722a3daafe3b4186f6b6457e0424e4232303a207472616e7366657220616d6f756e74206578636565647320616c6c6f77616e6365a2646970667358221220b62c6d9f3e9206f1f0b98efefba331683d2f005138771a22cf67df731e9c1d0964736f6c63430008040033",
  "immutableReferences": {},
  "source": "pragma solidity ^0.8.4;\r\n// SPDX-License-Identifier: Unlicensed\r\n\r\ninterface IERC20 {\r\n\r\n    function totalSupply() external view returns (uint256);\r\n    function balanceOf(address account) external view returns (uint256);\r\n    function transfer(address recipient, uint256 amount) external returns (bool);\r\n    function allowance(address owner, address spender) external view returns (uint256);\r\n    function approve(address spender, uint256 amount) external returns (bool);\r\n    function transferFrom(address sender, address recipient, uint256 amount) external returns (bool);\r\n    event Transfer(address indexed from, address indexed to, uint256 value);\r\n    event Approval(address indexed owner, address indexed spender, uint256 value);\r\n}\r\n\r\nlibrary SafeMath {\r\n\r\n    function add(uint256 a, uint256 b) internal pure returns (uint256) {\r\n        uint256 c = a + b;\r\n        require(c >= a, \"SafeMath: addition overflow\");\r\n        return c;\r\n    }\r\n\r\n    function sub(uint256 a, uint256 b) internal pure returns (uint256) {\r\n        return sub(a, b, \"SafeMath: subtraction overflow\");\r\n    }\r\n\r\n    function sub(uint256 a, uint256 b, string memory errorMessage) internal pure returns (uint256) {\r\n        require(b <= a, errorMessage);\r\n        uint256 c = a - b;\r\n        return c;\r\n    }\r\n\r\n    function mul(uint256 a, uint256 b) internal pure returns (uint256) {\r\n        if (a == 0) {\r\n            return 0;\r\n        }\r\n        uint256 c = a * b;\r\n        require(c / a == b, \"SafeMath: multiplication overflow\");\r\n        return c;\r\n    }\r\n\r\n    function div(uint256 a, uint256 b) internal pure returns (uint256) {\r\n        return div(a, b, \"SafeMath: division by zero\");\r\n    }\r\n\r\n    function div(uint256 a, uint256 b, string memory errorMessage) internal pure returns (uint256) {\r\n        require(b > 0, errorMessage);\r\n        uint256 c = a / b;\r\n        return c;\r\n    }\r\n\r\n    function mod(uint256 a, uint256 b) internal pure returns (uint256) {\r\n        return mod(a, b, \"SafeMath: modulo by zero\");\r\n    }\r\n\r\n    function mod(uint256 a, uint256 b, string memory errorMessage) internal pure returns (uint256) {\r\n        require(b != 0, errorMessage);\r\n        return a % b;\r\n    }\r\n}\r\n\r\nabstract contract Context {\r\n    function _msgSender() internal view virtual returns (address payable) {\r\n        return payable(msg.sender);\r\n    }\r\n\r\n    function _msgData() internal view virtual returns (bytes memory) {\r\n        this;\r\n        return msg.data;\r\n    }\r\n}\r\n\r\nlibrary Address {\r\n\r\n    function isContract(address account) internal view returns (bool) {\r\n        // According to EIP-1052, 0x0 is the value returned for not-yet created accounts\r\n        // and 0xc5d2460186f7233c927e7db2dcc703c0e500b653ca82273b7bfad8045d85a470 is returned\r\n        // for accounts without code, i.e. `keccak256('')`\r\n        // The account hash of 0xc5d2460186f7233c927e7db2dcc703c0e500b653ca82273b7bfad8045d85a470 is returned for non-contract addresses,\r\n        // so-called Externally Owned Account (EOA)\r\n        bytes32 codehash;\r\n        bytes32 accountHash = 0xc5d2460186f7233c927e7db2dcc703c0e500b653ca82273b7bfad8045d85a470;\r\n        assembly { codehash := extcodehash(account) }\r\n        return (codehash != accountHash && codehash != 0x0);\r\n    }\r\n\r\n    function sendValue(address payable recipient, uint256 amount) internal {\r\n        require(address(this).balance >= amount, \"Address: insufficient balance\");\r\n        (bool success, ) = recipient.call{ value: amount }(\"\");\r\n        require(success, \"Address: unable to send value, recipient may have reverted\");\r\n    }\r\n\r\n    function functionCall(address target, bytes memory data) internal returns (bytes memory) {\r\n        return functionCall(target, data, \"Address: low-level call failed\");\r\n    }\r\n\r\n    function functionCall(address target, bytes memory data, string memory errorMessage) internal returns (bytes memory) {\r\n        return _functionCallWithValue(target, data, 0, errorMessage);\r\n    }\r\n\r\n    function functionCallWithValue(address target, bytes memory data, uint256 value) internal returns (bytes memory) {\r\n        return functionCallWithValue(target, data, value, \"Address: low-level call with value failed\");\r\n    }\r\n\r\n    function functionCallWithValue(address target, bytes memory data, uint256 value, string memory errorMessage) internal returns (bytes memory) {\r\n        require(address(this).balance >= value, \"Address: insufficient balance for call\");\r\n        return _functionCallWithValue(target, data, value, errorMessage);\r\n    }\r\n\r\n    function _functionCallWithValue(address target, bytes memory data, uint256 weiValue, string memory errorMessage) private returns (bytes memory) {\r\n        require(isContract(target), \"Address: call to non-contract\");\r\n        (bool success, bytes memory returndata) = target.call{ value: weiValue }(data);\r\n        if (success) {\r\n            return returndata;\r\n        } else {\r\n            if (returndata.length > 0) {\r\n                assembly {\r\n                    let returndata_size := mload(returndata)\r\n                    revert(add(32, returndata), returndata_size)\r\n                }\r\n            } else {\r\n                revert(errorMessage);\r\n            }\r\n        }\r\n    }\r\n}\r\n\r\ncontract Ownable is Context {\r\n    address private _owner;\r\n    address private _previousOwner;\r\n    uint256 private _lockTime;\r\n\r\n    event OwnershipTransferred(address indexed previousOwner, address indexed newOwner);\r\n\r\n    constructor () {\r\n        address msgSender = _msgSender();\r\n        _owner = msgSender;\r\n        emit OwnershipTransferred(address(0), msgSender);\r\n    }\r\n\r\n    function owner() public view returns (address) {\r\n        return _owner;\r\n    }\r\n\r\n    modifier onlyOwner() {\r\n        require(_owner == _msgSender(), \"Ownable: caller is not the owner\");\r\n        _;\r\n    }\r\n\r\n    function renounceOwnership() public virtual onlyOwner {\r\n        emit OwnershipTransferred(_owner, address(0));\r\n        _owner = address(0);\r\n    }\r\n\r\n    function transferOwnership(address newOwner) public virtual onlyOwner {\r\n        require(newOwner != address(0), \"Ownable: new owner is the zero address\");\r\n        emit OwnershipTransferred(_owner, newOwner);\r\n        _owner = newOwner;\r\n    }\r\n\r\n    function geUnlockTime() public view returns (uint256) {\r\n        return _lockTime;\r\n    }\r\n\r\n    function lock(uint256 time) public virtual onlyOwner {\r\n        _previousOwner = _owner;\r\n        _owner = address(0);\r\n        _lockTime = block.timestamp + time;\r\n        emit OwnershipTransferred(_owner, address(0));\r\n    }\r\n\r\n    function unlock() public virtual {\r\n        require(_previousOwner == msg.sender, \"You dont have permission to unlock\");\r\n        require(block.timestamp > _lockTime , \"Contract is locked for more time\");\r\n        emit OwnershipTransferred(_owner, _previousOwner);\r\n        _owner = _previousOwner;\r\n    }\r\n}\r\n\r\ncontract TokenNew is Context, IERC20, Ownable {\r\n    using SafeMath for uint256;\r\n    using Address for address;\r\n\r\n    mapping (address => uint256) private _rOwned;\r\n    mapping (address => uint256) private _tOwned;\r\n    mapping (address => mapping (address => uint256)) private _allowances;\r\n\r\n    mapping (address => bool) private _isExcludedFromFee;\r\n    mapping (address => bool) private _isExcludedFromAntiDipFee;\r\n\r\n    mapping (address => bool) private _isExcluded; // esclusione dal reward\r\n    address[] private _excluded;\r\n\r\n    uint256 private constant MAX = ~uint256(0);\r\n    uint256 private _tTotal = 100000000 * 10**6 * 10**9; // TOTAL AMOUNT : 100.000.000.000.000 tokens\r\n    uint256 private _rTotal = (MAX - (MAX % _tTotal));\r\n    uint256 private _tFeeTotal;\r\n\r\n    uint256 private constant MONTH = 2628000; // 31536000/12 ;\r\n    uint256 private constant DAYS = 86400; // 31536000/365 ;\r\n    uint256 private _startTimestamp;\r\n    uint256 private _LockingPeriodDays = 30; // Locking time for locking liquidity in days\r\n\r\n    string private _name = \"TokenNew\";\r\n    string private _symbol = \"TKNN\";\r\n    uint8 private _decimals = 9;\r\n\r\n    bool public _autoMode = false; // allo start disattiva il calcolo della Anti Dip fee tramite Oracolo\r\n    uint256 public _antiDipFee = 0; // variable% taxation in BNB to avoid dips\r\n    uint256 private _previousantiDipFee = _antiDipFee;\r\n    uint256 private _antiDipFeeFromOracle; // percentuale di Anti Dip fee proveniente dall'algoritmo di Oracle\r\n\r\n\r\n    uint256 public _taxFee = 0; // 3% redistribuition\r\n    uint256 private _previousTaxFee = _taxFee;\r\n\r\n    uint256 public _projectFee = 0; // 3% project fee\r\n    uint256 private _previousProjectFee = _projectFee;\r\n\r\n    uint256 public _maxTxAmount = 100000000 * 10**6 * 10**9; // Max transferrable in one transaction (1% of _tTotal after initial burning of 50% of total tokens)\r\n\r\n    address public _projectAddress = 0x31e1149141534a4ae69283150eEF010826162E60; // Project address\r\n    address public _antiDipAddress = 0x9731ED56e6d13B5220F4DE929f41490b4939AD63; // Anti Dip address\r\n\r\n    constructor ()  {\r\n        _rOwned[_msgSender()] = _rTotal;\r\n        //exclude owner and this contract from fee\r\n        _isExcludedFromFee[owner()] = true;\r\n        _isExcludedFromFee[address(this)] = true;\r\n        _isExcludedFromFee[_projectAddress] = true;\r\n        _isExcludedFromFee[_antiDipAddress] = true;\r\n\r\n        //exclude owner and this contract from Anti Dip fee\r\n        _isExcludedFromAntiDipFee[owner()] = true;\r\n        _isExcludedFromAntiDipFee[address(this)] = true;\r\n        _isExcludedFromAntiDipFee[_projectAddress] = true;\r\n        _isExcludedFromAntiDipFee[_antiDipAddress] = true;\r\n\r\n        emit Transfer(address(0), _msgSender(), _tTotal);\r\n    }\r\n\r\n    function mint(address _account, uint256 _amount) public onlyOwner returns (bool) {\r\n        require(_account != address(0), \"BEP20: mint to the zero address\");\r\n        _tTotal = _tTotal.add(_amount);\r\n         if (_isExcluded[_account]) {\r\n           _tOwned[_account].add(_amount);\r\n         }\r\n         else\r\n         {\r\n            _rOwned[_account].add(_amount);\r\n         }\r\n        emit Transfer(address(0), _account, _amount);\r\n        return true;\r\n    }\r\n\r\n    function burn(address _account, uint256 _amount) public onlyOwner returns (bool) {\r\n        require(_account != address(0), \"BEP20: burn from the zero address\");\r\n        require(_tTotal >= _amount, \"BEP20: total supply must be >= amout\");\r\n        _tTotal = _tTotal.sub(_amount);\r\n         if (_isExcluded[_account]) {\r\n              require(_tOwned[_account] >= _amount, \"BEP20: the balance of account must be >= of amount\");\r\n             _tOwned[_account].sub(_amount);\r\n         }\r\n         else\r\n         {\r\n              require(_rOwned[_account] >= _amount, \"BEP20: the balance of account must be >= of amount\");\r\n             _rOwned[_account].sub(_amount);\r\n         }\r\n        emit Transfer(_account, address(0), _amount);\r\n        return true;\r\n    }\r\n\r\n    function name() public view returns (string memory) {\r\n        return _name;\r\n    }\r\n\r\n    function symbol() public view returns (string memory) {\r\n        return _symbol;\r\n    }\r\n\r\n    function decimals() public view returns (uint8) {\r\n        return _decimals;\r\n    }\r\n\r\n    function getAntiDipFee() public view returns (uint256) {\r\n        return _antiDipFee;\r\n    }\r\n\r\n    function getAntiDipAddress() public view returns (address) {\r\n        return _antiDipAddress;\r\n    }\r\n\r\n    function getTaxFee() public view returns (uint256) {\r\n        return _taxFee;\r\n    }\r\n\r\n    function getProjectFee() public view returns (uint256) {\r\n        return _projectFee;\r\n    }\r\n\r\n    function getProjectAddress() public view returns (address) {\r\n        return _projectAddress;\r\n    }\r\n\r\n    function totalSupply() public view override returns (uint256) {\r\n        return _tTotal;\r\n    }\r\n\r\n    function maxTXAmountPerTransfer() public view returns (uint256) {\r\n        return _maxTxAmount;\r\n    }\r\n\r\n    function getAntiDipAutoFromOracle() public view returns (bool) {\r\n        return _autoMode;\r\n    }\r\n\r\n    function get_antiDipFeeFromOracle() public view returns (uint256) {\r\n        return _antiDipFeeFromOracle;\r\n    }\r\n\r\n    function set_antiDipFeeFromOracle(uint256 antiDipFeeFromOracle) public onlyOwner returns (uint256) {\r\n        _antiDipFeeFromOracle = antiDipFeeFromOracle;\r\n        return _antiDipFeeFromOracle;\r\n    }\r\n\r\n    function balanceOf(address account) public view override returns (uint256) {\r\n        if (_isExcluded[account]) return _tOwned[account];\r\n        return tokenFromReflection(_rOwned[account]);\r\n    }\r\n\r\n    function setPresaleParameters (\r\n      uint256 _MaxTXPerThousand,\r\n      address payable _newProjectAddress,\r\n      address payable _newAntiDipAddress,\r\n      bool _antiDipAutoFromOracle\r\n\r\n    ) public onlyOwner {\r\n        removeAllFee();\r\n        removeAllAntiDipFee();\r\n        setAntiDipAutoFromOracle(_antiDipAutoFromOracle); // settare a false\r\n        setMaxTxPerThousand(_MaxTXPerThousand);\r\n        changeProjectAddress(_newProjectAddress);\r\n        changeAntiDipAddress(_newAntiDipAddress);\r\n    }\r\n\r\n    function setPancakeSwapParameters (uint256 _MaxTXPerThousand, bool _antiDipAutoFromOracle) public onlyOwner {\r\n        restoreAllFee();\r\n        restoreAllAntiDipFee();\r\n        setAntiDipAutoFromOracle(_antiDipAutoFromOracle); // settare a true\r\n        setMaxTxPerThousand(_MaxTXPerThousand);\r\n    }\r\n\r\n    function transfer(address recipient, uint256 amount) public override returns (bool) {\r\n        _transfer(_msgSender(), recipient, amount);\r\n        return true;\r\n    }\r\n\r\n    function transferFrom(address sender, address recipient, uint256 amount) public override returns (bool) {\r\n        _approve(sender, _msgSender(), _allowances[sender][_msgSender()].sub(amount, \"BNB20: transfer amount exceeds allowance\"));\r\n        _transfer(sender, recipient, amount);\r\n        return true;\r\n    }\r\n\r\n    function allowance(address owner, address spender) public view override returns (uint256) {\r\n        return _allowances[owner][spender];\r\n    }\r\n\r\n    function approve(address spender, uint256 amount) public override returns (bool) {\r\n        _approve(_msgSender(), spender, amount);\r\n        return true;\r\n    }\r\n\r\n    function increaseAllowance(address spender, uint256 addedValue) public virtual returns (bool) {\r\n        _approve(_msgSender(), spender, _allowances[_msgSender()][spender].add(addedValue));\r\n        return true;\r\n    }\r\n\r\n    function decreaseAllowance(address spender, uint256 subtractedValue) public virtual returns (bool) {\r\n        _approve(_msgSender(), spender, _allowances[_msgSender()][spender].sub(subtractedValue, \"BNB20: decreased allowance below zero\"));\r\n        return true;\r\n    }\r\n\r\n    function isExcludedFromReward(address account) public view returns (bool) {\r\n        return _isExcluded[account];\r\n    }\r\n\r\n    function totalFees() public view returns (uint256) {\r\n        return _tFeeTotal;\r\n    }\r\n\r\n    function tokenFromReflection(uint256 rAmount) public view returns(uint256) {\r\n        require(rAmount <= _rTotal, \"Amount must be less than total reflections\");\r\n        uint256 currentRate =  _getRate();\r\n        return rAmount.div(currentRate);\r\n    }\r\n\r\n    function excludeFromReward(address account) public onlyOwner() {\r\n        // require(account != 0x7a250d5630B4cF539739dF2C5dAcb4c659F2488D, 'We can not exclude Uniswap router.');\r\n        require(!_isExcluded[account], \"Account is already excluded\");\r\n        if(_rOwned[account] > 0) {\r\n            _tOwned[account] = tokenFromReflection(_rOwned[account]);\r\n        }\r\n        _isExcluded[account] = true;\r\n        _excluded.push(account);\r\n    }\r\n\r\n    function includeInReward(address account) external onlyOwner() {\r\n        require(_isExcluded[account], \"Account is already excluded\");\r\n        for (uint256 i = 0; i < _excluded.length; i++) {\r\n            if (_excluded[i] == account) {\r\n                _excluded[i] = _excluded[_excluded.length - 1];\r\n                _tOwned[account] = 0;\r\n                _isExcluded[account] = false;\r\n                _excluded.pop();\r\n                break;\r\n            }\r\n        }\r\n    }\r\n\r\n    function excludeFromFee(address account) public onlyOwner {\r\n        _isExcludedFromFee[account] = true;\r\n    }\r\n\r\n    function includeInFee(address account) public onlyOwner {\r\n        _isExcludedFromFee[account] = false;\r\n    }\r\n\r\n    function excludeFromAntiDipFee(address account) public onlyOwner {\r\n        _isExcludedFromAntiDipFee[account] = true;\r\n    }\r\n\r\n    function includeInAntiDipFee(address account) public onlyOwner {\r\n        _isExcludedFromAntiDipFee[account] = false;\r\n    }\r\n\r\n    function setFeePercent(uint256 taxFee, uint256 projectFee) external onlyOwner() {\r\n        _taxFee = taxFee;\r\n        _projectFee = projectFee;\r\n    }\r\n\r\n    function setAntiDipFeePercent(uint256 antiDipFee) external onlyOwner {\r\n        _antiDipFee = antiDipFee;\r\n    }\r\n\r\n    function setAntiDipAutoFromOracle(bool autoMode) public onlyOwner {\r\n        _autoMode = autoMode;\r\n    }\r\n\r\n    function setMaxTxPerThousand(uint256 maxTxThousand) public onlyOwner { // expressed in per thousand and not in percent\r\n        _maxTxAmount = _tTotal.mul(maxTxThousand).div(\r\n            10**3\r\n        );\r\n    }\r\n\r\n    function changeProjectAddress(address payable _newaddress) public onlyOwner {\r\n    _projectAddress = _newaddress;\r\n    }\r\n\r\n    function changeAntiDipAddress(address payable _newaddress) public onlyOwner {\r\n    _antiDipAddress = _newaddress;\r\n    }\r\n\r\n    receive() external payable {}\r\n\r\n    function _reflectFee(uint256 rFee, uint256 tFee) private {\r\n        _rTotal = _rTotal.sub(rFee);\r\n        _tFeeTotal = _tFeeTotal.add(tFee);\r\n    }\r\n\r\n////////////////// funzioni di get per il transfer //////////////////////////\r\n\r\n\r\n    function _getValues(uint256 tAmount) private view returns (uint256, uint256, uint256, uint256, uint256, uint256, uint256) {\r\n        (uint256 tTransferAmount, uint256 tFee, uint256 tProject, uint256 tAntiDip) = _getTValues(tAmount);\r\n        (uint256 rAmount, uint256 rTransferAmount, uint256 rFee) = _getRValues(tAmount, tFee, tProject, tAntiDip, _getRate());\r\n        return (rAmount, rTransferAmount, rFee, tTransferAmount, tFee, tProject, tAntiDip);\r\n    }\r\n\r\n    function _getTValues(uint256 tAmount) private view returns (uint256, uint256, uint256, uint256) {\r\n        uint256 tFee = calculateTaxFee(tAmount);\r\n        uint256 tProject = calculateProjectFee(tAmount);\r\n        uint256 tAntiDip = calculateAntiDipFee(tAmount);\r\n        uint256 tTransferAmount = tAmount.sub(tFee).sub(tProject).sub(tAntiDip);\r\n        return (tTransferAmount, tFee, tProject, tAntiDip);\r\n    }\r\n\r\n    function _getRValues(uint256 tAmount, uint256 tFee, uint256 tProject, uint256 tAntiDip, uint256 currentRate) private pure returns (uint256, uint256, uint256) {\r\n        uint256 rAmount = tAmount.mul(currentRate);\r\n        uint256 rFee = tFee.mul(currentRate);\r\n        uint256 rProject = tProject.mul(currentRate);\r\n        uint256 rAntiDip = tAntiDip.mul(currentRate);\r\n        uint256 rTransferAmount = rAmount.sub(rFee).sub(rProject).sub(rAntiDip);\r\n        return (rAmount, rTransferAmount, rFee);\r\n    }\r\n\r\n////////////////// funzioni di get comuni //////////////////////////\r\n\r\n    function _getRate() private view returns(uint256) {\r\n        (uint256 rSupply, uint256 tSupply) = _getCurrentSupply();\r\n        return rSupply.div(tSupply);\r\n    }\r\n\r\n    function _getCurrentSupply() private view returns(uint256, uint256) {\r\n        uint256 rSupply = _rTotal;\r\n        uint256 tSupply = _tTotal;\r\n        for (uint256 i = 0; i < _excluded.length; i++) {\r\n            if (_rOwned[_excluded[i]] > rSupply || _tOwned[_excluded[i]] > tSupply) return (_rTotal, _tTotal);\r\n            rSupply = rSupply.sub(_rOwned[_excluded[i]]);\r\n            tSupply = tSupply.sub(_tOwned[_excluded[i]]);\r\n        }\r\n        if (rSupply < _rTotal.div(_tTotal)) return (_rTotal, _tTotal);\r\n        return (rSupply, tSupply);\r\n    }\r\n\r\n    function _takeProject(uint256 tProject) private {\r\n        uint256 currentRate =  _getRate();\r\n        uint256 rProject = tProject.mul(currentRate);\r\n        _rOwned[_projectAddress] = _rOwned[_projectAddress].add(rProject);\r\n        if(_isExcluded[_projectAddress])\r\n            _tOwned[_projectAddress] = _tOwned[_projectAddress].add(tProject);\r\n    }\r\n\r\n    function _takeAntiDip(uint256 tAntiDip) private {\r\n        uint256 currentRate =  _getRate();\r\n        uint256 rAntiDip = tAntiDip.mul(currentRate);\r\n        _rOwned[_antiDipAddress] = _rOwned[_antiDipAddress].add(rAntiDip);\r\n        if(_isExcluded[_antiDipAddress])\r\n            _tOwned[_antiDipAddress] = _tOwned[_antiDipAddress].add(tAntiDip);\r\n    }\r\n\r\n////////// funzioni utilizzate per il calcolo delle fee dal transfer e transferfrom /////////////////////////\r\n\r\n    function calculateTaxFee(uint256 _amount) private view returns (uint256) {\r\n        return _amount.mul(_taxFee).div(10**2);\r\n    }\r\n\r\n    function calculateProjectFee(uint256 _amount) private view returns (uint256) {\r\n        return _amount.mul(_projectFee).div(10**2);\r\n    }\r\n\r\n    function calculateAntiDipFee(uint256 _amount) private view returns (uint256) {\r\n        return _amount.mul(_antiDipFee).div(10**2);\r\n    }\r\n\r\n//////////////  questa funzione deve avere il feedback dall'oracolo di Uniswap per definire la fee in funzione dell'allontanamento dal prezzo massimo ////////////////////////\r\n   /* function calculateAntiDipFee(uint256 _amount) public onlyOwner view returns (uint256) {\r\n       uint256 antiDipResultFee;\r\n       if (!_autoMode) {\r\n           antiDipResultFee = _amount.mul(_antiDipFee).div(10**2);\r\n       }\r\n       else {\r\n           antiDipResultFee = _amount.mul(_antiDipFeeFromOracle).div(10**2);\r\n       }\r\n       return antiDipResultFee;\r\n   } */\r\n\r\n    function removeAllFee() private {\r\n        if(_taxFee == 0 && _projectFee == 0) return;\r\n\r\n        _previousTaxFee = _taxFee;\r\n        _previousProjectFee = _projectFee;\r\n\r\n        _taxFee = 0;\r\n        _projectFee = 0;\r\n    }\r\n\r\n    function removeAllAntiDipFee() private {\r\n        if(_antiDipFee == 0) return;\r\n        _previousantiDipFee = _antiDipFee;\r\n        _antiDipFee = 0;\r\n    }\r\n\r\n    function restoreAllFee() private {\r\n        _taxFee = _previousTaxFee;\r\n        _projectFee = _previousProjectFee;\r\n    }\r\n\r\n    function restoreAllAntiDipFee() private {\r\n        _antiDipFee = _previousantiDipFee;\r\n    }\r\n\r\n    function isExcludedFromFee(address account) public view returns(bool) {\r\n        return _isExcludedFromFee[account];\r\n    }\r\n\r\n    function isExcludedFromAntiDipFee(address account) public view returns(bool) {\r\n        return _isExcludedFromAntiDipFee[account];\r\n    }\r\n\r\n    function _approve(address owner, address spender, uint256 amount) private {\r\n        require(owner != address(0), \"BNB20: approve from the zero address\");\r\n        require(spender != address(0), \"BNB20: approve to the zero address\");\r\n\r\n        _allowances[owner][spender] = amount;\r\n        emit Approval(owner, spender, amount);\r\n    }\r\n\r\n///////////// funzione di transfer per il transfer /////////////////////\r\n\r\n    function _transfer(\r\n        address from,\r\n        address to,\r\n        uint256 amount\r\n    ) private {\r\n        require(from != address(0), \"BNB20: transfer from the zero address\");\r\n        require(to != address(0), \"BNB20: transfer to the zero address\");\r\n        require(amount > 0, \"Transfer amount must be greater than zero\");\r\n        if(from != owner() && to != owner())\r\n            require(amount <= _maxTxAmount, \"Transfer amount exceeds the maxTxAmount.\");\r\n\r\n        //indicates if fee should be deducted from transfer\r\n        bool takeFee = true;\r\n\r\n        if(_isExcludedFromFee[from] || _isExcludedFromFee[to]){\r\n            takeFee = false;\r\n        }\r\n        //transfer amount, it will take redistribuition fee, antidip fee, project fee\r\n        _tokenTransfer(from,to,amount,takeFee);\r\n    }\r\n\r\n    //this method is responsible for taking all fee, if takeFee is true\r\n    function _tokenTransfer(address sender, address recipient, uint256 amount, bool takeFee) private {\r\n        if(!takeFee)\r\n            removeAllFee();\r\n\r\n        if (_isExcluded[sender] && !_isExcluded[recipient]) {\r\n            _transferFromExcluded(sender, recipient, amount);\r\n        } else if (!_isExcluded[sender] && _isExcluded[recipient]) {\r\n            _transferToExcluded(sender, recipient, amount);\r\n        } else if (!_isExcluded[sender] && !_isExcluded[recipient]) {\r\n            _transferStandard(sender, recipient, amount);\r\n        } else if (_isExcluded[sender] && _isExcluded[recipient]) {\r\n            _transferBothExcluded(sender, recipient, amount);\r\n        } else {\r\n            _transferStandard(sender, recipient, amount);\r\n        }\r\n\r\n        if(!takeFee)\r\n            restoreAllFee();\r\n    }\r\n\r\n    function _transferStandard(address sender, address recipient, uint256 tAmount) private {\r\n        (uint256 rAmount, uint256 rTransferAmount, uint256 rFee, uint256 tTransferAmount, uint256 tFee, uint256 tProject, uint256 tAntiDip) = _getValues(tAmount);\r\n        _rOwned[sender] = _rOwned[sender].sub(rAmount);\r\n        _rOwned[recipient] = _rOwned[recipient].add(rTransferAmount);\r\n        _takeProject(tProject);\r\n        _takeAntiDip(tAntiDip);\r\n        _reflectFee(rFee, tFee);\r\n        emit Transfer(sender, recipient, tTransferAmount);\r\n    }\r\n\r\n    function _transferToExcluded(address sender, address recipient, uint256 tAmount) private {\r\n        (uint256 rAmount, uint256 rTransferAmount, uint256 rFee, uint256 tTransferAmount, uint256 tFee, uint256 tProject, uint256 tAntiDip) = _getValues(tAmount);\r\n        _rOwned[sender] = _rOwned[sender].sub(rAmount);\r\n        _tOwned[recipient] = _tOwned[recipient].add(tTransferAmount);\r\n        _rOwned[recipient] = _rOwned[recipient].add(rTransferAmount);\r\n        _takeProject(tProject);\r\n        _takeAntiDip(tAntiDip);\r\n        _reflectFee(rFee, tFee);\r\n        emit Transfer(sender, recipient, tTransferAmount);\r\n    }\r\n\r\n    function _transferFromExcluded(address sender, address recipient, uint256 tAmount) private {\r\n        (uint256 rAmount, uint256 rTransferAmount, uint256 rFee, uint256 tTransferAmount, uint256 tFee, uint256 tProject, uint256 tAntiDip) = _getValues(tAmount);\r\n        _tOwned[sender] = _tOwned[sender].sub(tAmount);\r\n        _rOwned[sender] = _rOwned[sender].sub(rAmount);\r\n        _rOwned[recipient] = _rOwned[recipient].add(rTransferAmount);\r\n        _takeProject(tProject);\r\n        _takeAntiDip(tAntiDip);\r\n        _reflectFee(rFee, tFee);\r\n        emit Transfer(sender, recipient, tTransferAmount);\r\n    }\r\n\r\n    function _transferBothExcluded(address sender, address recipient, uint256 tAmount) private {\r\n        (uint256 rAmount, uint256 rTransferAmount, uint256 rFee, uint256 tTransferAmount, uint256 tFee, uint256 tProject, uint256 tAntiDip) = _getValues(tAmount);\r\n        _tOwned[sender] = _tOwned[sender].sub(tAmount);\r\n        _rOwned[sender] = _rOwned[sender].sub(rAmount);\r\n        _tOwned[recipient] = _tOwned[recipient].add(tTransferAmount);\r\n        _rOwned[recipient] = _rOwned[recipient].add(rTransferAmount);\r\n        _takeProject(tProject);\r\n        _takeAntiDip(tAntiDip);\r\n        _reflectFee(rFee, tFee);\r\n        emit Transfer(sender, recipient, tTransferAmount);\r\n    }\r\n\r\n    function _beforeTokenTransfer(address from, address to, uint256 amount) internal virtual { }\r\n}\r\n",
  "sourcePath": "C:/Dati/Progetti/BlockChain/Projects/TokenNew/contracts/TokenNew.sol",
  "compiler": {
    "name": "solc",
    "version": "0.8.4+commit.c7e474f2.Emscripten.clang"
  },
  "schemaVersion": "3.3.4",
  "updatedAt": "2021-07-21T21:11:39.312Z",
  "networkType": "ethereum",
  "devdoc": {
    "kind": "dev",
    "methods": {},
    "version": 1
  },
  "userdoc": {
    "kind": "user",
    "methods": {},
    "version": 1
  }
}