{
  "contractName": "TokenNew",
  "abi": [
    {
      "inputs": [],
      "stateMutability": "nonpayable",
      "type": "constructor"
    },
    {
      "anonymous": false,
      "inputs": [
        {
          "indexed": true,
          "internalType": "address",
          "name": "owner",
          "type": "address"
        },
        {
          "indexed": true,
          "internalType": "address",
          "name": "spender",
          "type": "address"
        },
        {
          "indexed": false,
          "internalType": "uint256",
          "name": "value",
          "type": "uint256"
        }
      ],
      "name": "Approval",
      "type": "event"
    },
    {
      "anonymous": false,
      "inputs": [
        {
          "indexed": true,
          "internalType": "address",
          "name": "previousOwner",
          "type": "address"
        },
        {
          "indexed": true,
          "internalType": "address",
          "name": "newOwner",
          "type": "address"
        }
      ],
      "name": "OwnershipTransferred",
      "type": "event"
    },
    {
      "anonymous": false,
      "inputs": [
        {
          "indexed": true,
          "internalType": "address",
          "name": "from",
          "type": "address"
        },
        {
          "indexed": true,
          "internalType": "address",
          "name": "to",
          "type": "address"
        },
        {
          "indexed": false,
          "internalType": "uint256",
          "name": "value",
          "type": "uint256"
        }
      ],
      "name": "Transfer",
      "type": "event"
    },
    {
      "inputs": [],
      "name": "_antiDipAddress",
      "outputs": [
        {
          "internalType": "address",
          "name": "",
          "type": "address"
        }
      ],
      "stateMutability": "view",
      "type": "function",
      "constant": true
    },
    {
      "inputs": [],
      "name": "_antiDipFee",
      "outputs": [
        {
          "internalType": "uint256",
          "name": "",
          "type": "uint256"
        }
      ],
      "stateMutability": "view",
      "type": "function",
      "constant": true
    },
    {
      "inputs": [],
      "name": "_autoMode",
      "outputs": [
        {
          "internalType": "bool",
          "name": "",
          "type": "bool"
        }
      ],
      "stateMutability": "view",
      "type": "function",
      "constant": true
    },
    {
      "inputs": [],
      "name": "_charityAddress",
      "outputs": [
        {
          "internalType": "address",
          "name": "",
          "type": "address"
        }
      ],
      "stateMutability": "view",
      "type": "function",
      "constant": true
    },
    {
      "inputs": [],
      "name": "_charityFee",
      "outputs": [
        {
          "internalType": "uint256",
          "name": "",
          "type": "uint256"
        }
      ],
      "stateMutability": "view",
      "type": "function",
      "constant": true
    },
    {
      "inputs": [],
      "name": "_liquidityAddress",
      "outputs": [
        {
          "internalType": "address",
          "name": "",
          "type": "address"
        }
      ],
      "stateMutability": "view",
      "type": "function",
      "constant": true
    },
    {
      "inputs": [],
      "name": "_liquidityFee",
      "outputs": [
        {
          "internalType": "uint256",
          "name": "",
          "type": "uint256"
        }
      ],
      "stateMutability": "view",
      "type": "function",
      "constant": true
    },
    {
      "inputs": [],
      "name": "_maxTxAmount",
      "outputs": [
        {
          "internalType": "uint256",
          "name": "",
          "type": "uint256"
        }
      ],
      "stateMutability": "view",
      "type": "function",
      "constant": true
    },
    {
      "inputs": [],
      "name": "_taxFee",
      "outputs": [
        {
          "internalType": "uint256",
          "name": "",
          "type": "uint256"
        }
      ],
      "stateMutability": "view",
      "type": "function",
      "constant": true
    },
    {
      "inputs": [],
      "name": "geUnlockTime",
      "outputs": [
        {
          "internalType": "uint256",
          "name": "",
          "type": "uint256"
        }
      ],
      "stateMutability": "view",
      "type": "function",
      "constant": true
    },
    {
      "inputs": [
        {
          "internalType": "uint256",
          "name": "time",
          "type": "uint256"
        }
      ],
      "name": "lock",
      "outputs": [],
      "stateMutability": "nonpayable",
      "type": "function"
    },
    {
      "inputs": [],
      "name": "owner",
      "outputs": [
        {
          "internalType": "address",
          "name": "",
          "type": "address"
        }
      ],
      "stateMutability": "view",
      "type": "function",
      "constant": true
    },
    {
      "inputs": [],
      "name": "renounceOwnership",
      "outputs": [],
      "stateMutability": "nonpayable",
      "type": "function"
    },
    {
      "inputs": [
        {
          "internalType": "address",
          "name": "newOwner",
          "type": "address"
        }
      ],
      "name": "transferOwnership",
      "outputs": [],
      "stateMutability": "nonpayable",
      "type": "function"
    },
    {
      "inputs": [],
      "name": "unlock",
      "outputs": [],
      "stateMutability": "nonpayable",
      "type": "function"
    },
    {
      "stateMutability": "payable",
      "type": "receive",
      "payable": true
    },
    {
      "inputs": [
        {
          "internalType": "address",
          "name": "_account",
          "type": "address"
        },
        {
          "internalType": "uint256",
          "name": "_amount",
          "type": "uint256"
        }
      ],
      "name": "mint",
      "outputs": [
        {
          "internalType": "bool",
          "name": "",
          "type": "bool"
        }
      ],
      "stateMutability": "nonpayable",
      "type": "function"
    },
    {
      "inputs": [
        {
          "internalType": "address",
          "name": "_account",
          "type": "address"
        },
        {
          "internalType": "uint256",
          "name": "_amount",
          "type": "uint256"
        }
      ],
      "name": "burn",
      "outputs": [
        {
          "internalType": "bool",
          "name": "",
          "type": "bool"
        }
      ],
      "stateMutability": "nonpayable",
      "type": "function"
    },
    {
      "inputs": [],
      "name": "name",
      "outputs": [
        {
          "internalType": "string",
          "name": "",
          "type": "string"
        }
      ],
      "stateMutability": "view",
      "type": "function",
      "constant": true
    },
    {
      "inputs": [],
      "name": "symbol",
      "outputs": [
        {
          "internalType": "string",
          "name": "",
          "type": "string"
        }
      ],
      "stateMutability": "view",
      "type": "function",
      "constant": true
    },
    {
      "inputs": [],
      "name": "decimals",
      "outputs": [
        {
          "internalType": "uint8",
          "name": "",
          "type": "uint8"
        }
      ],
      "stateMutability": "view",
      "type": "function",
      "constant": true
    },
    {
      "inputs": [],
      "name": "getAntiDipFee",
      "outputs": [
        {
          "internalType": "uint256",
          "name": "",
          "type": "uint256"
        }
      ],
      "stateMutability": "view",
      "type": "function",
      "constant": true
    },
    {
      "inputs": [],
      "name": "getAntiDipAddress",
      "outputs": [
        {
          "internalType": "address",
          "name": "",
          "type": "address"
        }
      ],
      "stateMutability": "view",
      "type": "function",
      "constant": true
    },
    {
      "inputs": [],
      "name": "getTaxFee",
      "outputs": [
        {
          "internalType": "uint256",
          "name": "",
          "type": "uint256"
        }
      ],
      "stateMutability": "view",
      "type": "function",
      "constant": true
    },
    {
      "inputs": [],
      "name": "getLiquidityFee",
      "outputs": [
        {
          "internalType": "uint256",
          "name": "",
          "type": "uint256"
        }
      ],
      "stateMutability": "view",
      "type": "function",
      "constant": true
    },
    {
      "inputs": [],
      "name": "getLiquidityAddress",
      "outputs": [
        {
          "internalType": "address",
          "name": "",
          "type": "address"
        }
      ],
      "stateMutability": "view",
      "type": "function",
      "constant": true
    },
    {
      "inputs": [],
      "name": "getCharityFee",
      "outputs": [
        {
          "internalType": "uint256",
          "name": "",
          "type": "uint256"
        }
      ],
      "stateMutability": "view",
      "type": "function",
      "constant": true
    },
    {
      "inputs": [],
      "name": "getCharityAddress",
      "outputs": [
        {
          "internalType": "address",
          "name": "",
          "type": "address"
        }
      ],
      "stateMutability": "view",
      "type": "function",
      "constant": true
    },
    {
      "inputs": [],
      "name": "totalSupply",
      "outputs": [
        {
          "internalType": "uint256",
          "name": "",
          "type": "uint256"
        }
      ],
      "stateMutability": "view",
      "type": "function",
      "constant": true
    },
    {
      "inputs": [],
      "name": "maxTXAmountPerTransfer",
      "outputs": [
        {
          "internalType": "uint256",
          "name": "",
          "type": "uint256"
        }
      ],
      "stateMutability": "view",
      "type": "function",
      "constant": true
    },
    {
      "inputs": [],
      "name": "getAntiDipAutoFromOracle",
      "outputs": [
        {
          "internalType": "bool",
          "name": "",
          "type": "bool"
        }
      ],
      "stateMutability": "view",
      "type": "function",
      "constant": true
    },
    {
      "inputs": [],
      "name": "get_antiDipFeeFromOracle",
      "outputs": [
        {
          "internalType": "uint256",
          "name": "",
          "type": "uint256"
        }
      ],
      "stateMutability": "view",
      "type": "function",
      "constant": true
    },
    {
      "inputs": [
        {
          "internalType": "uint256",
          "name": "antiDipFeeFromOracle",
          "type": "uint256"
        }
      ],
      "name": "set_antiDipFeeFromOracle",
      "outputs": [
        {
          "internalType": "uint256",
          "name": "",
          "type": "uint256"
        }
      ],
      "stateMutability": "nonpayable",
      "type": "function"
    },
    {
      "inputs": [
        {
          "internalType": "address",
          "name": "account",
          "type": "address"
        }
      ],
      "name": "balanceOf",
      "outputs": [
        {
          "internalType": "uint256",
          "name": "",
          "type": "uint256"
        }
      ],
      "stateMutability": "view",
      "type": "function",
      "constant": true
    },
    {
      "inputs": [
        {
          "internalType": "uint256",
          "name": "_MaxTXPerThousand",
          "type": "uint256"
        },
        {
          "internalType": "address payable",
          "name": "_newCharityAddress",
          "type": "address"
        },
        {
          "internalType": "address payable",
          "name": "_newLiquidityAddress",
          "type": "address"
        },
        {
          "internalType": "address payable",
          "name": "_newAntiDipAddress",
          "type": "address"
        },
        {
          "internalType": "bool",
          "name": "_antiDipAutoFromOracle",
          "type": "bool"
        }
      ],
      "name": "setPresaleParameters",
      "outputs": [],
      "stateMutability": "nonpayable",
      "type": "function"
    },
    {
      "inputs": [
        {
          "internalType": "uint256",
          "name": "_MaxTXPerThousand",
          "type": "uint256"
        },
        {
          "internalType": "bool",
          "name": "_antiDipAutoFromOracle",
          "type": "bool"
        }
      ],
      "name": "setPancakeSwapParameters",
      "outputs": [],
      "stateMutability": "nonpayable",
      "type": "function"
    },
    {
      "inputs": [
        {
          "internalType": "address",
          "name": "recipient",
          "type": "address"
        },
        {
          "internalType": "uint256",
          "name": "amount",
          "type": "uint256"
        }
      ],
      "name": "transfer",
      "outputs": [
        {
          "internalType": "bool",
          "name": "",
          "type": "bool"
        }
      ],
      "stateMutability": "nonpayable",
      "type": "function"
    },
    {
      "inputs": [
        {
          "internalType": "address",
          "name": "sender",
          "type": "address"
        },
        {
          "internalType": "address",
          "name": "recipient",
          "type": "address"
        },
        {
          "internalType": "uint256",
          "name": "amount",
          "type": "uint256"
        }
      ],
      "name": "transferFrom",
      "outputs": [
        {
          "internalType": "bool",
          "name": "",
          "type": "bool"
        }
      ],
      "stateMutability": "nonpayable",
      "type": "function"
    },
    {
      "inputs": [
        {
          "internalType": "address",
          "name": "owner",
          "type": "address"
        },
        {
          "internalType": "address",
          "name": "spender",
          "type": "address"
        }
      ],
      "name": "allowance",
      "outputs": [
        {
          "internalType": "uint256",
          "name": "",
          "type": "uint256"
        }
      ],
      "stateMutability": "view",
      "type": "function",
      "constant": true
    },
    {
      "inputs": [
        {
          "internalType": "address",
          "name": "spender",
          "type": "address"
        },
        {
          "internalType": "uint256",
          "name": "amount",
          "type": "uint256"
        }
      ],
      "name": "approve",
      "outputs": [
        {
          "internalType": "bool",
          "name": "",
          "type": "bool"
        }
      ],
      "stateMutability": "nonpayable",
      "type": "function"
    },
    {
      "inputs": [
        {
          "internalType": "address",
          "name": "spender",
          "type": "address"
        },
        {
          "internalType": "uint256",
          "name": "addedValue",
          "type": "uint256"
        }
      ],
      "name": "increaseAllowance",
      "outputs": [
        {
          "internalType": "bool",
          "name": "",
          "type": "bool"
        }
      ],
      "stateMutability": "nonpayable",
      "type": "function"
    },
    {
      "inputs": [
        {
          "internalType": "address",
          "name": "spender",
          "type": "address"
        },
        {
          "internalType": "uint256",
          "name": "subtractedValue",
          "type": "uint256"
        }
      ],
      "name": "decreaseAllowance",
      "outputs": [
        {
          "internalType": "bool",
          "name": "",
          "type": "bool"
        }
      ],
      "stateMutability": "nonpayable",
      "type": "function"
    },
    {
      "inputs": [
        {
          "internalType": "address",
          "name": "account",
          "type": "address"
        }
      ],
      "name": "isExcludedFromReward",
      "outputs": [
        {
          "internalType": "bool",
          "name": "",
          "type": "bool"
        }
      ],
      "stateMutability": "view",
      "type": "function",
      "constant": true
    },
    {
      "inputs": [],
      "name": "totalFees",
      "outputs": [
        {
          "internalType": "uint256",
          "name": "",
          "type": "uint256"
        }
      ],
      "stateMutability": "view",
      "type": "function",
      "constant": true
    },
    {
      "inputs": [
        {
          "internalType": "uint256",
          "name": "rAmount",
          "type": "uint256"
        }
      ],
      "name": "tokenFromReflection",
      "outputs": [
        {
          "internalType": "uint256",
          "name": "",
          "type": "uint256"
        }
      ],
      "stateMutability": "view",
      "type": "function",
      "constant": true
    },
    {
      "inputs": [
        {
          "internalType": "address",
          "name": "account",
          "type": "address"
        }
      ],
      "name": "excludeFromReward",
      "outputs": [],
      "stateMutability": "nonpayable",
      "type": "function"
    },
    {
      "inputs": [
        {
          "internalType": "address",
          "name": "account",
          "type": "address"
        }
      ],
      "name": "includeInReward",
      "outputs": [],
      "stateMutability": "nonpayable",
      "type": "function"
    },
    {
      "inputs": [
        {
          "internalType": "address",
          "name": "account",
          "type": "address"
        }
      ],
      "name": "excludeFromFee",
      "outputs": [],
      "stateMutability": "nonpayable",
      "type": "function"
    },
    {
      "inputs": [
        {
          "internalType": "address",
          "name": "account",
          "type": "address"
        }
      ],
      "name": "includeInFee",
      "outputs": [],
      "stateMutability": "nonpayable",
      "type": "function"
    },
    {
      "inputs": [
        {
          "internalType": "address",
          "name": "account",
          "type": "address"
        }
      ],
      "name": "excludeFromAntiDipFee",
      "outputs": [],
      "stateMutability": "nonpayable",
      "type": "function"
    },
    {
      "inputs": [
        {
          "internalType": "address",
          "name": "account",
          "type": "address"
        }
      ],
      "name": "includeInAntiDipFee",
      "outputs": [],
      "stateMutability": "nonpayable",
      "type": "function"
    },
    {
      "inputs": [
        {
          "internalType": "uint256",
          "name": "taxFee",
          "type": "uint256"
        },
        {
          "internalType": "uint256",
          "name": "liquidityFee",
          "type": "uint256"
        },
        {
          "internalType": "uint256",
          "name": "charityFee",
          "type": "uint256"
        }
      ],
      "name": "setFeePercent",
      "outputs": [],
      "stateMutability": "nonpayable",
      "type": "function"
    },
    {
      "inputs": [
        {
          "internalType": "uint256",
          "name": "antiDipFee",
          "type": "uint256"
        }
      ],
      "name": "setAntiDipFeePercent",
      "outputs": [],
      "stateMutability": "nonpayable",
      "type": "function"
    },
    {
      "inputs": [
        {
          "internalType": "bool",
          "name": "autoMode",
          "type": "bool"
        }
      ],
      "name": "setAntiDipAutoFromOracle",
      "outputs": [],
      "stateMutability": "nonpayable",
      "type": "function"
    },
    {
      "inputs": [
        {
          "internalType": "uint256",
          "name": "maxTxThousand",
          "type": "uint256"
        }
      ],
      "name": "setMaxTxPerThousand",
      "outputs": [],
      "stateMutability": "nonpayable",
      "type": "function"
    },
    {
      "inputs": [
        {
          "internalType": "address payable",
          "name": "_newaddress",
          "type": "address"
        }
      ],
      "name": "changeCharityAddress",
      "outputs": [],
      "stateMutability": "nonpayable",
      "type": "function"
    },
    {
      "inputs": [
        {
          "internalType": "address payable",
          "name": "_newaddress",
          "type": "address"
        }
      ],
      "name": "changeLiquidityAddress",
      "outputs": [],
      "stateMutability": "nonpayable",
      "type": "function"
    },
    {
      "inputs": [
        {
          "internalType": "address payable",
          "name": "_newaddress",
          "type": "address"
        }
      ],
      "name": "changeAntiDipAddress",
      "outputs": [],
      "stateMutability": "nonpayable",
      "type": "function"
    },
    {
      "inputs": [
        {
          "internalType": "uint256",
          "name": "_amount",
          "type": "uint256"
        }
      ],
      "name": "calculateAntiDipFee",
      "outputs": [
        {
          "internalType": "uint256",
          "name": "",
          "type": "uint256"
        }
      ],
      "stateMutability": "view",
      "type": "function",
      "constant": true
    },
    {
      "inputs": [
        {
          "internalType": "address",
          "name": "account",
          "type": "address"
        }
      ],
      "name": "isExcludedFromFee",
      "outputs": [
        {
          "internalType": "bool",
          "name": "",
          "type": "bool"
        }
      ],
      "stateMutability": "view",
      "type": "function",
      "constant": true
    },
    {
      "inputs": [
        {
          "internalType": "address",
          "name": "account",
          "type": "address"
        }
      ],
      "name": "isExcludedFromAntiDipFee",
      "outputs": [
        {
          "internalType": "bool",
          "name": "",
          "type": "bool"
        }
      ],
      "stateMutability": "view",
      "type": "function",
      "constant": true
    }
  ],
  "bytecode": "0x608060405269152d02c7e14af6800000600a8190556200002290600019620003b0565b62000030906000196200034f565b600b55601e600e5560408051808201909152600880825267546f6b656e4e657760c01b60209092019182526200006991600f91620002a9565b50604080518082019091526004808252632a25a72760e11b60209092019182526200009791601091620002a9565b506011805461ffff1916600917905560006012819055601381905560158190556016819055601781905560188190556019819055601a5569152d02c7e14af6800000601b55601c80546001600160a01b0319908116733136f1ec8a29b1cf5b5d73f2a1b51658007d8bb317909155601d805482167331e1149141534a4ae69283150eef010826162e60179055601e8054909116739731ed56e6d13b5220f4de929f41490b4939ad631790553480156200014f57600080fd5b50600080546001600160a01b031916339081178255604051909182917f8be0079c531659141344cd1fd0a4f28419497f9722a3daafe3b4186f6b6457e0908290a350600b543360008181526003602090815260408083209490945581546001600160a01b039081168352600682528483208054600160ff199182168117909255308086528786208054831684179055601c8054851687528887208054841685179055601d8054861688528988208054851686179055601e8054871689528a89208054861687179055885487168952600788528a8920805486168717905592885289882080548516861790559054851687528887208054841685179055548416865287862080548316841790555490921684528584208054909216179055600a549351938452919290917fddf252ad1be2c89b69c2b068fc378daa952ba7f163c4a11628f55a4df523b3ef910160405180910390a3620003d1565b828054620002b79062000373565b90600052602060002090601f016020900481019282620002db576000855562000326565b82601f10620002f657805160ff191683800117855562000326565b8280016001018555821562000326579182015b828111156200032657825182559160200191906001019062000309565b506200033492915062000338565b5090565b5b8082111562000334576000815560010162000339565b6000828210156200036e57634e487b7160e01b81526011600452602481fd5b500390565b600181811c908216806200038857607f821691505b60208210811415620003aa57634e487b7160e01b600052602260045260246000fd5b50919050565b600082620003cc57634e487b7160e01b81526012600452602481fd5b500690565b612e4680620003e16000396000f3fe60806040526004361061039b5760003560e01c806367cb327a116101dc578063a69df4b511610102578063e17ad9ad116100a0578063f2fde38b1161006f578063f2fde38b14610aa8578063f66608fe14610ac8578063f963744814610add578063fea5389014610afd57600080fd5b8063e17ad9ad14610a0f578063e2ffbb1314610a2f578063ea2f0b3714610a4f578063ed93ced914610a6f57600080fd5b8063d666e3a9116100dc578063d666e3a914610976578063dd46706414610994578063dd62ed3e146109b4578063ddbbfc83146109fa57600080fd5b8063a69df4b51461092c578063a9059cbb14610941578063b6c523241461096157600080fd5b8063871363e91161017a57806395d89b411161014957806395d89b41146108b757806398d68639146108cc5780639dc29fac146108ec578063a457c2d71461090c57600080fd5b8063871363e91461082b57806388f82020146108405780638da5cb5b146108795780638dbc24b01461089757600080fd5b80636c6ac329116101b65780636c6ac329146107c057806370a08231146107e0578063715018a6146108005780637d1db4a51461081557600080fd5b806367cb327a1461076a5780636ac3f2541461078a5780636bc87c3a146107aa57600080fd5b806339509351116102c1578063417be6c81161025f57806352390c021161022e57806352390c02146106d15780635342acb4146106f15780635b7c132d1461072a5780635de8bcf81461074a57600080fd5b8063417be6c81461065f578063434ba7c514610674578063437823ec146106915780634d19aa48146106b157600080fd5b8063405ba2171161029b578063405ba217146105ea57806340b295c61461060957806340c10f191461062957806340f8007a1461064957600080fd5b806339509351146105945780633b124fe7146105b45780633f35f956146105ca57600080fd5b806319a8ac9e116103395780632d838119116103085780632d8381191461051d5780632dce52f01461053d578063313ce567146105525780633685d4191461057457600080fd5b806319a8ac9e1461049f5780631ad06393146104bf57806323b872dd146104dd5780632ac109b6146104fd57600080fd5b8063107b3d5811610375578063107b3d581461042157806312384c881461044357806313114a9d1461047557806318160ddd1461048a57600080fd5b806306fdde03146103a7578063095ea7b3146103d25780630d86efa21461040257600080fd5b366103a257005b600080fd5b3480156103b357600080fd5b506103bc610b13565b6040516103c99190612bd7565b60405180910390f35b3480156103de57600080fd5b506103f26103ed366004612ac1565b610ba5565b60405190151581526020016103c9565b34801561040e57600080fd5b506012545b6040519081526020016103c9565b34801561042d57600080fd5b5061044161043c366004612b06565b610bbc565b005b34801561044f57600080fd5b50601d546001600160a01b03165b6040516001600160a01b0390911681526020016103c9565b34801561048157600080fd5b50600c54610413565b34801561049657600080fd5b50600a54610413565b3480156104ab57600080fd5b50601c5461045d906001600160a01b031681565b3480156104cb57600080fd5b50601c546001600160a01b031661045d565b3480156104e957600080fd5b506103f26104f8366004612a81565b610c16565b34801561050957600080fd5b50610441610518366004612aec565b610c7f565b34801561052957600080fd5b50610413610538366004612b06565b610cc3565b34801561054957600080fd5b50601954610413565b34801561055e57600080fd5b5060115460405160ff90911681526020016103c9565b34801561058057600080fd5b5061044161058f366004612a2d565b610d47565b3480156105a057600080fd5b506103f26105af366004612ac1565b610f36565b3480156105c057600080fd5b5061041360155481565b3480156105d657600080fd5b506104136105e5366004612b06565b610f6c565b3480156105f657600080fd5b506011546103f290610100900460ff1681565b34801561061557600080fd5b50610441610624366004612b81565b610fa4565b34801561063557600080fd5b506103f2610644366004612ac1565b611002565b34801561065557600080fd5b5061041360195481565b34801561066b57600080fd5b50601b54610413565b34801561068057600080fd5b50601154610100900460ff166103f2565b34801561069d57600080fd5b506104416106ac366004612a2d565b61114d565b3480156106bd57600080fd5b50601e5461045d906001600160a01b031681565b3480156106dd57600080fd5b506104416106ec366004612a2d565b61119b565b3480156106fd57600080fd5b506103f261070c366004612a2d565b6001600160a01b031660009081526006602052604090205460ff1690565b34801561073657600080fd5b50610441610745366004612a2d565b6112ee565b34801561075657600080fd5b50610413610765366004612b06565b61133a565b34801561077657600080fd5b50610441610785366004612b06565b6113b2565b34801561079657600080fd5b506104416107a5366004612bac565b6113e1565b3480156107b657600080fd5b5061041360175481565b3480156107cc57600080fd5b50601d5461045d906001600160a01b031681565b3480156107ec57600080fd5b506104136107fb366004612a2d565b611419565b34801561080c57600080fd5b50610441611478565b34801561082157600080fd5b50610413601b5481565b34801561083757600080fd5b50601754610413565b34801561084c57600080fd5b506103f261085b366004612a2d565b6001600160a01b031660009081526008602052604090205460ff1690565b34801561088557600080fd5b506000546001600160a01b031661045d565b3480156108a357600080fd5b506104416108b2366004612a2d565b6114da565b3480156108c357600080fd5b506103bc611526565b3480156108d857600080fd5b506104416108e7366004612a2d565b611535565b3480156108f857600080fd5b506103f2610907366004612ac1565b611583565b34801561091857600080fd5b506103f2610927366004612ac1565b611799565b34801561093857600080fd5b506104416117e8565b34801561094d57600080fd5b506103f261095c366004612ac1565b6118ed565b34801561096d57600080fd5b50600254610413565b34801561098257600080fd5b50601e546001600160a01b031661045d565b3480156109a057600080fd5b506104416109af366004612b06565b6118fa565b3480156109c057600080fd5b506104136109cf366004612a49565b6001600160a01b03918216600090815260056020908152604080832093909416825291909152205490565b348015610a0657600080fd5b50601454610413565b348015610a1b57600080fd5b50610441610a2a366004612a2d565b61197f565b348015610a3b57600080fd5b50610441610a4a366004612a2d565b6119ca565b348015610a5b57600080fd5b50610441610a6a366004612a2d565b611a16565b348015610a7b57600080fd5b506103f2610a8a366004612a2d565b6001600160a01b031660009081526007602052604090205460ff1690565b348015610ab457600080fd5b50610441610ac3366004612a2d565b611a61565b348015610ad457600080fd5b50601554610413565b348015610ae957600080fd5b50610441610af8366004612b1e565b611b39565b348015610b0957600080fd5b5061041360125481565b6060600f8054610b2290612d1f565b80601f0160208091040260200160405190810160405280929190818152602001828054610b4e90612d1f565b8015610b9b5780601f10610b7057610100808354040283529160200191610b9b565b820191906000526020600020905b815481529060010190602001808311610b7e57829003601f168201915b5050505050905090565b6000610bb2338484611ba7565b5060015b92915050565b6000546001600160a01b03163314610bef5760405162461bcd60e51b8152600401610be690612c2a565b60405180910390fd5b610c106103e8610c0a83600a54611ccb90919063ffffffff16565b90611d4a565b601b5550565b6000610c6a8433610c6585604051806060016040528060288152602001612de9602891396001600160a01b038a1660009081526005602090815260408083203384529091529020549190611d8c565b611ba7565b610c75848484611dc6565b5060019392505050565b6000546001600160a01b03163314610ca95760405162461bcd60e51b8152600401610be690612c2a565b601180549115156101000261ff0019909216919091179055565b6000600b54821115610d2a5760405162461bcd60e51b815260206004820152602a60248201527f416d6f756e74206d757374206265206c657373207468616e20746f74616c207260448201526965666c656374696f6e7360b01b6064820152608401610be6565b6000610d34611fdf565b9050610d408382611d4a565b9392505050565b6000546001600160a01b03163314610d715760405162461bcd60e51b8152600401610be690612c2a565b6001600160a01b03811660009081526008602052604090205460ff16610dd95760405162461bcd60e51b815260206004820152601b60248201527f4163636f756e7420697320616c7265616479206578636c7564656400000000006044820152606401610be6565b60005b600954811015610f3257816001600160a01b031660098281548110610e1157634e487b7160e01b600052603260045260246000fd5b6000918252602090912001546001600160a01b03161415610f205760098054610e3c90600190612d08565b81548110610e5a57634e487b7160e01b600052603260045260246000fd5b600091825260209091200154600980546001600160a01b039092169183908110610e9457634e487b7160e01b600052603260045260246000fd5b600091825260208083209190910180546001600160a01b0319166001600160a01b039485161790559184168152600482526040808220829055600890925220805460ff191690556009805480610efa57634e487b7160e01b600052603160045260246000fd5b600082815260209020810160001990810180546001600160a01b03191690550190555050565b80610f2a81612d5a565b915050610ddc565b5050565b3360008181526005602090815260408083206001600160a01b03871684529091528120549091610bb2918590610c659086612002565b600080546001600160a01b03163314610f975760405162461bcd60e51b8152600401610be690612c2a565b506014819055805b919050565b6000546001600160a01b03163314610fce5760405162461bcd60e51b8152600401610be690612c2a565b610fe5601654601555601854601755601a54601955565b610ff0601354601255565b610ff981610c7f565b610f3282610bbc565b600080546001600160a01b0316331461102d5760405162461bcd60e51b8152600401610be690612c2a565b6001600160a01b0383166110835760405162461bcd60e51b815260206004820152601f60248201527f42455032303a206d696e7420746f20746865207a65726f2061646472657373006044820152606401610be6565b600a546110909083612002565b600a556001600160a01b03831660009081526008602052604090205460ff16156110dd576001600160a01b0383166000908152600460205260409020546110d79083612002565b50611102565b6001600160a01b0383166000908152600360205260409020546111009083612002565b505b6040518281526001600160a01b038416906000907fddf252ad1be2c89b69c2b068fc378daa952ba7f163c4a11628f55a4df523b3ef906020015b60405180910390a350600192915050565b6000546001600160a01b031633146111775760405162461bcd60e51b8152600401610be690612c2a565b6001600160a01b03166000908152600660205260409020805460ff19166001179055565b6000546001600160a01b031633146111c55760405162461bcd60e51b8152600401610be690612c2a565b6001600160a01b03811660009081526008602052604090205460ff161561122e5760405162461bcd60e51b815260206004820152601b60248201527f4163636f756e7420697320616c7265616479206578636c7564656400000000006044820152606401610be6565b6001600160a01b03811660009081526003602052604090205415611288576001600160a01b03811660009081526003602052604090205461126e90610cc3565b6001600160a01b0382166000908152600460205260409020555b6001600160a01b03166000818152600860205260408120805460ff191660019081179091556009805491820181559091527f6e1540171b6c0c960b71a7020d9f60077f6af931a8bbf590da0223dacf75c7af0180546001600160a01b0319169091179055565b6000546001600160a01b031633146113185760405162461bcd60e51b8152600401610be690612c2a565b601d80546001600160a01b0319166001600160a01b0392909216919091179055565b600080546001600160a01b031633146113655760405162461bcd60e51b8152600401610be690612c2a565b601154600090610100900460ff16611398576113916064610c0a60125486611ccb90919063ffffffff16565b9050610bb6565b610d406064610c0a60145486611ccb90919063ffffffff16565b6000546001600160a01b031633146113dc5760405162461bcd60e51b8152600401610be690612c2a565b601255565b6000546001600160a01b0316331461140b5760405162461bcd60e51b8152600401610be690612c2a565b601592909255601755601955565b6001600160a01b03811660009081526008602052604081205460ff161561145657506001600160a01b031660009081526004602052604090205490565b6001600160a01b038216600090815260036020526040902054610bb690610cc3565b6000546001600160a01b031633146114a25760405162461bcd60e51b8152600401610be690612c2a565b600080546040516001600160a01b0390911690600080516020612dc9833981519152908390a3600080546001600160a01b0319169055565b6000546001600160a01b031633146115045760405162461bcd60e51b8152600401610be690612c2a565b601c80546001600160a01b0319166001600160a01b0392909216919091179055565b606060108054610b2290612d1f565b6000546001600160a01b0316331461155f5760405162461bcd60e51b8152600401610be690612c2a565b6001600160a01b03166000908152600760205260409020805460ff19166001179055565b600080546001600160a01b031633146115ae5760405162461bcd60e51b8152600401610be690612c2a565b6001600160a01b03831661160e5760405162461bcd60e51b815260206004820152602160248201527f42455032303a206275726e2066726f6d20746865207a65726f206164647265736044820152607360f81b6064820152608401610be6565b81600a54101561166c5760405162461bcd60e51b8152602060048201526024808201527f42455032303a20746f74616c20737570706c79206d757374206265203e3d20616044820152631b5bdd5d60e21b6064820152608401610be6565b600a546116799083612061565b600a556001600160a01b03831660009081526008602052604090205460ff16156116fe576001600160a01b0383166000908152600460205260409020548211156116d55760405162461bcd60e51b8152600401610be690612c5f565b6001600160a01b0383166000908152600460205260409020546116f89083612061565b5061175b565b6001600160a01b0383166000908152600360205260409020548211156117365760405162461bcd60e51b8152600401610be690612c5f565b6001600160a01b0383166000908152600360205260409020546117599083612061565b505b6040518281526000906001600160a01b038516907fddf252ad1be2c89b69c2b068fc378daa952ba7f163c4a11628f55a4df523b3ef9060200161113c565b6000610bb23384610c6585604051806060016040528060258152602001612da4602591393360009081526005602090815260408083206001600160a01b038d1684529091529020549190611d8c565b6001546001600160a01b0316331461184d5760405162461bcd60e51b815260206004820152602260248201527f596f7520646f6e742068617665207065726d697373696f6e20746f20756e6c6f604482015261636b60f01b6064820152608401610be6565b600254421161189e5760405162461bcd60e51b815260206004820181905260248201527f436f6e7472616374206973206c6f636b656420666f72206d6f72652074696d656044820152606401610be6565b600154600080546040516001600160a01b039384169390911691600080516020612dc983398151915291a3600154600080546001600160a01b0319166001600160a01b03909216919091179055565b6000610bb2338484611dc6565b6000546001600160a01b031633146119245760405162461bcd60e51b8152600401610be690612c2a565b60008054600180546001600160a01b03199081166001600160a01b038416179091551690556119538142612cb1565b600255600080546040516001600160a01b0390911690600080516020612dc9833981519152908390a350565b6000546001600160a01b031633146119a95760405162461bcd60e51b8152600401610be690612c2a565b6001600160a01b03166000908152600760205260409020805460ff19169055565b6000546001600160a01b031633146119f45760405162461bcd60e51b8152600401610be690612c2a565b601e80546001600160a01b0319166001600160a01b0392909216919091179055565b6000546001600160a01b03163314611a405760405162461bcd60e51b8152600401610be690612c2a565b6001600160a01b03166000908152600660205260409020805460ff19169055565b6000546001600160a01b03163314611a8b5760405162461bcd60e51b8152600401610be690612c2a565b6001600160a01b038116611af05760405162461bcd60e51b815260206004820152602660248201527f4f776e61626c653a206e6577206f776e657220697320746865207a65726f206160448201526564647265737360d01b6064820152608401610be6565b600080546040516001600160a01b0380851693921691600080516020612dc983398151915291a3600080546001600160a01b0319166001600160a01b0392909216919091179055565b6000546001600160a01b03163314611b635760405162461bcd60e51b8152600401610be690612c2a565b611b6b6120a3565b611b736120e8565b611b7c81610c7f565b611b8585610bbc565b611b8e846114da565b611b97836112ee565b611ba0826119ca565b5050505050565b6001600160a01b038316611c095760405162461bcd60e51b8152602060048201526024808201527f424e4232303a20617070726f76652066726f6d20746865207a65726f206164646044820152637265737360e01b6064820152608401610be6565b6001600160a01b038216611c6a5760405162461bcd60e51b815260206004820152602260248201527f424e4232303a20617070726f766520746f20746865207a65726f206164647265604482015261737360f01b6064820152608401610be6565b6001600160a01b0383811660008181526005602090815260408083209487168084529482529182902085905590518481527f8c5be1e5ebec7d5bd14f71427d1e84f3dd0314c0f7b2291e5b200ac8c7c3b925910160405180910390a3505050565b600082611cda57506000610bb6565b6000611ce68385612ce9565b905082611cf38583612cc9565b14610d405760405162461bcd60e51b815260206004820152602160248201527f536166654d6174683a206d756c7469706c69636174696f6e206f766572666c6f6044820152607760f81b6064820152608401610be6565b6000610d4083836040518060400160405280601a81526020017f536166654d6174683a206469766973696f6e206279207a65726f0000000000008152506120fe565b60008184841115611db05760405162461bcd60e51b8152600401610be69190612bd7565b506000611dbd8486612d08565b95945050505050565b6001600160a01b038316611e2a5760405162461bcd60e51b815260206004820152602560248201527f424e4232303a207472616e736665722066726f6d20746865207a65726f206164604482015264647265737360d81b6064820152608401610be6565b6001600160a01b038216611e8c5760405162461bcd60e51b815260206004820152602360248201527f424e4232303a207472616e7366657220746f20746865207a65726f206164647260448201526265737360e81b6064820152608401610be6565b60008111611eee5760405162461bcd60e51b815260206004820152602960248201527f5472616e7366657220616d6f756e74206d7573742062652067726561746572206044820152687468616e207a65726f60b81b6064820152608401610be6565b6000546001600160a01b03848116911614801590611f1a57506000546001600160a01b03838116911614155b15611f8257601b54811115611f825760405162461bcd60e51b815260206004820152602860248201527f5472616e7366657220616d6f756e74206578636565647320746865206d6178546044820152673c20b6b7bab73a1760c11b6064820152608401610be6565b6001600160a01b03831660009081526006602052604090205460019060ff1680611fc457506001600160a01b03831660009081526006602052604090205460ff165b15611fcd575060005b611fd98484848461212c565b50505050565b6000806000611fec6122a9565b9092509050611ffb8282611d4a565b9250505090565b60008061200f8385612cb1565b905083811015610d405760405162461bcd60e51b815260206004820152601b60248201527f536166654d6174683a206164646974696f6e206f766572666c6f7700000000006044820152606401610be6565b6000610d4083836040518060400160405280601e81526020017f536166654d6174683a207375627472616374696f6e206f766572666c6f770000815250611d8c565b6015541580156120b35750601754155b80156120bf5750601954155b156120c657565b601580546016556017805460185560198054601a556000928390559082905555565b6012546120f157565b6012805460135560009055565b6000818361211f5760405162461bcd60e51b8152600401610be69190612bd7565b506000611dbd8486612cc9565b80612139576121396120a3565b6001600160a01b03841660009081526008602052604090205460ff16801561217a57506001600160a01b03831660009081526008602052604090205460ff16155b1561218f5761218a848484612463565b61228d565b6001600160a01b03841660009081526008602052604090205460ff161580156121d057506001600160a01b03831660009081526008602052604090205460ff165b156121e05761218a8484846125a9565b6001600160a01b03841660009081526008602052604090205460ff1615801561222257506001600160a01b03831660009081526008602052604090205460ff16155b156122325761218a848484612668565b6001600160a01b03841660009081526008602052604090205460ff16801561227257506001600160a01b03831660009081526008602052604090205460ff165b156122825761218a8484846126c2565b61228d848484612668565b80611fd957611fd9601654601555601854601755601a54601955565b600b54600a546000918291825b600954811015612433578260036000600984815481106122e657634e487b7160e01b600052603260045260246000fd5b60009182526020808320909101546001600160a01b03168352820192909252604001902054118061235f575081600460006009848154811061233857634e487b7160e01b600052603260045260246000fd5b60009182526020808320909101546001600160a01b03168352820192909252604001902054115b1561237557600b54600a54945094505050509091565b6123c9600360006009848154811061239d57634e487b7160e01b600052603260045260246000fd5b60009182526020808320909101546001600160a01b031683528201929092526040019020548490612061565b925061241f60046000600984815481106123f357634e487b7160e01b600052603260045260246000fd5b60009182526020808320909101546001600160a01b031683528201929092526040019020548390612061565b91508061242b81612d5a565b9150506122b6565b50600a54600b5461244391611d4a565b82101561245a57600b54600a549350935050509091565b90939092509050565b60008060008060008060006124778861274b565b96509650965096509650965096506124bd88600460008d6001600160a01b03166001600160a01b031681526020019081526020016000205461206190919063ffffffff16565b6001600160a01b038b166000908152600460209081526040808320939093556003905220546124ec9088612061565b6001600160a01b03808c1660009081526003602052604080822093909355908b168152205461251b9087612002565b6001600160a01b038a1660009081526003602052604090205561253d826127a6565b6125468161282f565b61255085846128ee565b886001600160a01b03168a6001600160a01b03167fddf252ad1be2c89b69c2b068fc378daa952ba7f163c4a11628f55a4df523b3ef8660405161259591815260200190565b60405180910390a350505050505050505050565b60008060008060008060006125bd8861274b565b965096509650965096509650965061260387600360008d6001600160a01b03166001600160a01b031681526020019081526020016000205461206190919063ffffffff16565b6001600160a01b03808c16600090815260036020908152604080832094909455918c168152600490915220546126399085612002565b6001600160a01b038a1660009081526004602090815260408083209390935560039052205461251b9087612002565b600080600080600080600061267c8861274b565b96509650965096509650965096506124ec87600360008d6001600160a01b03166001600160a01b031681526020019081526020016000205461206190919063ffffffff16565b60008060008060008060006126d68861274b565b965096509650965096509650965061271c88600460008d6001600160a01b03166001600160a01b031681526020019081526020016000205461206190919063ffffffff16565b6001600160a01b038b166000908152600460209081526040808320939093556003905220546126039088612061565b60008060008060008060008060008060006127658c612912565b935093509350935060008060006127868f878787612781611fdf565b612967565b919f509d509b509599509397509195509350505050919395979092949650565b60006127b0611fdf565b905060006127be8383611ccb565b306000908152600360205260409020549091506127db9082612002565b3060009081526003602090815260408083209390935560089052205460ff161561282a57306000908152600460205260409020546128199084612002565b306000908152600460205260409020555b505050565b6000612839611fdf565b905060006128478383611ccb565b601c546001600160a01b031660009081526003602052604090205490915061286f9082612002565b601c80546001600160a01b03908116600090815260036020908152604080832095909555925490911681526008909152205460ff161561282a57601c546001600160a01b03166000908152600460205260409020546128ce9084612002565b601c546001600160a01b0316600090815260046020526040902055505050565b600b546128fb9083612061565b600b55600c5461290b9082612002565b600c555050565b6000806000806000612923866129c9565b90506000612930876129e5565b9050600061293d88612a01565b905060006129578261295185818d89612061565b90612061565b9993985091965094509092505050565b60008080806129768986611ccb565b905060006129848987611ccb565b905060006129928988611ccb565b905060006129a08989611ccb565b905060006129b48261295185818989612061565b949d949c50929a509298505050505050505050565b6000610bb66064610c0a60155485611ccb90919063ffffffff16565b6000610bb66064610c0a60175485611ccb90919063ffffffff16565b6000610bb66064610c0a60195485611ccb90919063ffffffff16565b80358015158114610f9f57600080fd5b600060208284031215612a3e578081fd5b8135610d4081612d8b565b60008060408385031215612a5b578081fd5b8235612a6681612d8b565b91506020830135612a7681612d8b565b809150509250929050565b600080600060608486031215612a95578081fd5b8335612aa081612d8b565b92506020840135612ab081612d8b565b929592945050506040919091013590565b60008060408385031215612ad3578182fd5b8235612ade81612d8b565b946020939093013593505050565b600060208284031215612afd578081fd5b610d4082612a1d565b600060208284031215612b17578081fd5b5035919050565b600080600080600060a08688031215612b35578081fd5b853594506020860135612b4781612d8b565b93506040860135612b5781612d8b565b92506060860135612b6781612d8b565b9150612b7560808701612a1d565b90509295509295909350565b60008060408385031215612b93578182fd5b82359150612ba360208401612a1d565b90509250929050565b600080600060608486031215612bc0578283fd5b505081359360208301359350604090920135919050565b6000602080835283518082850152825b81811015612c0357858101830151858201604001528201612be7565b81811115612c145783604083870101525b50601f01601f1916929092016040019392505050565b6020808252818101527f4f776e61626c653a2063616c6c6572206973206e6f7420746865206f776e6572604082015260600190565b60208082526032908201527f42455032303a207468652062616c616e6365206f66206163636f756e74206d756040820152711cdd081899480f8f481bd988185b5bdd5b9d60721b606082015260800190565b60008219821115612cc457612cc4612d75565b500190565b600082612ce457634e487b7160e01b81526012600452602481fd5b500490565b6000816000190483118215151615612d0357612d03612d75565b500290565b600082821015612d1a57612d1a612d75565b500390565b600181811c90821680612d3357607f821691505b60208210811415612d5457634e487b7160e01b600052602260045260246000fd5b50919050565b6000600019821415612d6e57612d6e612d75565b5060010190565b634e487b7160e01b600052601160045260246000fd5b6001600160a01b0381168114612da057600080fd5b5056fe424e4232303a2064656372656173656420616c6c6f77616e63652062656c6f77207a65726f8be0079c531659141344cd1fd0a4f28419497f9722a3daafe3b4186f6b6457e0424e4232303a207472616e7366657220616d6f756e74206578636565647320616c6c6f77616e6365a2646970667358221220227dcc3478af6c3feea56b6734420e71763be331c6b605b28da66bb21d4fe28864736f6c63430008040033",
  "immutableReferences": {},
  "source": "pragma solidity ^0.8.4;\r\n// SPDX-License-Identifier: Unlicensed\r\n\r\ninterface IERC20 {\r\n\r\n    function totalSupply() external view returns (uint256);\r\n    function balanceOf(address account) external view returns (uint256);\r\n    function transfer(address recipient, uint256 amount) external returns (bool);\r\n    function allowance(address owner, address spender) external view returns (uint256);\r\n    function approve(address spender, uint256 amount) external returns (bool);\r\n    function transferFrom(address sender, address recipient, uint256 amount) external returns (bool);\r\n    event Transfer(address indexed from, address indexed to, uint256 value);\r\n    event Approval(address indexed owner, address indexed spender, uint256 value);\r\n}\r\n\r\nlibrary SafeMath {\r\n\r\n    function add(uint256 a, uint256 b) internal pure returns (uint256) {\r\n        uint256 c = a + b;\r\n        require(c >= a, \"SafeMath: addition overflow\");\r\n        return c;\r\n    }\r\n\r\n    function sub(uint256 a, uint256 b) internal pure returns (uint256) {\r\n        return sub(a, b, \"SafeMath: subtraction overflow\");\r\n    }\r\n\r\n    function sub(uint256 a, uint256 b, string memory errorMessage) internal pure returns (uint256) {\r\n        require(b <= a, errorMessage);\r\n        uint256 c = a - b;\r\n        return c;\r\n    }\r\n\r\n    function mul(uint256 a, uint256 b) internal pure returns (uint256) {\r\n        if (a == 0) {\r\n            return 0;\r\n        }\r\n        uint256 c = a * b;\r\n        require(c / a == b, \"SafeMath: multiplication overflow\");\r\n        return c;\r\n    }\r\n\r\n    function div(uint256 a, uint256 b) internal pure returns (uint256) {\r\n        return div(a, b, \"SafeMath: division by zero\");\r\n    }\r\n\r\n    function div(uint256 a, uint256 b, string memory errorMessage) internal pure returns (uint256) {\r\n        require(b > 0, errorMessage);\r\n        uint256 c = a / b;\r\n        return c;\r\n    }\r\n\r\n    function mod(uint256 a, uint256 b) internal pure returns (uint256) {\r\n        return mod(a, b, \"SafeMath: modulo by zero\");\r\n    }\r\n\r\n    function mod(uint256 a, uint256 b, string memory errorMessage) internal pure returns (uint256) {\r\n        require(b != 0, errorMessage);\r\n        return a % b;\r\n    }\r\n}\r\n\r\nabstract contract Context {\r\n    function _msgSender() internal view virtual returns (address payable) {\r\n        return payable(msg.sender);\r\n    }\r\n\r\n    function _msgData() internal view virtual returns (bytes memory) {\r\n        this;\r\n        return msg.data;\r\n    }\r\n}\r\n\r\nlibrary Address {\r\n\r\n    function isContract(address account) internal view returns (bool) {\r\n        // According to EIP-1052, 0x0 is the value returned for not-yet created accounts\r\n        // and 0xc5d2460186f7233c927e7db2dcc703c0e500b653ca82273b7bfad8045d85a470 is returned\r\n        // for accounts without code, i.e. `keccak256('')`\r\n        // The account hash of 0xc5d2460186f7233c927e7db2dcc703c0e500b653ca82273b7bfad8045d85a470 is returned for non-contract addresses,\r\n        // so-called Externally Owned Account (EOA)\r\n        bytes32 codehash;\r\n        bytes32 accountHash = 0xc5d2460186f7233c927e7db2dcc703c0e500b653ca82273b7bfad8045d85a470;\r\n        assembly { codehash := extcodehash(account) }\r\n        return (codehash != accountHash && codehash != 0x0);\r\n    }\r\n\r\n    function sendValue(address payable recipient, uint256 amount) internal {\r\n        require(address(this).balance >= amount, \"Address: insufficient balance\");\r\n        (bool success, ) = recipient.call{ value: amount }(\"\");\r\n        require(success, \"Address: unable to send value, recipient may have reverted\");\r\n    }\r\n\r\n    function functionCall(address target, bytes memory data) internal returns (bytes memory) {\r\n        return functionCall(target, data, \"Address: low-level call failed\");\r\n    }\r\n\r\n    function functionCall(address target, bytes memory data, string memory errorMessage) internal returns (bytes memory) {\r\n        return _functionCallWithValue(target, data, 0, errorMessage);\r\n    }\r\n\r\n    function functionCallWithValue(address target, bytes memory data, uint256 value) internal returns (bytes memory) {\r\n        return functionCallWithValue(target, data, value, \"Address: low-level call with value failed\");\r\n    }\r\n\r\n    function functionCallWithValue(address target, bytes memory data, uint256 value, string memory errorMessage) internal returns (bytes memory) {\r\n        require(address(this).balance >= value, \"Address: insufficient balance for call\");\r\n        return _functionCallWithValue(target, data, value, errorMessage);\r\n    }\r\n\r\n    function _functionCallWithValue(address target, bytes memory data, uint256 weiValue, string memory errorMessage) private returns (bytes memory) {\r\n        require(isContract(target), \"Address: call to non-contract\");\r\n        (bool success, bytes memory returndata) = target.call{ value: weiValue }(data);\r\n        if (success) {\r\n            return returndata;\r\n        } else {\r\n            if (returndata.length > 0) {\r\n                assembly {\r\n                    let returndata_size := mload(returndata)\r\n                    revert(add(32, returndata), returndata_size)\r\n                }\r\n            } else {\r\n                revert(errorMessage);\r\n            }\r\n        }\r\n    }\r\n}\r\n\r\ncontract Ownable is Context {\r\n    address private _owner;\r\n    address private _previousOwner;\r\n    uint256 private _lockTime;\r\n\r\n    event OwnershipTransferred(address indexed previousOwner, address indexed newOwner);\r\n\r\n    constructor () {\r\n        address msgSender = _msgSender();\r\n        _owner = msgSender;\r\n        emit OwnershipTransferred(address(0), msgSender);\r\n    }\r\n\r\n    function owner() public view returns (address) {\r\n        return _owner;\r\n    }\r\n\r\n    modifier onlyOwner() {\r\n        require(_owner == _msgSender(), \"Ownable: caller is not the owner\");\r\n        _;\r\n    }\r\n\r\n    function renounceOwnership() public virtual onlyOwner {\r\n        emit OwnershipTransferred(_owner, address(0));\r\n        _owner = address(0);\r\n    }\r\n\r\n    function transferOwnership(address newOwner) public virtual onlyOwner {\r\n        require(newOwner != address(0), \"Ownable: new owner is the zero address\");\r\n        emit OwnershipTransferred(_owner, newOwner);\r\n        _owner = newOwner;\r\n    }\r\n\r\n    function geUnlockTime() public view returns (uint256) {\r\n        return _lockTime;\r\n    }\r\n\r\n    function lock(uint256 time) public virtual onlyOwner {\r\n        _previousOwner = _owner;\r\n        _owner = address(0);\r\n        _lockTime = block.timestamp + time;\r\n        emit OwnershipTransferred(_owner, address(0));\r\n    }\r\n\r\n    function unlock() public virtual {\r\n        require(_previousOwner == msg.sender, \"You dont have permission to unlock\");\r\n        require(block.timestamp > _lockTime , \"Contract is locked for more time\");\r\n        emit OwnershipTransferred(_owner, _previousOwner);\r\n        _owner = _previousOwner;\r\n    }\r\n}\r\n\r\ncontract TokenNew is Context, IERC20, Ownable {\r\n    using SafeMath for uint256;\r\n    using Address for address;\r\n\r\n    mapping (address => uint256) private _rOwned;\r\n    mapping (address => uint256) private _tOwned;\r\n    mapping (address => mapping (address => uint256)) private _allowances;\r\n\r\n    mapping (address => bool) private _isExcludedFromFee;\r\n    mapping (address => bool) private _isExcludedFromAntiDipFee;\r\n\r\n    mapping (address => bool) private _isExcluded; // esclusione dal reward\r\n    address[] private _excluded;\r\n\r\n    uint256 private constant MAX = ~uint256(0);\r\n    uint256 private _tTotal = 100000000 * 10**6 * 10**9; // TOTAL AMOUNT : 100.000.000.000.000 tokens\r\n    uint256 private _rTotal = (MAX - (MAX % _tTotal));\r\n    uint256 private _tFeeTotal;\r\n\r\n    uint256 private constant MONTH = 2628000; // 31536000/12 ;\r\n    uint256 private constant DAYS = 86400; // 31536000/365 ;\r\n    uint256 private _startTimestamp;\r\n    uint256 private _LockingPeriodDays = 30; // Locking time for locking liquidity in days\r\n\r\n    string private _name = \"TokenNew\";\r\n    string private _symbol = \"TKNN\";\r\n    uint8 private _decimals = 9;\r\n\r\n    bool public _autoMode = false; // allo start disattiva il calcolo della Anti Dip fee tramite Oracolo\r\n    uint256 public _antiDipFee = 0; // variable% taxation in BNB to avoid dips\r\n    uint256 private _previousantiDipFee = _antiDipFee;\r\n    uint256 private _antiDipFeeFromOracle; // percentuale di Anti Dip fee proveniente dall'algoritmo di Oracle\r\n\r\n\r\n    uint256 public _taxFee = 0; // 3% redistribuition\r\n    uint256 private _previousTaxFee = _taxFee;\r\n\r\n    uint256 public _liquidityFee = 0; // 3% liquidity fee\r\n    uint256 private _previousLiquidityFee = _liquidityFee;\r\n\r\n    uint256 public _charityFee = 0; // 5% charity fee\r\n    uint256 private _previousCharityFee = _charityFee;\r\n\r\n    uint256 public _maxTxAmount = 100000000 * 10**6 * 10**9; // Max transferrable in one transaction (1% of _tTotal after initial burning of 50% of total tokens)\r\n\r\n    address public _charityAddress = 0x3136F1Ec8a29b1cF5b5d73f2A1b51658007d8BB3; // Charity address o Singer address\r\n    address public _liquidityAddress = 0x31e1149141534a4ae69283150eEF010826162E60; // Liquidity address\r\n    address public _antiDipAddress = 0x9731ED56e6d13B5220F4DE929f41490b4939AD63; // Anti Dip address\r\n\r\n    constructor ()  {\r\n        _rOwned[_msgSender()] = _rTotal;\r\n        //exclude owner and this contract from fee\r\n        _isExcludedFromFee[owner()] = true;\r\n        _isExcludedFromFee[address(this)] = true;\r\n        _isExcludedFromFee[_charityAddress] = true;\r\n        _isExcludedFromFee[_liquidityAddress] = true;\r\n        _isExcludedFromFee[_antiDipAddress] = true;\r\n\r\n        //exclude owner and this contract from Anti Dip fee\r\n        _isExcludedFromAntiDipFee[owner()] = true;\r\n        _isExcludedFromAntiDipFee[address(this)] = true;\r\n        _isExcludedFromAntiDipFee[_charityAddress] = true;\r\n        _isExcludedFromAntiDipFee[_liquidityAddress] = true;\r\n        _isExcludedFromAntiDipFee[_antiDipAddress] = true;\r\n\r\n        emit Transfer(address(0), _msgSender(), _tTotal);\r\n    }\r\n\r\n    function mint(address _account, uint256 _amount) public onlyOwner returns (bool) {\r\n        require(_account != address(0), \"BEP20: mint to the zero address\");\r\n        _tTotal = _tTotal.add(_amount);\r\n         if (_isExcluded[_account]) {\r\n           _tOwned[_account].add(_amount);\r\n         }\r\n         else\r\n         {\r\n            _rOwned[_account].add(_amount);\r\n         }\r\n        emit Transfer(address(0), _account, _amount);\r\n        return true;\r\n    }\r\n\r\n    function burn(address _account, uint256 _amount) public onlyOwner returns (bool) {\r\n        require(_account != address(0), \"BEP20: burn from the zero address\");\r\n        require(_tTotal >= _amount, \"BEP20: total supply must be >= amout\");\r\n        _tTotal = _tTotal.sub(_amount);\r\n         if (_isExcluded[_account]) {\r\n              require(_tOwned[_account] >= _amount, \"BEP20: the balance of account must be >= of amount\");\r\n             _tOwned[_account].sub(_amount);\r\n         }\r\n         else\r\n         {\r\n              require(_rOwned[_account] >= _amount, \"BEP20: the balance of account must be >= of amount\");\r\n             _rOwned[_account].sub(_amount);\r\n         }\r\n        emit Transfer(_account, address(0), _amount);\r\n        return true;\r\n    }\r\n\r\n    function name() public view returns (string memory) {\r\n        return _name;\r\n    }\r\n\r\n    function symbol() public view returns (string memory) {\r\n        return _symbol;\r\n    }\r\n\r\n    function decimals() public view returns (uint8) {\r\n        return _decimals;\r\n    }\r\n\r\n    function getAntiDipFee() public view returns (uint256) {\r\n        return _antiDipFee;\r\n    }\r\n\r\n    function getAntiDipAddress() public view returns (address) {\r\n        return _antiDipAddress;\r\n    }\r\n\r\n    function getTaxFee() public view returns (uint256) {\r\n        return _taxFee;\r\n    }\r\n\r\n    function getLiquidityFee() public view returns (uint256) {\r\n        return _liquidityFee;\r\n    }\r\n\r\n    function getLiquidityAddress() public view returns (address) {\r\n        return _liquidityAddress;\r\n    }\r\n\r\n    function getCharityFee() public view returns (uint256) {\r\n        return _charityFee;\r\n    }\r\n\r\n    function getCharityAddress() public view returns (address) {\r\n        return _charityAddress;\r\n    }\r\n\r\n    function totalSupply() public view override returns (uint256) {\r\n        return _tTotal;\r\n    }\r\n\r\n    function maxTXAmountPerTransfer() public view returns (uint256) {\r\n        return _maxTxAmount;\r\n    }\r\n\r\n    function getAntiDipAutoFromOracle() public view returns (bool) {\r\n        return _autoMode;\r\n    }\r\n\r\n    function get_antiDipFeeFromOracle() public view returns (uint256) {\r\n        return _antiDipFeeFromOracle;\r\n    }\r\n\r\n    function set_antiDipFeeFromOracle(uint256 antiDipFeeFromOracle) public onlyOwner returns (uint256) {\r\n        _antiDipFeeFromOracle = antiDipFeeFromOracle;\r\n        return _antiDipFeeFromOracle;\r\n    }\r\n\r\n    function balanceOf(address account) public view override returns (uint256) {\r\n        if (_isExcluded[account]) return _tOwned[account];\r\n        return tokenFromReflection(_rOwned[account]);\r\n    }\r\n\r\n    function setPresaleParameters (\r\n      uint256 _MaxTXPerThousand,\r\n      address payable _newCharityAddress,\r\n      address payable _newLiquidityAddress,\r\n      address payable _newAntiDipAddress,\r\n      bool _antiDipAutoFromOracle\r\n\r\n    ) public onlyOwner {\r\n        removeAllFee();\r\n        removeAllAntiDipFee();\r\n        setAntiDipAutoFromOracle(_antiDipAutoFromOracle); // settare a false\r\n        setMaxTxPerThousand(_MaxTXPerThousand);\r\n        changeCharityAddress(_newCharityAddress);\r\n        changeLiquidityAddress(_newLiquidityAddress);\r\n        changeAntiDipAddress(_newAntiDipAddress);\r\n    }\r\n\r\n    function setPancakeSwapParameters (uint256 _MaxTXPerThousand, bool _antiDipAutoFromOracle) public onlyOwner {\r\n        restoreAllFee();\r\n        restoreAllAntiDipFee();\r\n        setAntiDipAutoFromOracle(_antiDipAutoFromOracle); // settare a true\r\n        setMaxTxPerThousand(_MaxTXPerThousand);\r\n    }\r\n\r\n    function transfer(address recipient, uint256 amount) public override returns (bool) {\r\n        _transfer(_msgSender(), recipient, amount);\r\n        return true;\r\n    }\r\n\r\n    function transferFrom(address sender, address recipient, uint256 amount) public override returns (bool) {\r\n        _approve(sender, _msgSender(), _allowances[sender][_msgSender()].sub(amount, \"BNB20: transfer amount exceeds allowance\"));\r\n        _transfer(sender, recipient, amount);\r\n        return true;\r\n    }\r\n\r\n    function allowance(address owner, address spender) public view override returns (uint256) {\r\n        return _allowances[owner][spender];\r\n    }\r\n\r\n    function approve(address spender, uint256 amount) public override returns (bool) {\r\n        _approve(_msgSender(), spender, amount);\r\n        return true;\r\n    }\r\n\r\n    function increaseAllowance(address spender, uint256 addedValue) public virtual returns (bool) {\r\n        _approve(_msgSender(), spender, _allowances[_msgSender()][spender].add(addedValue));\r\n        return true;\r\n    }\r\n\r\n    function decreaseAllowance(address spender, uint256 subtractedValue) public virtual returns (bool) {\r\n        _approve(_msgSender(), spender, _allowances[_msgSender()][spender].sub(subtractedValue, \"BNB20: decreased allowance below zero\"));\r\n        return true;\r\n    }\r\n\r\n    function isExcludedFromReward(address account) public view returns (bool) {\r\n        return _isExcluded[account];\r\n    }\r\n\r\n    function totalFees() public view returns (uint256) {\r\n        return _tFeeTotal;\r\n    }\r\n\r\n    function tokenFromReflection(uint256 rAmount) public view returns(uint256) {\r\n        require(rAmount <= _rTotal, \"Amount must be less than total reflections\");\r\n        uint256 currentRate =  _getRate();\r\n        return rAmount.div(currentRate);\r\n    }\r\n\r\n    function excludeFromReward(address account) public onlyOwner() {\r\n        // require(account != 0x7a250d5630B4cF539739dF2C5dAcb4c659F2488D, 'We can not exclude Uniswap router.');\r\n        require(!_isExcluded[account], \"Account is already excluded\");\r\n        if(_rOwned[account] > 0) {\r\n            _tOwned[account] = tokenFromReflection(_rOwned[account]);\r\n        }\r\n        _isExcluded[account] = true;\r\n        _excluded.push(account);\r\n    }\r\n\r\n    function includeInReward(address account) external onlyOwner() {\r\n        require(_isExcluded[account], \"Account is already excluded\");\r\n        for (uint256 i = 0; i < _excluded.length; i++) {\r\n            if (_excluded[i] == account) {\r\n                _excluded[i] = _excluded[_excluded.length - 1];\r\n                _tOwned[account] = 0;\r\n                _isExcluded[account] = false;\r\n                _excluded.pop();\r\n                break;\r\n            }\r\n        }\r\n    }\r\n\r\n    function excludeFromFee(address account) public onlyOwner {\r\n        _isExcludedFromFee[account] = true;\r\n    }\r\n\r\n    function includeInFee(address account) public onlyOwner {\r\n        _isExcludedFromFee[account] = false;\r\n    }\r\n\r\n    function excludeFromAntiDipFee(address account) public onlyOwner {\r\n        _isExcludedFromAntiDipFee[account] = true;\r\n    }\r\n\r\n    function includeInAntiDipFee(address account) public onlyOwner {\r\n        _isExcludedFromAntiDipFee[account] = false;\r\n    }\r\n\r\n    function setFeePercent(uint256 taxFee, uint256 liquidityFee, uint256 charityFee) external onlyOwner() {\r\n        _taxFee = taxFee;\r\n        _liquidityFee = liquidityFee;\r\n        _charityFee = charityFee;\r\n    }\r\n\r\n    function setAntiDipFeePercent(uint256 antiDipFee) external onlyOwner {\r\n        _antiDipFee = antiDipFee;\r\n    }\r\n\r\n    function setAntiDipAutoFromOracle(bool autoMode) public onlyOwner {\r\n        _autoMode = autoMode;\r\n    }\r\n\r\n    function setMaxTxPerThousand(uint256 maxTxThousand) public onlyOwner { // expressed in per thousand and not in percent\r\n        _maxTxAmount = _tTotal.mul(maxTxThousand).div(\r\n            10**3\r\n        );\r\n    }\r\n\r\n    function changeCharityAddress(address payable _newaddress) public onlyOwner {\r\n    _charityAddress = _newaddress;\r\n    }\r\n\r\n    function changeLiquidityAddress(address payable _newaddress) public onlyOwner {\r\n    _liquidityAddress = _newaddress;\r\n    }\r\n\r\n    function changeAntiDipAddress(address payable _newaddress) public onlyOwner {\r\n    _antiDipAddress = _newaddress;\r\n    }\r\n\r\n    receive() external payable {}\r\n\r\n    function _reflectFee(uint256 rFee, uint256 tFee) private {\r\n        _rTotal = _rTotal.sub(rFee);\r\n        _tFeeTotal = _tFeeTotal.add(tFee);\r\n    }\r\n\r\n////////////////// funzioni di get per il transfer //////////////////////////\r\n\r\n\r\n    function _getValues(uint256 tAmount) private view returns (uint256, uint256, uint256, uint256, uint256, uint256, uint256) {\r\n        (uint256 tTransferAmount, uint256 tFee, uint256 tLiquidity, uint256 tCharity) = _getTValues(tAmount);\r\n        (uint256 rAmount, uint256 rTransferAmount, uint256 rFee) = _getRValues(tAmount, tFee, tLiquidity, tCharity, _getRate());\r\n        return (rAmount, rTransferAmount, rFee, tTransferAmount, tFee, tLiquidity, tCharity);\r\n    }\r\n\r\n    function _getTValues(uint256 tAmount) private view returns (uint256, uint256, uint256, uint256) {\r\n        uint256 tFee = calculateTaxFee(tAmount);\r\n        uint256 tLiquidity = calculateLiquidityFee(tAmount);\r\n        uint256 tCharity = calculateCharityFee(tAmount);\r\n        uint256 tTransferAmount = tAmount.sub(tFee).sub(tLiquidity).sub(tCharity);\r\n        return (tTransferAmount, tFee, tLiquidity, tCharity);\r\n    }\r\n\r\n    function _getRValues(uint256 tAmount, uint256 tFee, uint256 tLiquidity, uint256 tCharity, uint256 currentRate) private pure returns (uint256, uint256, uint256) {\r\n        uint256 rAmount = tAmount.mul(currentRate);\r\n        uint256 rFee = tFee.mul(currentRate);\r\n        uint256 rLiquidity = tLiquidity.mul(currentRate);\r\n        uint256 rCharity = tCharity.mul(currentRate);\r\n        uint256 rTransferAmount = rAmount.sub(rFee).sub(rLiquidity).sub(rCharity);\r\n        return (rAmount, rTransferAmount, rFee);\r\n    }\r\n\r\n    function _getRate() private view returns(uint256) {\r\n        (uint256 rSupply, uint256 tSupply) = _getCurrentSupply();\r\n        return rSupply.div(tSupply);\r\n    }\r\n\r\n    function _getCurrentSupply() private view returns(uint256, uint256) {\r\n        uint256 rSupply = _rTotal;\r\n        uint256 tSupply = _tTotal;\r\n        for (uint256 i = 0; i < _excluded.length; i++) {\r\n            if (_rOwned[_excluded[i]] > rSupply || _tOwned[_excluded[i]] > tSupply) return (_rTotal, _tTotal);\r\n            rSupply = rSupply.sub(_rOwned[_excluded[i]]);\r\n            tSupply = tSupply.sub(_tOwned[_excluded[i]]);\r\n        }\r\n        if (rSupply < _rTotal.div(_tTotal)) return (_rTotal, _tTotal);\r\n        return (rSupply, tSupply);\r\n    }\r\n\r\n    function _takeLiquidity(uint256 tLiquidity) private {\r\n        uint256 currentRate =  _getRate();\r\n        uint256 rLiquidity = tLiquidity.mul(currentRate);\r\n        _rOwned[address(this)] = _rOwned[address(this)].add(rLiquidity);\r\n        if(_isExcluded[address(this)])\r\n            _tOwned[address(this)] = _tOwned[address(this)].add(tLiquidity);\r\n    }\r\n\r\n    function _takeCharity(uint256 tCharity) private {\r\n        uint256 currentRate =  _getRate();\r\n        uint256 rCharity = tCharity.mul(currentRate);\r\n        _rOwned[_charityAddress] = _rOwned[_charityAddress].add(rCharity);\r\n        if(_isExcluded[_charityAddress])\r\n            _tOwned[_charityAddress] = _tOwned[_charityAddress].add(tCharity);\r\n    }\r\n\r\n    function _takeAntiDip(uint256 tAntiDip) private {\r\n        uint256 currentRate =  _getRate();\r\n        uint256 rAntiDip = tAntiDip.mul(currentRate);\r\n        _rOwned[_antiDipAddress] = _rOwned[_antiDipAddress].add(rAntiDip);\r\n        if(_isExcluded[_antiDipAddress])\r\n            _tOwned[_antiDipAddress] = _tOwned[_antiDipAddress].add(tAntiDip);\r\n    }\r\n\r\n    function calculateTaxFee(uint256 _amount) private view returns (uint256) {\r\n        return _amount.mul(_taxFee).div(10**2);\r\n    }\r\n\r\n    function calculateLiquidityFee(uint256 _amount) private view returns (uint256) {\r\n        return _amount.mul(_liquidityFee).div(10**2);\r\n    }\r\n\r\n    function calculateCharityFee(uint256 _amount) private view returns (uint256) {\r\n        return _amount.mul(_charityFee).div(10**2);\r\n    }\r\n\r\n//////////////  questa funzione deve avere il feedback dall'oracolo di Uniswap per definire la fee in funzione dell'allontanamento dal prezzo massimo ////////////////////////\r\n   function calculateAntiDipFee(uint256 _amount) public onlyOwner view returns (uint256) {\r\n       uint256 antiDipResultFee;\r\n       if (!_autoMode) {\r\n           antiDipResultFee = _amount.mul(_antiDipFee).div(10**2);\r\n       }\r\n       else {\r\n           antiDipResultFee = _amount.mul(_antiDipFeeFromOracle).div(10**2);\r\n       }\r\n       return antiDipResultFee;\r\n   }\r\n\r\n    function removeAllFee() private {\r\n        if(_taxFee == 0 && _liquidityFee == 0 && _charityFee == 0) return;\r\n\r\n        _previousTaxFee = _taxFee;\r\n        _previousLiquidityFee = _liquidityFee;\r\n        _previousCharityFee = _charityFee;\r\n\r\n        _taxFee = 0;\r\n        _liquidityFee = 0;\r\n        _charityFee = 0;\r\n    }\r\n\r\n    function removeAllAntiDipFee() private {\r\n        if(_antiDipFee == 0) return;\r\n        _previousantiDipFee = _antiDipFee;\r\n        _antiDipFee = 0;\r\n    }\r\n\r\n    function restoreAllFee() private {\r\n        _taxFee = _previousTaxFee;\r\n        _liquidityFee = _previousLiquidityFee;\r\n        _charityFee = _previousCharityFee;\r\n    }\r\n\r\n    function restoreAllAntiDipFee() private {\r\n        _antiDipFee = _previousantiDipFee;\r\n    }\r\n\r\n    function isExcludedFromFee(address account) public view returns(bool) {\r\n        return _isExcludedFromFee[account];\r\n    }\r\n\r\n    function isExcludedFromAntiDipFee(address account) public view returns(bool) {\r\n        return _isExcludedFromAntiDipFee[account];\r\n    }\r\n\r\n    function _approve(address owner, address spender, uint256 amount) private {\r\n        require(owner != address(0), \"BNB20: approve from the zero address\");\r\n        require(spender != address(0), \"BNB20: approve to the zero address\");\r\n\r\n        _allowances[owner][spender] = amount;\r\n        emit Approval(owner, spender, amount);\r\n    }\r\n\r\n///////////// funzione di transfer per il transfer /////////////////////\r\n\r\n    function _transfer(\r\n        address from,\r\n        address to,\r\n        uint256 amount\r\n    ) private {\r\n        require(from != address(0), \"BNB20: transfer from the zero address\");\r\n        require(to != address(0), \"BNB20: transfer to the zero address\");\r\n        require(amount > 0, \"Transfer amount must be greater than zero\");\r\n        if(from != owner() && to != owner())\r\n            require(amount <= _maxTxAmount, \"Transfer amount exceeds the maxTxAmount.\");\r\n\r\n        //indicates if fee should be deducted from transfer\r\n        bool takeFee = true;\r\n\r\n        if(_isExcludedFromFee[from] || _isExcludedFromFee[to]){\r\n            takeFee = false;\r\n        }\r\n        //transfer amount, it will take redistribuition fee, charity fee, liquidity fee\r\n        _tokenTransfer(from,to,amount,takeFee);\r\n    }\r\n\r\n    //this method is responsible for taking all fee, if takeFee is true\r\n    function _tokenTransfer(address sender, address recipient, uint256 amount, bool takeFee) private {\r\n        if(!takeFee)\r\n            removeAllFee();\r\n\r\n        if (_isExcluded[sender] && !_isExcluded[recipient]) {\r\n            _transferFromExcluded(sender, recipient, amount);\r\n        } else if (!_isExcluded[sender] && _isExcluded[recipient]) {\r\n            _transferToExcluded(sender, recipient, amount);\r\n        } else if (!_isExcluded[sender] && !_isExcluded[recipient]) {\r\n            _transferStandard(sender, recipient, amount);\r\n        } else if (_isExcluded[sender] && _isExcluded[recipient]) {\r\n            _transferBothExcluded(sender, recipient, amount);\r\n        } else {\r\n            _transferStandard(sender, recipient, amount);\r\n        }\r\n\r\n        if(!takeFee)\r\n            restoreAllFee();\r\n    }\r\n\r\n    function _transferStandard(address sender, address recipient, uint256 tAmount) private {\r\n        (uint256 rAmount, uint256 rTransferAmount, uint256 rFee, uint256 tTransferAmount, uint256 tFee, uint256 tLiquidity, uint256 tCharity) = _getValues(tAmount);\r\n        _rOwned[sender] = _rOwned[sender].sub(rAmount);\r\n        _rOwned[recipient] = _rOwned[recipient].add(rTransferAmount);\r\n        _takeLiquidity(tLiquidity);\r\n        _takeCharity(tCharity);\r\n        _reflectFee(rFee, tFee);\r\n        emit Transfer(sender, recipient, tTransferAmount);\r\n    }\r\n\r\n    function _transferToExcluded(address sender, address recipient, uint256 tAmount) private {\r\n        (uint256 rAmount, uint256 rTransferAmount, uint256 rFee, uint256 tTransferAmount, uint256 tFee, uint256 tLiquidity, uint256 tCharity) = _getValues(tAmount);\r\n        _rOwned[sender] = _rOwned[sender].sub(rAmount);\r\n        _tOwned[recipient] = _tOwned[recipient].add(tTransferAmount);\r\n        _rOwned[recipient] = _rOwned[recipient].add(rTransferAmount);\r\n        _takeLiquidity(tLiquidity);\r\n        _takeCharity(tCharity);\r\n        _reflectFee(rFee, tFee);\r\n        emit Transfer(sender, recipient, tTransferAmount);\r\n    }\r\n\r\n    function _transferFromExcluded(address sender, address recipient, uint256 tAmount) private {\r\n        (uint256 rAmount, uint256 rTransferAmount, uint256 rFee, uint256 tTransferAmount, uint256 tFee, uint256 tLiquidity, uint256 tCharity) = _getValues(tAmount);\r\n        _tOwned[sender] = _tOwned[sender].sub(tAmount);\r\n        _rOwned[sender] = _rOwned[sender].sub(rAmount);\r\n        _rOwned[recipient] = _rOwned[recipient].add(rTransferAmount);\r\n        _takeLiquidity(tLiquidity);\r\n        _takeCharity(tCharity);\r\n        _reflectFee(rFee, tFee);\r\n        emit Transfer(sender, recipient, tTransferAmount);\r\n    }\r\n\r\n    function _transferBothExcluded(address sender, address recipient, uint256 tAmount) private {\r\n        (uint256 rAmount, uint256 rTransferAmount, uint256 rFee, uint256 tTransferAmount, uint256 tFee, uint256 tLiquidity, uint256 tCharity) = _getValues(tAmount);\r\n        _tOwned[sender] = _tOwned[sender].sub(tAmount);\r\n        _rOwned[sender] = _rOwned[sender].sub(rAmount);\r\n        _tOwned[recipient] = _tOwned[recipient].add(tTransferAmount);\r\n        _rOwned[recipient] = _rOwned[recipient].add(rTransferAmount);\r\n        _takeLiquidity(tLiquidity);\r\n        _takeCharity(tCharity);\r\n        _reflectFee(rFee, tFee);\r\n        emit Transfer(sender, recipient, tTransferAmount);\r\n    }\r\n\r\n    function _beforeTokenTransfer(address from, address to, uint256 amount) internal virtual { }\r\n}\r\n",
  "sourcePath": "C:/Dati/Progetti/BlockChain/Projects/TokenNew/contracts/TokenNew.sol",
  "compiler": {
    "name": "solc",
    "version": "0.8.4+commit.c7e474f2.Emscripten.clang"
  },
  "schemaVersion": "3.3.4",
  "updatedAt": "2021-07-20T19:51:38.259Z",
  "networkType": "ethereum",
  "devdoc": {
    "kind": "dev",
    "methods": {},
    "version": 1
  },
  "userdoc": {
    "kind": "user",
    "methods": {},
    "version": 1
  }
}